{
  "_format": "hh-sol-artifact-1",
  "contractName": "GitcoinAttester",
  "sourceName": "contracts/GitcoinAttester.sol",
  "abi": [
    {
      "inputs": [
        {
          "internalType": "address",
          "name": "iamIssuer",
          "type": "address"
        }
      ],
      "stateMutability": "payable",
      "type": "constructor"
    },
    {
      "inputs": [],
      "name": "DOMAIN_SEPARATOR",
      "outputs": [
        {
          "internalType": "bytes32",
          "name": "",
          "type": "bytes32"
        }
      ],
      "stateMutability": "view",
      "type": "function"
    },
    {
      "inputs": [
        {
          "internalType": "bytes32",
          "name": "schema",
          "type": "bytes32"
        },
        {
          "components": [
            {
              "internalType": "address",
              "name": "recipient",
              "type": "address"
            },
            {
              "internalType": "uint64",
              "name": "expirationTime",
              "type": "uint64"
            },
            {
              "internalType": "bool",
              "name": "revocable",
              "type": "bool"
            },
            {
              "internalType": "bytes32",
              "name": "refUID",
              "type": "bytes32"
            },
            {
              "internalType": "bytes",
              "name": "data",
              "type": "bytes"
            },
            {
              "internalType": "uint256",
              "name": "value",
              "type": "uint256"
            }
          ],
          "internalType": "struct AttestationRequestData[]",
          "name": "attestationRequestData",
          "type": "tuple[]"
        }
      ],
      "name": "addPassport",
      "outputs": [
        {
          "internalType": "bytes32[]",
          "name": "",
          "type": "bytes32[]"
        }
      ],
      "stateMutability": "payable",
      "type": "function"
    },
    {
      "inputs": [
        {
          "internalType": "bytes32",
          "name": "schema",
          "type": "bytes32"
        },
        {
          "components": [
            {
              "components": [
                {
                  "internalType": "string",
                  "name": "provider",
                  "type": "string"
                },
                {
                  "internalType": "string",
                  "name": "stampHash",
                  "type": "string"
                },
                {
                  "internalType": "string",
                  "name": "expirationDate",
                  "type": "string"
                },
                {
                  "internalType": "bytes",
                  "name": "encodedData",
                  "type": "bytes"
                }
              ],
              "internalType": "struct Stamp[]",
              "name": "stamps",
              "type": "tuple[]"
            },
            {
              "internalType": "address",
              "name": "recipient",
              "type": "address"
            },
            {
              "internalType": "uint64",
              "name": "expirationTime",
              "type": "uint64"
            },
            {
              "internalType": "bool",
              "name": "revocable",
              "type": "bool"
            },
            {
              "internalType": "bytes32",
              "name": "refUID",
              "type": "bytes32"
            },
            {
              "internalType": "uint256",
              "name": "value",
              "type": "uint256"
            },
            {
              "internalType": "uint256",
              "name": "nonce",
              "type": "uint256"
            }
          ],
          "internalType": "struct Passport",
          "name": "passport",
          "type": "tuple"
        },
        {
          "internalType": "uint8",
          "name": "v",
          "type": "uint8"
        },
        {
          "internalType": "bytes32",
          "name": "r",
          "type": "bytes32"
        },
        {
          "internalType": "bytes32",
          "name": "s",
          "type": "bytes32"
        }
      ],
      "name": "addPassportWithSignature",
      "outputs": [
        {
          "internalType": "bytes32[]",
          "name": "",
          "type": "bytes32[]"
        }
      ],
      "stateMutability": "payable",
      "type": "function"
    },
    {
      "inputs": [
        {
          "internalType": "bytes32",
          "name": "uid",
          "type": "bytes32"
        }
      ],
      "name": "getAttestation",
      "outputs": [
        {
          "components": [
            {
              "internalType": "bytes32",
              "name": "uid",
              "type": "bytes32"
            },
            {
              "internalType": "bytes32",
              "name": "schema",
              "type": "bytes32"
            },
            {
              "internalType": "uint64",
              "name": "time",
              "type": "uint64"
            },
            {
              "internalType": "uint64",
              "name": "expirationTime",
              "type": "uint64"
            },
            {
              "internalType": "uint64",
              "name": "revocationTime",
              "type": "uint64"
            },
            {
              "internalType": "bytes32",
              "name": "refUID",
              "type": "bytes32"
            },
            {
              "internalType": "address",
              "name": "recipient",
              "type": "address"
            },
            {
              "internalType": "address",
              "name": "attester",
              "type": "address"
            },
            {
              "internalType": "bool",
              "name": "revocable",
              "type": "bool"
            },
            {
              "internalType": "bytes",
              "name": "data",
              "type": "bytes"
            }
          ],
          "internalType": "struct Attestation",
          "name": "",
          "type": "tuple"
        }
      ],
      "stateMutability": "view",
      "type": "function"
    },
    {
      "inputs": [],
      "name": "getChainId",
      "outputs": [
        {
          "internalType": "uint256",
          "name": "",
          "type": "uint256"
        }
      ],
      "stateMutability": "view",
      "type": "function"
    },
    {
      "inputs": [],
      "name": "issuer",
      "outputs": [
        {
          "internalType": "address",
          "name": "",
          "type": "address"
        }
      ],
      "stateMutability": "view",
      "type": "function"
    },
    {
      "inputs": [],
      "name": "name",
      "outputs": [
        {
          "internalType": "string",
          "name": "",
          "type": "string"
        }
      ],
      "stateMutability": "view",
      "type": "function"
    },
    {
      "inputs": [
        {
          "internalType": "address",
          "name": "",
          "type": "address"
        }
      ],
      "name": "recipientNonces",
      "outputs": [
        {
          "internalType": "uint256",
          "name": "",
          "type": "uint256"
        }
      ],
      "stateMutability": "view",
      "type": "function"
    },
    {
      "inputs": [
        {
          "internalType": "address",
          "name": "_easContractAddress",
          "type": "address"
        }
      ],
      "name": "setEASAddress",
      "outputs": [],
      "stateMutability": "nonpayable",
      "type": "function"
    },
    {
      "inputs": [
        {
          "internalType": "uint8",
          "name": "v",
          "type": "uint8"
        },
        {
          "internalType": "bytes32",
          "name": "r",
          "type": "bytes32"
        },
        {
          "internalType": "bytes32",
          "name": "s",
          "type": "bytes32"
        },
        {
          "components": [
            {
              "components": [
                {
                  "internalType": "string",
                  "name": "provider",
                  "type": "string"
                },
                {
                  "internalType": "string",
                  "name": "stampHash",
                  "type": "string"
                },
                {
                  "internalType": "string",
                  "name": "expirationDate",
                  "type": "string"
                },
                {
                  "internalType": "bytes",
                  "name": "encodedData",
                  "type": "bytes"
                }
              ],
              "internalType": "struct Stamp[]",
              "name": "stamps",
              "type": "tuple[]"
            },
            {
              "internalType": "address",
              "name": "recipient",
              "type": "address"
            },
            {
              "internalType": "uint64",
              "name": "expirationTime",
              "type": "uint64"
            },
            {
              "internalType": "bool",
              "name": "revocable",
              "type": "bool"
            },
            {
              "internalType": "bytes32",
              "name": "refUID",
              "type": "bytes32"
            },
            {
              "internalType": "uint256",
              "name": "value",
              "type": "uint256"
            },
            {
              "internalType": "uint256",
              "name": "nonce",
              "type": "uint256"
            }
          ],
          "internalType": "struct Passport",
          "name": "passport",
          "type": "tuple"
        }
      ],
      "name": "verify",
      "outputs": [
        {
          "internalType": "bool",
          "name": "",
          "type": "bool"
        }
      ],
      "stateMutability": "nonpayable",
      "type": "function"
    }
  ],
  "bytecode": "0x608060405260405162002d1838038062002d188339818101604052810190620000299190620001f0565b80806000806101000a81548173ffffffffffffffffffffffffffffffffffffffff021916908373ffffffffffffffffffffffffffffffffffffffff1602179055506040518060400160405280600881526020017f417474657374657200000000000000000000000000000000000000000000000081525060019081620000b091906200049c565b506000620000c36200017960201b60201c565b90507f8b73c3c69bb8fe3d512ecc4cf759cc79239f7b179b0ffacaa9a75d522b39400f6001604051620000f7919062000632565b60405180910390206040518060400160405280600181526020017f31000000000000000000000000000000000000000000000000000000000000008152508051906020012083306040516020016200015495949392919062000688565b60405160208183030381529060405280519060200120600381905550505050620006e5565b6000804690508091505090565b600080fd5b600073ffffffffffffffffffffffffffffffffffffffff82169050919050565b6000620001b8826200018b565b9050919050565b620001ca81620001ab565b8114620001d657600080fd5b50565b600081519050620001ea81620001bf565b92915050565b60006020828403121562000209576200020862000186565b5b60006200021984828501620001d9565b91505092915050565b600081519050919050565b7f4e487b7100000000000000000000000000000000000000000000000000000000600052604160045260246000fd5b7f4e487b7100000000000000000000000000000000000000000000000000000000600052602260045260246000fd5b60006002820490506001821680620002a457607f821691505b602082108103620002ba57620002b96200025c565b5b50919050565b60008190508160005260206000209050919050565b60006020601f8301049050919050565b600082821b905092915050565b600060088302620003247fffffffffffffffffffffffffffffffffffffffffffffffffffffffffffffffff82620002e5565b620003308683620002e5565b95508019841693508086168417925050509392505050565b6000819050919050565b6000819050919050565b60006200037d62000377620003718462000348565b62000352565b62000348565b9050919050565b6000819050919050565b62000399836200035c565b620003b1620003a88262000384565b848454620002f2565b825550505050565b600090565b620003c8620003b9565b620003d58184846200038e565b505050565b5b81811015620003fd57620003f1600082620003be565b600181019050620003db565b5050565b601f8211156200044c576200041681620002c0565b6200042184620002d5565b8101602085101562000431578190505b620004496200044085620002d5565b830182620003da565b50505b505050565b600082821c905092915050565b6000620004716000198460080262000451565b1980831691505092915050565b60006200048c83836200045e565b9150826002028217905092915050565b620004a78262000222565b67ffffffffffffffff811115620004c357620004c26200022d565b5b620004cf82546200028b565b620004dc82828562000401565b600060209050601f831160018114620005145760008415620004ff578287015190505b6200050b85826200047e565b8655506200057b565b601f1984166200052486620002c0565b60005b828110156200054e5784890151825560018201915060208501945060208101905062000527565b868310156200056e57848901516200056a601f8916826200045e565b8355505b6001600288020188555050505b505050505050565b600081905092915050565b60008190508160005260206000209050919050565b60008154620005b2816200028b565b620005be818662000583565b94506001821660008114620005dc5760018114620005f25762000629565b60ff198316865281151582028601935062000629565b620005fd856200058e565b60005b83811015620006215781548189015260018201915060208101905062000600565b838801955050505b50505092915050565b6000620006408284620005a3565b915081905092915050565b6000819050919050565b62000660816200064b565b82525050565b620006718162000348565b82525050565b6200068281620001ab565b82525050565b600060a0820190506200069f600083018862000655565b620006ae602083018762000655565b620006bd604083018662000655565b620006cc606083018562000666565b620006db608083018462000677565b9695505050505050565b61262380620006f56000396000f3fe6080604052600436106100915760003560e01c80633644e515116100595780633644e51514610184578063a3112a64146101af578063c26aaba1146101ec578063d2ae372c14610229578063e9ed60671461025257610091565b806306fdde03146100965780631d143848146100c15780631d7f6b88146100ec578063271caf12146101295780633408e47014610159575b600080fd5b3480156100a257600080fd5b506100ab610282565b6040516100b89190610fd6565b60405180910390f35b3480156100cd57600080fd5b506100d6610310565b6040516100e39190611039565b60405180910390f35b3480156100f857600080fd5b50610113600480360381019061010e91906110fb565b610334565b6040516101209190611199565b60405180910390f35b610143600480360381019061013e9190611219565b6104a2565b6040516101509190611337565b60405180910390f35b34801561016557600080fd5b5061016e610625565b60405161017b9190611372565b60405180910390f35b34801561019057600080fd5b50610199610632565b6040516101a6919061139c565b60405180910390f35b3480156101bb57600080fd5b506101d660048036038101906101d191906113b7565b610638565b6040516101e39190611554565b60405180910390f35b3480156101f857600080fd5b50610213600480360381019061020e91906115a2565b6106e8565b6040516102209190611372565b60405180910390f35b34801561023557600080fd5b50610250600480360381019061024b91906115a2565b610700565b005b61026c600480360381019061026791906115cf565b6107a7565b6040516102799190611337565b60405180910390f35b6001805461028f90611695565b80601f01602080910402602001604051908101604052809291908181526020018280546102bb90611695565b80156103085780601f106102dd57610100808354040283529160200191610308565b820191906000526020600020905b8154815290600101906020018083116102eb57829003601f168201915b505050505081565b60008054906101000a900473ffffffffffffffffffffffffffffffffffffffff1681565b6000806103498361034490611bbe565b610a18565b9050600061035960035483610b74565b9050600061036982898989610ba7565b905060008060009054906101000a900473ffffffffffffffffffffffffffffffffffffffff1673ffffffffffffffffffffffffffffffffffffffff168273ffffffffffffffffffffffffffffffffffffffff161490506000600260008860200160208101906103d891906115a2565b73ffffffffffffffffffffffffffffffffffffffff1673ffffffffffffffffffffffffffffffffffffffff168152602001908152602001600020548760c001351490508015610489576002600088602001602081019061043891906115a2565b73ffffffffffffffffffffffffffffffffffffffff1673ffffffffffffffffffffffffffffffffffffffff168152602001908152602001600020600081548092919061048390611c00565b91905055505b8180156104935750805b95505050505050949350505050565b606060008383905067ffffffffffffffff8111156104c3576104c26116cb565b5b6040519080825280602002602001820160405280156104f15781602001602082028036833780820191505090505b50905060005b84849050811015610619576000604051806040016040528088815260200187878581811061052857610527611c48565b5b905060200281019061053a9190611c86565b61054390611d6a565b8152509050600560009054906101000a900473ffffffffffffffffffffffffffffffffffffffff1673ffffffffffffffffffffffffffffffffffffffff1663f17325e7826040518263ffffffff1660e01b81526004016105a39190611e52565b6020604051808303816000875af11580156105c2573d6000803e3d6000fd5b505050506040513d601f19601f820116820180604052508101906105e69190611e89565b8383815181106105f9576105f8611c48565b5b60200260200101818152505050808061061190611c00565b9150506104f7565b50809150509392505050565b6000804690508091505090565b60035481565b610640610e9e565b600560009054906101000a900473ffffffffffffffffffffffffffffffffffffffff1673ffffffffffffffffffffffffffffffffffffffff1663a3112a64836040518263ffffffff1660e01b815260040161069b919061139c565b600060405180830381865afa1580156106b8573d6000803e3d6000fd5b505050506040513d6000823e3d601f19601f820116820180604052508101906106e19190612077565b9050919050565b60026020528060005260406000206000915090505481565b80600460006101000a81548173ffffffffffffffffffffffffffffffffffffffff021916908373ffffffffffffffffffffffffffffffffffffffff160217905550600460009054906101000a900473ffffffffffffffffffffffffffffffffffffffff16600560006101000a81548173ffffffffffffffffffffffffffffffffffffffff021916908373ffffffffffffffffffffffffffffffffffffffff16021790555050565b6060600015156107b985858589610334565b1515036107fb576040517f08c379a00000000000000000000000000000000000000000000000000000000081526004016107f29061210c565b60405180910390fd5b600085806000019061080d919061212c565b905067ffffffffffffffff811115610828576108276116cb565b5b6040519080825280602002602001820160405280156108565781602001602082028036833780820191505090505b50905060005b86806000019061086c919061212c565b9050811015610a0a576000878060000190610887919061212c565b8381811061089857610897611c48565b5b90506020028101906108aa919061218f565b6108b3906121b7565b9050600060405180604001604052808b81526020016040518060c001604052808c60200160208101906108e691906115a2565b73ffffffffffffffffffffffffffffffffffffffff168152602001600067ffffffffffffffff1681526020016001151581526020016000801b81526020018560600151815260200160008152508152509050600560009054906101000a900473ffffffffffffffffffffffffffffffffffffffff1673ffffffffffffffffffffffffffffffffffffffff1663f17325e7826040518263ffffffff1660e01b81526004016109939190611e52565b6020604051808303816000875af11580156109b2573d6000803e3d6000fd5b505050506040513d601f19601f820116820180604052508101906109d69190611e89565b8484815181106109e9576109e8611c48565b5b60200260200101818152505050508080610a0290611c00565b91505061085c565b508091505095945050505050565b60008082600001515167ffffffffffffffff811115610a3a57610a396116cb565b5b604051908082528060200260200182016040528015610a685781602001602082028036833780820191505090505b50905060005b836000015151811015610ad257610aa284600001518281518110610a9557610a94611c48565b5b6020026020010151610bd2565b828281518110610ab557610ab4611c48565b5b60200260200101818152505080610acb90611c00565b9050610a6e565b50600081604051602001610ae6919061225a565b6040516020818303038152906040528051906020012090507fcba63c3fa0ab8d06bc9c65958f7c955e8b5c0ef0deb94ba30a140f87e13d0b648185602001518660400151876060015188608001518960a001518a60c00151604051602001610b55989796959493929190612280565b6040516020818303038152906040528051906020012092505050919050565b60008282604051602001610b89929190612376565b60405160208183030381529060405280519060200120905092915050565b6000806000610bb887878787610c56565b91509150610bc581610d38565b8192505050949350505050565b60007fa5a3d2dce9820519305fc2b0757ca9aeaff0b7c8aec688876d660dcc1f4525b5826000015180519060200120836020015180519060200120846040015180519060200120856060015180519060200120604051602001610c399594939291906123ad565b604051602081830303815290604052805190602001209050919050565b6000807f7fffffffffffffffffffffffffffffff5d576e7357a4501ddfe92f46681b20a08360001c1115610c91576000600391509150610d2f565b600060018787878760405160008152602001604052604051610cb6949392919061240f565b6020604051602081039080840390855afa158015610cd8573d6000803e3d6000fd5b505050602060405103519050600073ffffffffffffffffffffffffffffffffffffffff168173ffffffffffffffffffffffffffffffffffffffff1603610d2657600060019250925050610d2f565b80600092509250505b94509492505050565b60006004811115610d4c57610d4b612454565b5b816004811115610d5f57610d5e612454565b5b0315610e9b5760016004811115610d7957610d78612454565b5b816004811115610d8c57610d8b612454565b5b03610dcc576040517f08c379a0000000000000000000000000000000000000000000000000000000008152600401610dc3906124cf565b60405180910390fd5b60026004811115610de057610ddf612454565b5b816004811115610df357610df2612454565b5b03610e33576040517f08c379a0000000000000000000000000000000000000000000000000000000008152600401610e2a9061253b565b60405180910390fd5b60036004811115610e4757610e46612454565b5b816004811115610e5a57610e59612454565b5b03610e9a576040517f08c379a0000000000000000000000000000000000000000000000000000000008152600401610e91906125cd565b60405180910390fd5b5b50565b6040518061014001604052806000801916815260200160008019168152602001600067ffffffffffffffff168152602001600067ffffffffffffffff168152602001600067ffffffffffffffff16815260200160008019168152602001600073ffffffffffffffffffffffffffffffffffffffff168152602001600073ffffffffffffffffffffffffffffffffffffffff168152602001600015158152602001606081525090565b600081519050919050565b600082825260208201905092915050565b60005b83811015610f80578082015181840152602081019050610f65565b60008484015250505050565b6000601f19601f8301169050919050565b6000610fa882610f46565b610fb28185610f51565b9350610fc2818560208601610f62565b610fcb81610f8c565b840191505092915050565b60006020820190508181036000830152610ff08184610f9d565b905092915050565b600073ffffffffffffffffffffffffffffffffffffffff82169050919050565b600061102382610ff8565b9050919050565b61103381611018565b82525050565b600060208201905061104e600083018461102a565b92915050565b6000604051905090565b600080fd5b600080fd5b600060ff82169050919050565b61107e81611068565b811461108957600080fd5b50565b60008135905061109b81611075565b92915050565b6000819050919050565b6110b4816110a1565b81146110bf57600080fd5b50565b6000813590506110d1816110ab565b92915050565b600080fd5b600060e082840312156110f2576110f16110d7565b5b81905092915050565b600080600080608085870312156111155761111461105e565b5b60006111238782880161108c565b9450506020611134878288016110c2565b9350506040611145878288016110c2565b925050606085013567ffffffffffffffff81111561116657611165611063565b5b611172878288016110dc565b91505092959194509250565b60008115159050919050565b6111938161117e565b82525050565b60006020820190506111ae600083018461118a565b92915050565b600080fd5b600080fd5b600080fd5b60008083601f8401126111d9576111d86111b4565b5b8235905067ffffffffffffffff8111156111f6576111f56111b9565b5b602083019150836020820283011115611212576112116111be565b5b9250929050565b6000806000604084860312156112325761123161105e565b5b6000611240868287016110c2565b935050602084013567ffffffffffffffff81111561126157611260611063565b5b61126d868287016111c3565b92509250509250925092565b600081519050919050565b600082825260208201905092915050565b6000819050602082019050919050565b6112ae816110a1565b82525050565b60006112c083836112a5565b60208301905092915050565b6000602082019050919050565b60006112e482611279565b6112ee8185611284565b93506112f983611295565b8060005b8381101561132a57815161131188826112b4565b975061131c836112cc565b9250506001810190506112fd565b5085935050505092915050565b6000602082019050818103600083015261135181846112d9565b905092915050565b6000819050919050565b61136c81611359565b82525050565b60006020820190506113876000830184611363565b92915050565b611396816110a1565b82525050565b60006020820190506113b1600083018461138d565b92915050565b6000602082840312156113cd576113cc61105e565b5b60006113db848285016110c2565b91505092915050565b600067ffffffffffffffff82169050919050565b611401816113e4565b82525050565b61141081611018565b82525050565b61141f8161117e565b82525050565b600081519050919050565b600082825260208201905092915050565b600061144c82611425565b6114568185611430565b9350611466818560208601610f62565b61146f81610f8c565b840191505092915050565b60006101408301600083015161149360008601826112a5565b5060208301516114a660208601826112a5565b5060408301516114b960408601826113f8565b5060608301516114cc60608601826113f8565b5060808301516114df60808601826113f8565b5060a08301516114f260a08601826112a5565b5060c083015161150560c0860182611407565b5060e083015161151860e0860182611407565b5061010083015161152d610100860182611416565b506101208301518482036101208601526115478282611441565b9150508091505092915050565b6000602082019050818103600083015261156e818461147a565b905092915050565b61157f81611018565b811461158a57600080fd5b50565b60008135905061159c81611576565b92915050565b6000602082840312156115b8576115b761105e565b5b60006115c68482850161158d565b91505092915050565b600080600080600060a086880312156115eb576115ea61105e565b5b60006115f9888289016110c2565b955050602086013567ffffffffffffffff81111561161a57611619611063565b5b611626888289016110dc565b94505060406116378882890161108c565b9350506060611648888289016110c2565b9250506080611659888289016110c2565b9150509295509295909350565b7f4e487b7100000000000000000000000000000000000000000000000000000000600052602260045260246000fd5b600060028204905060018216806116ad57607f821691505b6020821081036116c0576116bf611666565b5b50919050565b600080fd5b7f4e487b7100000000000000000000000000000000000000000000000000000000600052604160045260246000fd5b61170382610f8c565b810181811067ffffffffffffffff82111715611722576117216116cb565b5b80604052505050565b6000611735611054565b905061174182826116fa565b919050565b600080fd5b600067ffffffffffffffff821115611766576117656116cb565b5b602082029050602081019050919050565b600080fd5b600067ffffffffffffffff821115611797576117966116cb565b5b6117a082610f8c565b9050602081019050919050565b82818337600083830152505050565b60006117cf6117ca8461177c565b61172b565b9050828152602081018484840111156117eb576117ea611777565b5b6117f68482856117ad565b509392505050565b600082601f830112611813576118126111b4565b5b81356118238482602086016117bc565b91505092915050565b600067ffffffffffffffff821115611847576118466116cb565b5b61185082610f8c565b9050602081019050919050565b600061187061186b8461182c565b61172b565b90508281526020810184848401111561188c5761188b611777565b5b6118978482856117ad565b509392505050565b600082601f8301126118b4576118b36111b4565b5b81356118c484826020860161185d565b91505092915050565b6000608082840312156118e3576118e26116c6565b5b6118ed608061172b565b9050600082013567ffffffffffffffff81111561190d5761190c611746565b5b611919848285016117fe565b600083015250602082013567ffffffffffffffff81111561193d5761193c611746565b5b611949848285016117fe565b602083015250604082013567ffffffffffffffff81111561196d5761196c611746565b5b611979848285016117fe565b604083015250606082013567ffffffffffffffff81111561199d5761199c611746565b5b6119a98482850161189f565b60608301525092915050565b60006119c86119c38461174b565b61172b565b905080838252602082019050602084028301858111156119eb576119ea6111be565b5b835b81811015611a3257803567ffffffffffffffff811115611a1057611a0f6111b4565b5b808601611a1d89826118cd565b855260208501945050506020810190506119ed565b5050509392505050565b600082601f830112611a5157611a506111b4565b5b8135611a618482602086016119b5565b91505092915050565b611a73816113e4565b8114611a7e57600080fd5b50565b600081359050611a9081611a6a565b92915050565b611a9f8161117e565b8114611aaa57600080fd5b50565b600081359050611abc81611a96565b92915050565b611acb81611359565b8114611ad657600080fd5b50565b600081359050611ae881611ac2565b92915050565b600060e08284031215611b0457611b036116c6565b5b611b0e60e061172b565b9050600082013567ffffffffffffffff811115611b2e57611b2d611746565b5b611b3a84828501611a3c565b6000830152506020611b4e8482850161158d565b6020830152506040611b6284828501611a81565b6040830152506060611b7684828501611aad565b6060830152506080611b8a848285016110c2565b60808301525060a0611b9e84828501611ad9565b60a08301525060c0611bb284828501611ad9565b60c08301525092915050565b6000611bca3683611aee565b9050919050565b7f4e487b7100000000000000000000000000000000000000000000000000000000600052601160045260246000fd5b6000611c0b82611359565b91507fffffffffffffffffffffffffffffffffffffffffffffffffffffffffffffffff8203611c3d57611c3c611bd1565b5b600182019050919050565b7f4e487b7100000000000000000000000000000000000000000000000000000000600052603260045260246000fd5b600080fd5b600080fd5b600080fd5b60008235600160c003833603038112611ca257611ca1611c77565b5b80830191505092915050565b600060c08284031215611cc457611cc36116c6565b5b611cce60c061172b565b90506000611cde8482850161158d565b6000830152506020611cf284828501611a81565b6020830152506040611d0684828501611aad565b6040830152506060611d1a848285016110c2565b606083015250608082013567ffffffffffffffff811115611d3e57611d3d611746565b5b611d4a8482850161189f565b60808301525060a0611d5e84828501611ad9565b60a08301525092915050565b6000611d763683611cae565b9050919050565b611d8681611359565b82525050565b600060c083016000830151611da46000860182611407565b506020830151611db760208601826113f8565b506040830151611dca6040860182611416565b506060830151611ddd60608601826112a5565b5060808301518482036080860152611df58282611441565b91505060a0830151611e0a60a0860182611d7d565b508091505092915050565b6000604083016000830151611e2d60008601826112a5565b5060208301518482036020860152611e458282611d8c565b9150508091505092915050565b60006020820190508181036000830152611e6c8184611e15565b905092915050565b600081519050611e83816110ab565b92915050565b600060208284031215611e9f57611e9e61105e565b5b6000611ead84828501611e74565b91505092915050565b600081519050611ec581611a6a565b92915050565b600081519050611eda81611576565b92915050565b600081519050611eef81611a96565b92915050565b6000611f08611f038461182c565b61172b565b905082815260208101848484011115611f2457611f23611777565b5b611f2f848285610f62565b509392505050565b600082601f830112611f4c57611f4b6111b4565b5b8151611f5c848260208601611ef5565b91505092915050565b60006101408284031215611f7c57611f7b6116c6565b5b611f8761014061172b565b90506000611f9784828501611e74565b6000830152506020611fab84828501611e74565b6020830152506040611fbf84828501611eb6565b6040830152506060611fd384828501611eb6565b6060830152506080611fe784828501611eb6565b60808301525060a0611ffb84828501611e74565b60a08301525060c061200f84828501611ecb565b60c08301525060e061202384828501611ecb565b60e08301525061010061203884828501611ee0565b6101008301525061012082015167ffffffffffffffff81111561205e5761205d611746565b5b61206a84828501611f37565b6101208301525092915050565b60006020828403121561208d5761208c61105e565b5b600082015167ffffffffffffffff8111156120ab576120aa611063565b5b6120b784828501611f65565b91505092915050565b7f496e76616c6964207369676e6174757265000000000000000000000000000000600082015250565b60006120f6601183610f51565b9150612101826120c0565b602082019050919050565b60006020820190508181036000830152612125816120e9565b9050919050565b6000808335600160200384360303811261214957612148611c77565b5b80840192508235915067ffffffffffffffff82111561216b5761216a611c7c565b5b60208301925060208202360383131561218757612186611c81565b5b509250929050565b6000823560016080038336030381126121ab576121aa611c77565b5b80830191505092915050565b60006121c336836118cd565b9050919050565b600081905092915050565b6121de816110a1565b82525050565b60006121f083836121d5565b60208301905092915050565b600061220782611279565b61221181856121ca565b935061221c83611295565b8060005b8381101561224d57815161223488826121e4565b975061223f836112cc565b925050600181019050612220565b5085935050505092915050565b600061226682846121fc565b915081905092915050565b61227a816113e4565b82525050565b600061010082019050612296600083018b61138d565b6122a3602083018a61138d565b6122b0604083018961102a565b6122bd6060830188612271565b6122ca608083018761118a565b6122d760a083018661138d565b6122e460c0830185611363565b6122f160e0830184611363565b9998505050505050505050565b600081905092915050565b7f1901000000000000000000000000000000000000000000000000000000000000600082015250565b600061233f6002836122fe565b915061234a82612309565b600282019050919050565b6000819050919050565b61237061236b826110a1565b612355565b82525050565b600061238182612332565b915061238d828561235f565b60208201915061239d828461235f565b6020820191508190509392505050565b600060a0820190506123c2600083018861138d565b6123cf602083018761138d565b6123dc604083018661138d565b6123e9606083018561138d565b6123f6608083018461138d565b9695505050505050565b61240981611068565b82525050565b6000608082019050612424600083018761138d565b6124316020830186612400565b61243e604083018561138d565b61244b606083018461138d565b95945050505050565b7f4e487b7100000000000000000000000000000000000000000000000000000000600052602160045260246000fd5b7f45434453413a20696e76616c6964207369676e61747572650000000000000000600082015250565b60006124b9601883610f51565b91506124c482612483565b602082019050919050565b600060208201905081810360008301526124e8816124ac565b9050919050565b7f45434453413a20696e76616c6964207369676e6174757265206c656e67746800600082015250565b6000612525601f83610f51565b9150612530826124ef565b602082019050919050565b6000602082019050818103600083015261255481612518565b9050919050565b7f45434453413a20696e76616c6964207369676e6174757265202773272076616c60008201527f7565000000000000000000000000000000000000000000000000000000000000602082015250565b60006125b7602283610f51565b91506125c28261255b565b604082019050919050565b600060208201905081810360008301526125e6816125aa565b905091905056fea26469706673582212205cfca5f5a5ebe1542360a75c5c099d61191595f4ad9b60db520db0fcb812bfc564736f6c63430008120033",
  "linkReferences": {},
  "deployedLinkReferences": {}
}