{
  "_format": "hh-sol-artifact-1",
  "contractName": "GitcoinVerifier",
  "sourceName": "contracts/GitcoinVerifier.sol",
  "abi": [
    {
      "inputs": [
        {
          "internalType": "address",
          "name": "_issuer",
          "type": "address"
        },
        {
          "internalType": "address",
          "name": "_attester",
          "type": "address"
        }
      ],
      "stateMutability": "nonpayable",
      "type": "constructor"
    },
    {
      "anonymous": false,
      "inputs": [
        {
          "indexed": true,
          "internalType": "address",
          "name": "previousOwner",
          "type": "address"
        },
        {
          "indexed": true,
          "internalType": "address",
          "name": "newOwner",
          "type": "address"
        }
      ],
      "name": "OwnershipTransferred",
      "type": "event"
    },
    {
      "inputs": [],
      "name": "attester",
      "outputs": [
        {
          "internalType": "contract GitcoinAttester",
          "name": "",
          "type": "address"
        }
      ],
      "stateMutability": "view",
      "type": "function"
    },
    {
      "inputs": [],
      "name": "issuer",
      "outputs": [
        {
          "internalType": "address",
          "name": "",
          "type": "address"
        }
      ],
      "stateMutability": "view",
      "type": "function"
    },
    {
      "inputs": [],
      "name": "name",
      "outputs": [
        {
          "internalType": "string",
          "name": "",
          "type": "string"
        }
      ],
      "stateMutability": "view",
      "type": "function"
    },
    {
      "inputs": [],
      "name": "owner",
      "outputs": [
        {
          "internalType": "address",
          "name": "",
          "type": "address"
        }
      ],
      "stateMutability": "view",
      "type": "function"
    },
    {
      "inputs": [
        {
          "internalType": "address",
          "name": "",
          "type": "address"
        }
      ],
      "name": "recipientNonces",
      "outputs": [
        {
          "internalType": "uint256",
          "name": "",
          "type": "uint256"
        }
      ],
      "stateMutability": "view",
      "type": "function"
    },
    {
      "inputs": [],
      "name": "renounceOwnership",
      "outputs": [],
      "stateMutability": "nonpayable",
      "type": "function"
    },
    {
      "inputs": [
        {
          "internalType": "address",
          "name": "newOwner",
          "type": "address"
        }
      ],
      "name": "transferOwnership",
      "outputs": [],
      "stateMutability": "nonpayable",
      "type": "function"
    },
    {
      "inputs": [
        {
          "components": [
            {
              "components": [
                {
                  "internalType": "bytes32",
                  "name": "schema",
                  "type": "bytes32"
                },
                {
                  "components": [
                    {
                      "internalType": "address",
                      "name": "recipient",
                      "type": "address"
                    },
                    {
                      "internalType": "uint64",
                      "name": "expirationTime",
                      "type": "uint64"
                    },
                    {
                      "internalType": "bool",
                      "name": "revocable",
                      "type": "bool"
                    },
                    {
                      "internalType": "bytes32",
                      "name": "refUID",
                      "type": "bytes32"
                    },
                    {
                      "internalType": "bytes",
                      "name": "data",
                      "type": "bytes"
                    },
                    {
                      "internalType": "uint256",
                      "name": "value",
                      "type": "uint256"
                    }
                  ],
                  "internalType": "struct AttestationRequestData[]",
                  "name": "data",
                  "type": "tuple[]"
                }
              ],
              "internalType": "struct MultiAttestationRequest[]",
              "name": "multiAttestationRequest",
              "type": "tuple[]"
            },
            {
              "internalType": "uint256",
              "name": "nonce",
              "type": "uint256"
            },
            {
              "internalType": "uint256",
              "name": "fee",
              "type": "uint256"
            }
          ],
          "internalType": "struct GitcoinVerifier.PassportAttestationRequest",
          "name": "attestationRequest",
          "type": "tuple"
        },
        {
          "internalType": "uint8",
          "name": "v",
          "type": "uint8"
        },
        {
          "internalType": "bytes32",
          "name": "r",
          "type": "bytes32"
        },
        {
          "internalType": "bytes32",
          "name": "s",
          "type": "bytes32"
        }
      ],
      "name": "verifyAndAttest",
      "outputs": [],
      "stateMutability": "payable",
      "type": "function"
    },
    {
      "inputs": [],
      "name": "withdrawFees",
      "outputs": [],
      "stateMutability": "nonpayable",
      "type": "function"
    }
  ],
  "bytecode": "0x60e06040523480156200001157600080fd5b5060405162002cca38038062002cca83398181016040528101906200003791906200030d565b620000576200004b620001cf60201b60201c565b620001d760201b60201c565b8073ffffffffffffffffffffffffffffffffffffffff1660808173ffffffffffffffffffffffffffffffffffffffff16815250508173ffffffffffffffffffffffffffffffffffffffff1660a08173ffffffffffffffffffffffffffffffffffffffff16815250506040518060400160405280600f81526020017f476974636f696e5665726966696572000000000000000000000000000000000081525060019081620001059190620005ce565b506000620001186200029b60201b60201c565b90507f8b73c3c69bb8fe3d512ecc4cf759cc79239f7b179b0ffacaa9a75d522b39400f60016040516200014c919062000764565b60405180910390206040518060400160405280600181526020017f3100000000000000000000000000000000000000000000000000000000000000815250805190602001208330604051602001620001a9959493929190620007ba565b6040516020818303038152906040528051906020012060c0818152505050505062000817565b600033905090565b60008060009054906101000a900473ffffffffffffffffffffffffffffffffffffffff169050816000806101000a81548173ffffffffffffffffffffffffffffffffffffffff021916908373ffffffffffffffffffffffffffffffffffffffff1602179055508173ffffffffffffffffffffffffffffffffffffffff168173ffffffffffffffffffffffffffffffffffffffff167f8be0079c531659141344cd1fd0a4f28419497f9722a3daafe3b4186f6b6457e060405160405180910390a35050565b600046905090565b600080fd5b600073ffffffffffffffffffffffffffffffffffffffff82169050919050565b6000620002d582620002a8565b9050919050565b620002e781620002c8565b8114620002f357600080fd5b50565b6000815190506200030781620002dc565b92915050565b60008060408385031215620003275762000326620002a3565b5b60006200033785828601620002f6565b92505060206200034a85828601620002f6565b9150509250929050565b600081519050919050565b7f4e487b7100000000000000000000000000000000000000000000000000000000600052604160045260246000fd5b7f4e487b7100000000000000000000000000000000000000000000000000000000600052602260045260246000fd5b60006002820490506001821680620003d657607f821691505b602082108103620003ec57620003eb6200038e565b5b50919050565b60008190508160005260206000209050919050565b60006020601f8301049050919050565b600082821b905092915050565b600060088302620004567fffffffffffffffffffffffffffffffffffffffffffffffffffffffffffffffff8262000417565b62000462868362000417565b95508019841693508086168417925050509392505050565b6000819050919050565b6000819050919050565b6000620004af620004a9620004a3846200047a565b62000484565b6200047a565b9050919050565b6000819050919050565b620004cb836200048e565b620004e3620004da82620004b6565b84845462000424565b825550505050565b600090565b620004fa620004eb565b62000507818484620004c0565b505050565b5b818110156200052f5762000523600082620004f0565b6001810190506200050d565b5050565b601f8211156200057e576200054881620003f2565b620005538462000407565b8101602085101562000563578190505b6200057b620005728562000407565b8301826200050c565b50505b505050565b600082821c905092915050565b6000620005a36000198460080262000583565b1980831691505092915050565b6000620005be838362000590565b9150826002028217905092915050565b620005d98262000354565b67ffffffffffffffff811115620005f557620005f46200035f565b5b620006018254620003bd565b6200060e82828562000533565b600060209050601f83116001811462000646576000841562000631578287015190505b6200063d8582620005b0565b865550620006ad565b601f1984166200065686620003f2565b60005b82811015620006805784890151825560018201915060208501945060208101905062000659565b86831015620006a057848901516200069c601f89168262000590565b8355505b6001600288020188555050505b505050505050565b600081905092915050565b60008190508160005260206000209050919050565b60008154620006e481620003bd565b620006f08186620006b5565b945060018216600081146200070e576001811462000724576200075b565b60ff19831686528115158202860193506200075b565b6200072f85620006c0565b60005b83811015620007535781548189015260018201915060208101905062000732565b838801955050505b50505092915050565b6000620007728284620006d5565b915081905092915050565b6000819050919050565b62000792816200077d565b82525050565b620007a3816200047a565b82525050565b620007b481620002c8565b82525050565b600060a082019050620007d1600083018862000787565b620007e0602083018762000787565b620007ef604083018662000787565b620007fe606083018562000798565b6200080d6080830184620007a9565b9695505050505050565b60805160a05160c05161247562000855600039600061069201526000818161027701526106bb0152600081816102f9015261037001526124756000f3fe6080604052600436106100865760003560e01c806348a15e6f1161005957806348a15e6f14610123578063715018a61461013f5780638da5cb5b14610156578063c26aaba114610181578063f2fde38b146101be57610086565b806306fdde031461008b5780631d143848146100b6578063476343ee146100e157806347b0c3b3146100f8575b600080fd5b34801561009757600080fd5b506100a06101e7565b6040516100ad9190610ecc565b60405180910390f35b3480156100c257600080fd5b506100cb610275565b6040516100d89190610f2f565b60405180910390f35b3480156100ed57600080fd5b506100f6610299565b005b34801561010457600080fd5b5061010d6102f7565b60405161011a9190610fa9565b60405180910390f35b61013d6004803603810190610138919061106b565b61031b565b005b34801561014b57600080fd5b50610154610426565b005b34801561016257600080fd5b5061016b61043a565b6040516101789190610f2f565b60405180910390f35b34801561018d57600080fd5b506101a860048036038101906101a3919061111a565b610463565b6040516101b59190611160565b60405180910390f35b3480156101ca57600080fd5b506101e560048036038101906101e0919061111a565b61047b565b005b600180546101f4906111aa565b80601f0160208091040260200160405190810160405280929190818152602001828054610220906111aa565b801561026d5780601f106102425761010080835404028352916020019161026d565b820191906000526020600020905b81548152906001019060200180831161025057829003601f168201915b505050505081565b7f000000000000000000000000000000000000000000000000000000000000000081565b6102a16104fe565b60004790506102ae61043a565b73ffffffffffffffffffffffffffffffffffffffff166108fc829081150290604051600060405180830381858888f193505050501580156102f3573d6000803e3d6000fd5b5050565b7f000000000000000000000000000000000000000000000000000000000000000081565b6103278383838761057c565b836040013534101561036e576040517f08c379a000000000000000000000000000000000000000000000000000000000815260040161036590611227565b60405180910390fd5b7f000000000000000000000000000000000000000000000000000000000000000073ffffffffffffffffffffffffffffffffffffffff16633addb5b18580600001906103ba9190611256565b6040518363ffffffff1660e01b81526004016103d79291906117f7565b6000604051808303816000875af11580156103f6573d6000803e3d6000fd5b505050506040513d6000823e3d601f19601f8201168201806040525081019061041f9190611978565b5050505050565b61042e6104fe565b61043860006107b0565b565b60008060009054906101000a900473ffffffffffffffffffffffffffffffffffffffff16905090565b60026020528060005260406000206000915090505481565b6104836104fe565b600073ffffffffffffffffffffffffffffffffffffffff168173ffffffffffffffffffffffffffffffffffffffff16036104f2576040517f08c379a00000000000000000000000000000000000000000000000000000000081526004016104e990611a33565b60405180910390fd5b6104fb816107b0565b50565b610506610874565b73ffffffffffffffffffffffffffffffffffffffff1661052461043a565b73ffffffffffffffffffffffffffffffffffffffff161461057a576040517f08c379a000000000000000000000000000000000000000000000000000000000815260040161057190611a9f565b60405180910390fd5b565b600081806000019061058e9190611256565b60008181106105a05761059f611abf565b5b90506020028101906105b29190611aee565b80602001906105c19190611b16565b60008181106105d3576105d2611abf565b5b90506020028101906105e59190611b79565b60000160208101906105f7919061111a565b9050600260008273ffffffffffffffffffffffffffffffffffffffff1673ffffffffffffffffffffffffffffffffffffffff1681526020019081526020016000205482602001351461067e576040517f08c379a000000000000000000000000000000000000000000000000000000000815260040161067590611bed565b60405180910390fd5b60006106898361087c565b905060006106b77f0000000000000000000000000000000000000000000000000000000000000000836109e9565b90507f000000000000000000000000000000000000000000000000000000000000000073ffffffffffffffffffffffffffffffffffffffff166106fc82898989610a1c565b73ffffffffffffffffffffffffffffffffffffffff1614610752576040517f08c379a000000000000000000000000000000000000000000000000000000000815260040161074990611c59565b60405180910390fd5b600260008473ffffffffffffffffffffffffffffffffffffffff1673ffffffffffffffffffffffffffffffffffffffff16815260200190815260200160002060008154809291906107a290611ca8565b919050555050505050505050565b60008060009054906101000a900473ffffffffffffffffffffffffffffffffffffffff169050816000806101000a81548173ffffffffffffffffffffffffffffffffffffffff021916908373ffffffffffffffffffffffffffffffffffffffff1602179055508173ffffffffffffffffffffffffffffffffffffffff168173ffffffffffffffffffffffffffffffffffffffff167f8be0079c531659141344cd1fd0a4f28419497f9722a3daafe3b4186f6b6457e060405160405180910390a35050565b600033905090565b60008082806000019061088f9190611256565b905067ffffffffffffffff8111156108aa576108a9611820565b5b6040519080825280602002602001820160405280156108d85781602001602082028036833780820191505090505b50905060005b8380600001906108ee9190611256565b90508110156109655761093b84806000019061090a9190611256565b8381811061091b5761091a611abf565b5b905060200281019061092d9190611aee565b61093690611fa9565b610a47565b82828151811061094e5761094d611abf565b5b6020026020010181815250508060010190506108de565b507f0fd0045007471900611efb460970c7a3a1ecbbbbd5abcfb7e43e7cc2fe963507816040516020016109989190612074565b60405160208183030381529060405280519060200120846020013585604001356040516020016109cb949392919061209a565b60405160208183030381529060405280519060200120915050919050565b600082826040516020016109fe929190612157565b60405160208183030381529060405280519060200120905092915050565b6000806000610a2d87878787610b79565b91509150610a3a81610c5b565b8192505050949350505050565b60008082602001515167ffffffffffffffff811115610a6957610a68611820565b5b604051908082528060200260200182016040528015610a975781602001602082028036833780820191505090505b50905060005b836020015151811015610afb57610ad184602001518281518110610ac457610ac3611abf565b5b6020026020010151610dc1565b828281518110610ae457610ae3611abf565b5b602002602001018181525050806001019050610a9d565b507fc85ec0e2b4abf2a8f354a852604877056485cd77c2ab270f9709bd198e918735836000015182604051602001610b339190612074565b60405160208183030381529060405280519060200120604051602001610b5b9392919061218e565b60405160208183030381529060405280519060200120915050919050565b6000807f7fffffffffffffffffffffffffffffff5d576e7357a4501ddfe92f46681b20a08360001c1115610bb4576000600391509150610c52565b600060018787878760405160008152602001604052604051610bd994939291906121d4565b6020604051602081039080840390855afa158015610bfb573d6000803e3d6000fd5b505050602060405103519050600073ffffffffffffffffffffffffffffffffffffffff168173ffffffffffffffffffffffffffffffffffffffff1603610c4957600060019250925050610c52565b80600092509250505b94509492505050565b60006004811115610c6f57610c6e612219565b5b816004811115610c8257610c81612219565b5b0315610dbe5760016004811115610c9c57610c9b612219565b5b816004811115610caf57610cae612219565b5b03610cef576040517f08c379a0000000000000000000000000000000000000000000000000000000008152600401610ce690612294565b60405180910390fd5b60026004811115610d0357610d02612219565b5b816004811115610d1657610d15612219565b5b03610d56576040517f08c379a0000000000000000000000000000000000000000000000000000000008152600401610d4d90612300565b60405180910390fd5b60036004811115610d6a57610d69612219565b5b816004811115610d7d57610d7c612219565b5b03610dbd576040517f08c379a0000000000000000000000000000000000000000000000000000000008152600401610db490612392565b60405180910390fd5b5b50565b60007fd183f890345d44ab79555f4fbe54bbd5e1d554420009efb2b842982fad9779d582600001518360200151846040015185606001518660800151805190602001208760a00151604051602001610e1f97969594939291906123d0565b604051602081830303815290604052805190602001209050919050565b600081519050919050565b600082825260208201905092915050565b60005b83811015610e76578082015181840152602081019050610e5b565b60008484015250505050565b6000601f19601f8301169050919050565b6000610e9e82610e3c565b610ea88185610e47565b9350610eb8818560208601610e58565b610ec181610e82565b840191505092915050565b60006020820190508181036000830152610ee68184610e93565b905092915050565b600073ffffffffffffffffffffffffffffffffffffffff82169050919050565b6000610f1982610eee565b9050919050565b610f2981610f0e565b82525050565b6000602082019050610f446000830184610f20565b92915050565b6000819050919050565b6000610f6f610f6a610f6584610eee565b610f4a565b610eee565b9050919050565b6000610f8182610f54565b9050919050565b6000610f9382610f76565b9050919050565b610fa381610f88565b82525050565b6000602082019050610fbe6000830184610f9a565b92915050565b6000604051905090565b600080fd5b600080fd5b600080fd5b600060608284031215610ff357610ff2610fd8565b5b81905092915050565b600060ff82169050919050565b61101281610ffc565b811461101d57600080fd5b50565b60008135905061102f81611009565b92915050565b6000819050919050565b61104881611035565b811461105357600080fd5b50565b6000813590506110658161103f565b92915050565b6000806000806080858703121561108557611084610fce565b5b600085013567ffffffffffffffff8111156110a3576110a2610fd3565b5b6110af87828801610fdd565b94505060206110c087828801611020565b93505060406110d187828801611056565b92505060606110e287828801611056565b91505092959194509250565b6110f781610f0e565b811461110257600080fd5b50565b600081359050611114816110ee565b92915050565b6000602082840312156111305761112f610fce565b5b600061113e84828501611105565b91505092915050565b6000819050919050565b61115a81611147565b82525050565b60006020820190506111756000830184611151565b92915050565b7f4e487b7100000000000000000000000000000000000000000000000000000000600052602260045260246000fd5b600060028204905060018216806111c257607f821691505b6020821081036111d5576111d461117b565b5b50919050565b7f496e73756666696369656e742066656500000000000000000000000000000000600082015250565b6000611211601083610e47565b915061121c826111db565b602082019050919050565b6000602082019050818103600083015261124081611204565b9050919050565b600080fd5b600080fd5b600080fd5b6000808335600160200384360303811261127357611272611247565b5b80840192508235915067ffffffffffffffff8211156112955761129461124c565b5b6020830192506020820236038313156112b1576112b0611251565b5b509250929050565b600082825260208201905092915050565b6000819050919050565b60006112e36020840184611056565b905092915050565b6112f481611035565b82525050565b600080fd5b600080fd5b600080fd5b6000808335600160200384360303811261132657611325611304565b5b83810192508235915060208301925067ffffffffffffffff82111561134e5761134d6112fa565b5b602082023603831315611364576113636112ff565b5b509250929050565b600082825260208201905092915050565b6000819050919050565b60006113966020840184611105565b905092915050565b6113a781610f0e565b82525050565b600067ffffffffffffffff82169050919050565b6113ca816113ad565b81146113d557600080fd5b50565b6000813590506113e7816113c1565b92915050565b60006113fc60208401846113d8565b905092915050565b61140d816113ad565b82525050565b60008115159050919050565b61142881611413565b811461143357600080fd5b50565b6000813590506114458161141f565b92915050565b600061145a6020840184611436565b905092915050565b61146b81611413565b82525050565b6000808335600160200384360303811261148e5761148d611304565b5b83810192508235915060208301925067ffffffffffffffff8211156114b6576114b56112fa565b5b6001820236038313156114cc576114cb6112ff565b5b509250929050565b600082825260208201905092915050565b82818337600083830152505050565b600061150083856114d4565b935061150d8385846114e5565b61151683610e82565b840190509392505050565b61152a81611147565b811461153557600080fd5b50565b60008135905061154781611521565b92915050565b600061155c6020840184611538565b905092915050565b61156d81611147565b82525050565b600060c083016115866000840184611387565b611593600086018261139e565b506115a160208401846113ed565b6115ae6020860182611404565b506115bc604084018461144b565b6115c96040860182611462565b506115d760608401846112d4565b6115e460608601826112eb565b506115f26080840184611471565b85830360808701526116058382846114f4565b9250505061161660a084018461154d565b61162360a0860182611564565b508091505092915050565b600061163a8383611573565b905092915050565b60008235600160c00383360303811261165e5761165d611304565b5b82810191505092915050565b6000602082019050919050565b6000611683838561136c565b9350836020840285016116958461137d565b8060005b878110156116d95784840389526116b08284611642565b6116ba858261162e565b94506116c58361166a565b925060208a01995050600181019050611699565b50829750879450505050509392505050565b6000604083016116fe60008401846112d4565b61170b60008601826112eb565b506117196020840184611309565b858303602087015261172c838284611677565b925050508091505092915050565b600061174683836116eb565b905092915050565b60008235600160400383360303811261176a57611769611304565b5b82810191505092915050565b6000602082019050919050565b600061178f83856112b9565b9350836020840285016117a1846112ca565b8060005b878110156117e55784840389526117bc828461174e565b6117c6858261173a565b94506117d183611776565b925060208a019950506001810190506117a5565b50829750879450505050509392505050565b60006020820190508181036000830152611812818486611783565b90509392505050565b600080fd5b7f4e487b7100000000000000000000000000000000000000000000000000000000600052604160045260246000fd5b61185882610e82565b810181811067ffffffffffffffff8211171561187757611876611820565b5b80604052505050565b600061188a610fc4565b9050611896828261184f565b919050565b600067ffffffffffffffff8211156118b6576118b5611820565b5b602082029050602081019050919050565b600080fd5b6000815190506118db8161103f565b92915050565b60006118f46118ef8461189b565b611880565b90508083825260208201905060208402830185811115611917576119166118c7565b5b835b81811015611940578061192c88826118cc565b845260208401935050602081019050611919565b5050509392505050565b600082601f83011261195f5761195e61181b565b5b815161196f8482602086016118e1565b91505092915050565b60006020828403121561198e5761198d610fce565b5b600082015167ffffffffffffffff8111156119ac576119ab610fd3565b5b6119b88482850161194a565b91505092915050565b7f4f776e61626c653a206e6577206f776e657220697320746865207a65726f206160008201527f6464726573730000000000000000000000000000000000000000000000000000602082015250565b6000611a1d602683610e47565b9150611a28826119c1565b604082019050919050565b60006020820190508181036000830152611a4c81611a10565b9050919050565b7f4f776e61626c653a2063616c6c6572206973206e6f7420746865206f776e6572600082015250565b6000611a89602083610e47565b9150611a9482611a53565b602082019050919050565b60006020820190508181036000830152611ab881611a7c565b9050919050565b7f4e487b7100000000000000000000000000000000000000000000000000000000600052603260045260246000fd5b600082356001604003833603038112611b0a57611b09611247565b5b80830191505092915050565b60008083356001602003843603038112611b3357611b32611247565b5b80840192508235915067ffffffffffffffff821115611b5557611b5461124c565b5b602083019250602082023603831315611b7157611b70611251565b5b509250929050565b60008235600160c003833603038112611b9557611b94611247565b5b80830191505092915050565b7f496e76616c6964206e6f6e636500000000000000000000000000000000000000600082015250565b6000611bd7600d83610e47565b9150611be282611ba1565b602082019050919050565b60006020820190508181036000830152611c0681611bca565b9050919050565b7f496e76616c6964207369676e6174757265000000000000000000000000000000600082015250565b6000611c43601183610e47565b9150611c4e82611c0d565b602082019050919050565b60006020820190508181036000830152611c7281611c36565b9050919050565b7f4e487b7100000000000000000000000000000000000000000000000000000000600052601160045260246000fd5b6000611cb382611147565b91507fffffffffffffffffffffffffffffffffffffffffffffffffffffffffffffffff8203611ce557611ce4611c79565b5b600182019050919050565b600080fd5b600080fd5b600067ffffffffffffffff821115611d1557611d14611820565b5b602082029050602081019050919050565b600080fd5b600067ffffffffffffffff821115611d4657611d45611820565b5b611d4f82610e82565b9050602081019050919050565b6000611d6f611d6a84611d2b565b611880565b905082815260208101848484011115611d8b57611d8a611d26565b5b611d968482856114e5565b509392505050565b600082601f830112611db357611db261181b565b5b8135611dc3848260208601611d5c565b91505092915050565b600060c08284031215611de257611de1611cf0565b5b611dec60c0611880565b90506000611dfc84828501611105565b6000830152506020611e10848285016113d8565b6020830152506040611e2484828501611436565b6040830152506060611e3884828501611056565b606083015250608082013567ffffffffffffffff811115611e5c57611e5b611cf5565b5b611e6884828501611d9e565b60808301525060a0611e7c84828501611538565b60a08301525092915050565b6000611e9b611e9684611cfa565b611880565b90508083825260208201905060208402830185811115611ebe57611ebd6118c7565b5b835b81811015611f0557803567ffffffffffffffff811115611ee357611ee261181b565b5b808601611ef08982611dcc565b85526020850194505050602081019050611ec0565b5050509392505050565b600082601f830112611f2457611f2361181b565b5b8135611f34848260208601611e88565b91505092915050565b600060408284031215611f5357611f52611cf0565b5b611f5d6040611880565b90506000611f6d84828501611056565b600083015250602082013567ffffffffffffffff811115611f9157611f90611cf5565b5b611f9d84828501611f0f565b60208301525092915050565b6000611fb53683611f3d565b9050919050565b600081519050919050565b600081905092915050565b6000819050602082019050919050565b611feb81611035565b82525050565b6000611ffd8383611fe2565b60208301905092915050565b6000602082019050919050565b600061202182611fbc565b61202b8185611fc7565b935061203683611fd2565b8060005b8381101561206757815161204e8882611ff1565b975061205983612009565b92505060018101905061203a565b5085935050505092915050565b60006120808284612016565b915081905092915050565b61209481611035565b82525050565b60006080820190506120af600083018761208b565b6120bc602083018661208b565b6120c96040830185611151565b6120d66060830184611151565b95945050505050565b600081905092915050565b7f1901000000000000000000000000000000000000000000000000000000000000600082015250565b60006121206002836120df565b915061212b826120ea565b600282019050919050565b6000819050919050565b61215161214c82611035565b612136565b82525050565b600061216282612113565b915061216e8285612140565b60208201915061217e8284612140565b6020820191508190509392505050565b60006060820190506121a3600083018661208b565b6121b0602083018561208b565b6121bd604083018461208b565b949350505050565b6121ce81610ffc565b82525050565b60006080820190506121e9600083018761208b565b6121f660208301866121c5565b612203604083018561208b565b612210606083018461208b565b95945050505050565b7f4e487b7100000000000000000000000000000000000000000000000000000000600052602160045260246000fd5b7f45434453413a20696e76616c6964207369676e61747572650000000000000000600082015250565b600061227e601883610e47565b915061228982612248565b602082019050919050565b600060208201905081810360008301526122ad81612271565b9050919050565b7f45434453413a20696e76616c6964207369676e6174757265206c656e67746800600082015250565b60006122ea601f83610e47565b91506122f5826122b4565b602082019050919050565b60006020820190508181036000830152612319816122dd565b9050919050565b7f45434453413a20696e76616c6964207369676e6174757265202773272076616c60008201527f7565000000000000000000000000000000000000000000000000000000000000602082015250565b600061237c602283610e47565b915061238782612320565b604082019050919050565b600060208201905081810360008301526123ab8161236f565b9050919050565b6123bb816113ad565b82525050565b6123ca81611413565b82525050565b600060e0820190506123e5600083018a61208b565b6123f26020830189610f20565b6123ff60408301886123b2565b61240c60608301876123c1565b612419608083018661208b565b61242660a083018561208b565b61243360c0830184611151565b9897505050505050505056fea2646970667358221220cc06bb3bdae4189198b3e51cee6591fbef1c5e7d7f8fdc2f9cfd573313ad016664736f6c63430008120033",
  "linkReferences": {},
  "deployedLinkReferences": {}
}