{
  "_format": "hh-sol-artifact-1",
  "contractName": "GitcoinVerifier",
  "sourceName": "contracts/GitcoinVerifier.sol",
  "abi": [
    {
      "inputs": [
        {
          "internalType": "address",
          "name": "_issuer",
          "type": "address"
        },
        {
          "internalType": "address",
          "name": "_attester",
          "type": "address"
        }
      ],
      "stateMutability": "nonpayable",
      "type": "constructor"
    },
    {
      "anonymous": false,
      "inputs": [
        {
          "indexed": true,
          "internalType": "address",
          "name": "previousOwner",
          "type": "address"
        },
        {
          "indexed": true,
          "internalType": "address",
          "name": "newOwner",
          "type": "address"
        }
      ],
      "name": "OwnershipTransferred",
      "type": "event"
    },
    {
      "inputs": [],
      "name": "attester",
      "outputs": [
        {
          "internalType": "contract GitcoinAttester",
          "name": "",
          "type": "address"
        }
      ],
      "stateMutability": "view",
      "type": "function"
    },
    {
      "inputs": [],
      "name": "issuer",
      "outputs": [
        {
          "internalType": "address",
          "name": "",
          "type": "address"
        }
      ],
      "stateMutability": "view",
      "type": "function"
    },
    {
      "inputs": [],
      "name": "name",
      "outputs": [
        {
          "internalType": "string",
          "name": "",
          "type": "string"
        }
      ],
      "stateMutability": "view",
      "type": "function"
    },
    {
      "inputs": [],
      "name": "owner",
      "outputs": [
        {
          "internalType": "address",
          "name": "",
          "type": "address"
        }
      ],
      "stateMutability": "view",
      "type": "function"
    },
    {
      "inputs": [
        {
          "internalType": "address",
          "name": "",
          "type": "address"
        }
      ],
      "name": "recipientNonces",
      "outputs": [
        {
          "internalType": "uint256",
          "name": "",
          "type": "uint256"
        }
      ],
      "stateMutability": "view",
      "type": "function"
    },
    {
      "inputs": [],
      "name": "renounceOwnership",
      "outputs": [],
      "stateMutability": "nonpayable",
      "type": "function"
    },
    {
      "inputs": [
        {
          "internalType": "address",
          "name": "newOwner",
          "type": "address"
        }
      ],
      "name": "transferOwnership",
      "outputs": [],
      "stateMutability": "nonpayable",
      "type": "function"
    },
    {
      "inputs": [
        {
          "components": [
            {
              "components": [
                {
                  "internalType": "bytes32",
                  "name": "schema",
                  "type": "bytes32"
                },
                {
                  "components": [
                    {
                      "internalType": "address",
                      "name": "recipient",
                      "type": "address"
                    },
                    {
                      "internalType": "uint64",
                      "name": "expirationTime",
                      "type": "uint64"
                    },
                    {
                      "internalType": "bool",
                      "name": "revocable",
                      "type": "bool"
                    },
                    {
                      "internalType": "bytes32",
                      "name": "refUID",
                      "type": "bytes32"
                    },
                    {
                      "internalType": "bytes",
                      "name": "data",
                      "type": "bytes"
                    },
                    {
                      "internalType": "uint256",
                      "name": "value",
                      "type": "uint256"
                    }
                  ],
                  "internalType": "struct AttestationRequestData[]",
                  "name": "data",
                  "type": "tuple[]"
                }
              ],
              "internalType": "struct MultiAttestationRequest[]",
              "name": "multiAttestationRequest",
              "type": "tuple[]"
            },
            {
              "internalType": "address",
              "name": "recipient",
              "type": "address"
            },
            {
              "internalType": "uint256",
              "name": "nonce",
              "type": "uint256"
            },
            {
              "internalType": "uint256",
              "name": "fee",
              "type": "uint256"
            }
          ],
          "internalType": "struct GitcoinVerifier.PassportAttestationRequest",
          "name": "attestationRequest",
          "type": "tuple"
        },
        {
          "internalType": "uint8",
          "name": "v",
          "type": "uint8"
        },
        {
          "internalType": "bytes32",
          "name": "r",
          "type": "bytes32"
        },
        {
          "internalType": "bytes32",
          "name": "s",
          "type": "bytes32"
        }
      ],
      "name": "verifyAndAttest",
      "outputs": [],
      "stateMutability": "payable",
      "type": "function"
    },
    {
      "inputs": [],
      "name": "withdrawFees",
      "outputs": [],
      "stateMutability": "nonpayable",
      "type": "function"
    }
  ],
  "bytecode": "0x60e06040523480156200001157600080fd5b5060405162002c0738038062002c0783398181016040528101906200003791906200030d565b620000576200004b620001cf60201b60201c565b620001d760201b60201c565b8073ffffffffffffffffffffffffffffffffffffffff1660808173ffffffffffffffffffffffffffffffffffffffff16815250508173ffffffffffffffffffffffffffffffffffffffff1660a08173ffffffffffffffffffffffffffffffffffffffff16815250506040518060400160405280600f81526020017f476974636f696e5665726966696572000000000000000000000000000000000081525060019081620001059190620005ce565b506000620001186200029b60201b60201c565b90507f8b73c3c69bb8fe3d512ecc4cf759cc79239f7b179b0ffacaa9a75d522b39400f60016040516200014c919062000764565b60405180910390206040518060400160405280600181526020017f3100000000000000000000000000000000000000000000000000000000000000815250805190602001208330604051602001620001a9959493929190620007ba565b6040516020818303038152906040528051906020012060c0818152505050505062000817565b600033905090565b60008060009054906101000a900473ffffffffffffffffffffffffffffffffffffffff169050816000806101000a81548173ffffffffffffffffffffffffffffffffffffffff021916908373ffffffffffffffffffffffffffffffffffffffff1602179055508173ffffffffffffffffffffffffffffffffffffffff168173ffffffffffffffffffffffffffffffffffffffff167f8be0079c531659141344cd1fd0a4f28419497f9722a3daafe3b4186f6b6457e060405160405180910390a35050565b600046905090565b600080fd5b600073ffffffffffffffffffffffffffffffffffffffff82169050919050565b6000620002d582620002a8565b9050919050565b620002e781620002c8565b8114620002f357600080fd5b50565b6000815190506200030781620002dc565b92915050565b60008060408385031215620003275762000326620002a3565b5b60006200033785828601620002f6565b92505060206200034a85828601620002f6565b9150509250929050565b600081519050919050565b7f4e487b7100000000000000000000000000000000000000000000000000000000600052604160045260246000fd5b7f4e487b7100000000000000000000000000000000000000000000000000000000600052602260045260246000fd5b60006002820490506001821680620003d657607f821691505b602082108103620003ec57620003eb6200038e565b5b50919050565b60008190508160005260206000209050919050565b60006020601f8301049050919050565b600082821b905092915050565b600060088302620004567fffffffffffffffffffffffffffffffffffffffffffffffffffffffffffffffff8262000417565b62000462868362000417565b95508019841693508086168417925050509392505050565b6000819050919050565b6000819050919050565b6000620004af620004a9620004a3846200047a565b62000484565b6200047a565b9050919050565b6000819050919050565b620004cb836200048e565b620004e3620004da82620004b6565b84845462000424565b825550505050565b600090565b620004fa620004eb565b62000507818484620004c0565b505050565b5b818110156200052f5762000523600082620004f0565b6001810190506200050d565b5050565b601f8211156200057e576200054881620003f2565b620005538462000407565b8101602085101562000563578190505b6200057b620005728562000407565b8301826200050c565b50505b505050565b600082821c905092915050565b6000620005a36000198460080262000583565b1980831691505092915050565b6000620005be838362000590565b9150826002028217905092915050565b620005d98262000354565b67ffffffffffffffff811115620005f557620005f46200035f565b5b620006018254620003bd565b6200060e82828562000533565b600060209050601f83116001811462000646576000841562000631578287015190505b6200063d8582620005b0565b865550620006ad565b601f1984166200065686620003f2565b60005b82811015620006805784890151825560018201915060208501945060208101905062000659565b86831015620006a057848901516200069c601f89168262000590565b8355505b6001600288020188555050505b505050505050565b600081905092915050565b60008190508160005260206000209050919050565b60008154620006e481620003bd565b620006f08186620006b5565b945060018216600081146200070e576001811462000724576200075b565b60ff19831686528115158202860193506200075b565b6200072f85620006c0565b60005b83811015620007535781548189015260018201915060208101905062000732565b838801955050505b50505092915050565b6000620007728284620006d5565b915081905092915050565b6000819050919050565b62000792816200077d565b82525050565b620007a3816200047a565b82525050565b620007b481620002c8565b82525050565b600060a082019050620007d1600083018862000787565b620007e0602083018762000787565b620007ef604083018662000787565b620007fe606083018562000798565b6200080d6080830184620007a9565b9695505050505050565b60805160a05160c0516123b26200085560003960006105a901526000818161027701526105d20152600081816102ee015261040401526123b26000f3fe6080604052600436106100865760003560e01c806347b0c3b31161005957806347b0c3b314610114578063715018a61461013f5780638da5cb5b14610156578063c26aaba114610181578063f2fde38b146101be57610086565b806306fdde031461008b5780631d143848146100b657806330c2c7d6146100e1578063476343ee146100fd575b600080fd5b34801561009757600080fd5b506100a06101e7565b6040516100ad9190610e86565b60405180910390f35b3480156100c257600080fd5b506100cb610275565b6040516100d89190610ee9565b60405180910390f35b6100fb60048036038101906100f69190610fab565b610299565b005b34801561010957600080fd5b506101126103a4565b005b34801561012057600080fd5b50610129610402565b604051610136919061108d565b60405180910390f35b34801561014b57600080fd5b50610154610426565b005b34801561016257600080fd5b5061016b61043a565b6040516101789190610ee9565b60405180910390f35b34801561018d57600080fd5b506101a860048036038101906101a391906110d4565b610463565b6040516101b5919061111a565b60405180910390f35b3480156101ca57600080fd5b506101e560048036038101906101e091906110d4565b61047b565b005b600180546101f490611164565b80601f016020809104026020016040519081016040528092919081815260200182805461022090611164565b801561026d5780601f106102425761010080835404028352916020019161026d565b820191906000526020600020905b81548152906001019060200180831161025057829003601f168201915b505050505081565b7f000000000000000000000000000000000000000000000000000000000000000081565b6102a5838383876104fe565b83606001353410156102ec576040517f08c379a00000000000000000000000000000000000000000000000000000000081526004016102e3906111e1565b60405180910390fd5b7f000000000000000000000000000000000000000000000000000000000000000073ffffffffffffffffffffffffffffffffffffffff16633addb5b18580600001906103389190611210565b6040518363ffffffff1660e01b81526004016103559291906117b1565b6000604051808303816000875af1158015610374573d6000803e3d6000fd5b505050506040513d6000823e3d601f19601f8201168201806040525081019061039d9190611932565b5050505050565b6103ac6106d8565b60004790506103b961043a565b73ffffffffffffffffffffffffffffffffffffffff166108fc829081150290604051600060405180830381858888f193505050501580156103fe573d6000803e3d6000fd5b5050565b7f000000000000000000000000000000000000000000000000000000000000000081565b61042e6106d8565b6104386000610756565b565b60008060009054906101000a900473ffffffffffffffffffffffffffffffffffffffff16905090565b60026020528060005260406000206000915090505481565b6104836106d8565b600073ffffffffffffffffffffffffffffffffffffffff168173ffffffffffffffffffffffffffffffffffffffff16036104f2576040517f08c379a00000000000000000000000000000000000000000000000000000000081526004016104e9906119ed565b60405180910390fd5b6104fb81610756565b50565b6002600082602001602081019061051591906110d4565b73ffffffffffffffffffffffffffffffffffffffff1673ffffffffffffffffffffffffffffffffffffffff16815260200190815260200160002054816040013514610595576040517f08c379a000000000000000000000000000000000000000000000000000000000815260040161058c90611a59565b60405180910390fd5b60006105a08261081a565b905060006105ce7f00000000000000000000000000000000000000000000000000000000000000008361099b565b90507f000000000000000000000000000000000000000000000000000000000000000073ffffffffffffffffffffffffffffffffffffffff16610613828888886109ce565b73ffffffffffffffffffffffffffffffffffffffff1614610669576040517f08c379a000000000000000000000000000000000000000000000000000000000815260040161066090611ac5565b60405180910390fd5b6002600084602001602081019061068091906110d4565b73ffffffffffffffffffffffffffffffffffffffff1673ffffffffffffffffffffffffffffffffffffffff16815260200190815260200160002060008154809291906106cb90611b14565b9190505550505050505050565b6106e06109f9565b73ffffffffffffffffffffffffffffffffffffffff166106fe61043a565b73ffffffffffffffffffffffffffffffffffffffff1614610754576040517f08c379a000000000000000000000000000000000000000000000000000000000815260040161074b90611ba8565b60405180910390fd5b565b60008060009054906101000a900473ffffffffffffffffffffffffffffffffffffffff169050816000806101000a81548173ffffffffffffffffffffffffffffffffffffffff021916908373ffffffffffffffffffffffffffffffffffffffff1602179055508173ffffffffffffffffffffffffffffffffffffffff168173ffffffffffffffffffffffffffffffffffffffff167f8be0079c531659141344cd1fd0a4f28419497f9722a3daafe3b4186f6b6457e060405160405180910390a35050565b60008082806000019061082d9190611210565b905067ffffffffffffffff811115610848576108476117da565b5b6040519080825280602002602001820160405280156108765781602001602082028036833780820191505090505b50905060005b83806000019061088c9190611210565b9050811015610903576108d98480600001906108a89190611210565b838181106108b9576108b8611bc8565b5b90506020028101906108cb9190611bf7565b6108d490611ed8565b610a01565b8282815181106108ec576108eb611bc8565b5b60200260200101818152505080600101905061087c565b507f797f6787eb22819e3be0d19246ef2b6bfd49687410b3e116f3643faa5fe4d5d9816040516020016109369190611fa3565b6040516020818303038152906040528051906020012084602001602081019061095f91906110d4565b8560400135866060013560405160200161097d959493929190611fc9565b60405160208183030381529060405280519060200120915050919050565b600082826040516020016109b0929190612094565b60405160208183030381529060405280519060200120905092915050565b60008060006109df87878787610b33565b915091506109ec81610c15565b8192505050949350505050565b600033905090565b60008082602001515167ffffffffffffffff811115610a2357610a226117da565b5b604051908082528060200260200182016040528015610a515781602001602082028036833780820191505090505b50905060005b836020015151811015610ab557610a8b84602001518281518110610a7e57610a7d611bc8565b5b6020026020010151610d7b565b828281518110610a9e57610a9d611bc8565b5b602002602001018181525050806001019050610a57565b507fc85ec0e2b4abf2a8f354a852604877056485cd77c2ab270f9709bd198e918735836000015182604051602001610aed9190611fa3565b60405160208183030381529060405280519060200120604051602001610b15939291906120cb565b60405160208183030381529060405280519060200120915050919050565b6000807f7fffffffffffffffffffffffffffffff5d576e7357a4501ddfe92f46681b20a08360001c1115610b6e576000600391509150610c0c565b600060018787878760405160008152602001604052604051610b939493929190612111565b6020604051602081039080840390855afa158015610bb5573d6000803e3d6000fd5b505050602060405103519050600073ffffffffffffffffffffffffffffffffffffffff168173ffffffffffffffffffffffffffffffffffffffff1603610c0357600060019250925050610c0c565b80600092509250505b94509492505050565b60006004811115610c2957610c28612156565b5b816004811115610c3c57610c3b612156565b5b0315610d785760016004811115610c5657610c55612156565b5b816004811115610c6957610c68612156565b5b03610ca9576040517f08c379a0000000000000000000000000000000000000000000000000000000008152600401610ca0906121d1565b60405180910390fd5b60026004811115610cbd57610cbc612156565b5b816004811115610cd057610ccf612156565b5b03610d10576040517f08c379a0000000000000000000000000000000000000000000000000000000008152600401610d079061223d565b60405180910390fd5b60036004811115610d2457610d23612156565b5b816004811115610d3757610d36612156565b5b03610d77576040517f08c379a0000000000000000000000000000000000000000000000000000000008152600401610d6e906122cf565b60405180910390fd5b5b50565b60007fd183f890345d44ab79555f4fbe54bbd5e1d554420009efb2b842982fad9779d582600001518360200151846040015185606001518660800151805190602001208760a00151604051602001610dd9979695949392919061230d565b604051602081830303815290604052805190602001209050919050565b600081519050919050565b600082825260208201905092915050565b60005b83811015610e30578082015181840152602081019050610e15565b60008484015250505050565b6000601f19601f8301169050919050565b6000610e5882610df6565b610e628185610e01565b9350610e72818560208601610e12565b610e7b81610e3c565b840191505092915050565b60006020820190508181036000830152610ea08184610e4d565b905092915050565b600073ffffffffffffffffffffffffffffffffffffffff82169050919050565b6000610ed382610ea8565b9050919050565b610ee381610ec8565b82525050565b6000602082019050610efe6000830184610eda565b92915050565b6000604051905090565b600080fd5b600080fd5b600080fd5b600060808284031215610f3357610f32610f18565b5b81905092915050565b600060ff82169050919050565b610f5281610f3c565b8114610f5d57600080fd5b50565b600081359050610f6f81610f49565b92915050565b6000819050919050565b610f8881610f75565b8114610f9357600080fd5b50565b600081359050610fa581610f7f565b92915050565b60008060008060808587031215610fc557610fc4610f0e565b5b600085013567ffffffffffffffff811115610fe357610fe2610f13565b5b610fef87828801610f1d565b945050602061100087828801610f60565b935050604061101187828801610f96565b925050606061102287828801610f96565b91505092959194509250565b6000819050919050565b600061105361104e61104984610ea8565b61102e565b610ea8565b9050919050565b600061106582611038565b9050919050565b60006110778261105a565b9050919050565b6110878161106c565b82525050565b60006020820190506110a2600083018461107e565b92915050565b6110b181610ec8565b81146110bc57600080fd5b50565b6000813590506110ce816110a8565b92915050565b6000602082840312156110ea576110e9610f0e565b5b60006110f8848285016110bf565b91505092915050565b6000819050919050565b61111481611101565b82525050565b600060208201905061112f600083018461110b565b92915050565b7f4e487b7100000000000000000000000000000000000000000000000000000000600052602260045260246000fd5b6000600282049050600182168061117c57607f821691505b60208210810361118f5761118e611135565b5b50919050565b7f496e73756666696369656e742066656500000000000000000000000000000000600082015250565b60006111cb601083610e01565b91506111d682611195565b602082019050919050565b600060208201905081810360008301526111fa816111be565b9050919050565b600080fd5b600080fd5b600080fd5b6000808335600160200384360303811261122d5761122c611201565b5b80840192508235915067ffffffffffffffff82111561124f5761124e611206565b5b60208301925060208202360383131561126b5761126a61120b565b5b509250929050565b600082825260208201905092915050565b6000819050919050565b600061129d6020840184610f96565b905092915050565b6112ae81610f75565b82525050565b600080fd5b600080fd5b600080fd5b600080833560016020038436030381126112e0576112df6112be565b5b83810192508235915060208301925067ffffffffffffffff821115611308576113076112b4565b5b60208202360383131561131e5761131d6112b9565b5b509250929050565b600082825260208201905092915050565b6000819050919050565b600061135060208401846110bf565b905092915050565b61136181610ec8565b82525050565b600067ffffffffffffffff82169050919050565b61138481611367565b811461138f57600080fd5b50565b6000813590506113a18161137b565b92915050565b60006113b66020840184611392565b905092915050565b6113c781611367565b82525050565b60008115159050919050565b6113e2816113cd565b81146113ed57600080fd5b50565b6000813590506113ff816113d9565b92915050565b600061141460208401846113f0565b905092915050565b611425816113cd565b82525050565b60008083356001602003843603038112611448576114476112be565b5b83810192508235915060208301925067ffffffffffffffff8211156114705761146f6112b4565b5b600182023603831315611486576114856112b9565b5b509250929050565b600082825260208201905092915050565b82818337600083830152505050565b60006114ba838561148e565b93506114c783858461149f565b6114d083610e3c565b840190509392505050565b6114e481611101565b81146114ef57600080fd5b50565b600081359050611501816114db565b92915050565b600061151660208401846114f2565b905092915050565b61152781611101565b82525050565b600060c083016115406000840184611341565b61154d6000860182611358565b5061155b60208401846113a7565b61156860208601826113be565b506115766040840184611405565b611583604086018261141c565b50611591606084018461128e565b61159e60608601826112a5565b506115ac608084018461142b565b85830360808701526115bf8382846114ae565b925050506115d060a0840184611507565b6115dd60a086018261151e565b508091505092915050565b60006115f4838361152d565b905092915050565b60008235600160c003833603038112611618576116176112be565b5b82810191505092915050565b6000602082019050919050565b600061163d8385611326565b93508360208402850161164f84611337565b8060005b8781101561169357848403895261166a82846115fc565b61167485826115e8565b945061167f83611624565b925060208a01995050600181019050611653565b50829750879450505050509392505050565b6000604083016116b8600084018461128e565b6116c560008601826112a5565b506116d360208401846112c3565b85830360208701526116e6838284611631565b925050508091505092915050565b600061170083836116a5565b905092915050565b600082356001604003833603038112611724576117236112be565b5b82810191505092915050565b6000602082019050919050565b60006117498385611273565b93508360208402850161175b84611284565b8060005b8781101561179f5784840389526117768284611708565b61178085826116f4565b945061178b83611730565b925060208a0199505060018101905061175f565b50829750879450505050509392505050565b600060208201905081810360008301526117cc81848661173d565b90509392505050565b600080fd5b7f4e487b7100000000000000000000000000000000000000000000000000000000600052604160045260246000fd5b61181282610e3c565b810181811067ffffffffffffffff82111715611831576118306117da565b5b80604052505050565b6000611844610f04565b90506118508282611809565b919050565b600067ffffffffffffffff8211156118705761186f6117da565b5b602082029050602081019050919050565b600080fd5b60008151905061189581610f7f565b92915050565b60006118ae6118a984611855565b61183a565b905080838252602082019050602084028301858111156118d1576118d0611881565b5b835b818110156118fa57806118e68882611886565b8452602084019350506020810190506118d3565b5050509392505050565b600082601f830112611919576119186117d5565b5b815161192984826020860161189b565b91505092915050565b60006020828403121561194857611947610f0e565b5b600082015167ffffffffffffffff81111561196657611965610f13565b5b61197284828501611904565b91505092915050565b7f4f776e61626c653a206e6577206f776e657220697320746865207a65726f206160008201527f6464726573730000000000000000000000000000000000000000000000000000602082015250565b60006119d7602683610e01565b91506119e28261197b565b604082019050919050565b60006020820190508181036000830152611a06816119ca565b9050919050565b7f496e76616c6964206e6f6e636500000000000000000000000000000000000000600082015250565b6000611a43600d83610e01565b9150611a4e82611a0d565b602082019050919050565b60006020820190508181036000830152611a7281611a36565b9050919050565b7f496e76616c6964207369676e6174757265000000000000000000000000000000600082015250565b6000611aaf601183610e01565b9150611aba82611a79565b602082019050919050565b60006020820190508181036000830152611ade81611aa2565b9050919050565b7f4e487b7100000000000000000000000000000000000000000000000000000000600052601160045260246000fd5b6000611b1f82611101565b91507fffffffffffffffffffffffffffffffffffffffffffffffffffffffffffffffff8203611b5157611b50611ae5565b5b600182019050919050565b7f4f776e61626c653a2063616c6c6572206973206e6f7420746865206f776e6572600082015250565b6000611b92602083610e01565b9150611b9d82611b5c565b602082019050919050565b60006020820190508181036000830152611bc181611b85565b9050919050565b7f4e487b7100000000000000000000000000000000000000000000000000000000600052603260045260246000fd5b600082356001604003833603038112611c1357611c12611201565b5b80830191505092915050565b600080fd5b600080fd5b600067ffffffffffffffff821115611c4457611c436117da565b5b602082029050602081019050919050565b600080fd5b600067ffffffffffffffff821115611c7557611c746117da565b5b611c7e82610e3c565b9050602081019050919050565b6000611c9e611c9984611c5a565b61183a565b905082815260208101848484011115611cba57611cb9611c55565b5b611cc584828561149f565b509392505050565b600082601f830112611ce257611ce16117d5565b5b8135611cf2848260208601611c8b565b91505092915050565b600060c08284031215611d1157611d10611c1f565b5b611d1b60c061183a565b90506000611d2b848285016110bf565b6000830152506020611d3f84828501611392565b6020830152506040611d53848285016113f0565b6040830152506060611d6784828501610f96565b606083015250608082013567ffffffffffffffff811115611d8b57611d8a611c24565b5b611d9784828501611ccd565b60808301525060a0611dab848285016114f2565b60a08301525092915050565b6000611dca611dc584611c29565b61183a565b90508083825260208201905060208402830185811115611ded57611dec611881565b5b835b81811015611e3457803567ffffffffffffffff811115611e1257611e116117d5565b5b808601611e1f8982611cfb565b85526020850194505050602081019050611def565b5050509392505050565b600082601f830112611e5357611e526117d5565b5b8135611e63848260208601611db7565b91505092915050565b600060408284031215611e8257611e81611c1f565b5b611e8c604061183a565b90506000611e9c84828501610f96565b600083015250602082013567ffffffffffffffff811115611ec057611ebf611c24565b5b611ecc84828501611e3e565b60208301525092915050565b6000611ee43683611e6c565b9050919050565b600081519050919050565b600081905092915050565b6000819050602082019050919050565b611f1a81610f75565b82525050565b6000611f2c8383611f11565b60208301905092915050565b6000602082019050919050565b6000611f5082611eeb565b611f5a8185611ef6565b9350611f6583611f01565b8060005b83811015611f96578151611f7d8882611f20565b9750611f8883611f38565b925050600181019050611f69565b5085935050505092915050565b6000611faf8284611f45565b915081905092915050565b611fc381610f75565b82525050565b600060a082019050611fde6000830188611fba565b611feb6020830187611fba565b611ff86040830186610eda565b612005606083018561110b565b612012608083018461110b565b9695505050505050565b600081905092915050565b7f1901000000000000000000000000000000000000000000000000000000000000600082015250565b600061205d60028361201c565b915061206882612027565b600282019050919050565b6000819050919050565b61208e61208982610f75565b612073565b82525050565b600061209f82612050565b91506120ab828561207d565b6020820191506120bb828461207d565b6020820191508190509392505050565b60006060820190506120e06000830186611fba565b6120ed6020830185611fba565b6120fa6040830184611fba565b949350505050565b61210b81610f3c565b82525050565b60006080820190506121266000830187611fba565b6121336020830186612102565b6121406040830185611fba565b61214d6060830184611fba565b95945050505050565b7f4e487b7100000000000000000000000000000000000000000000000000000000600052602160045260246000fd5b7f45434453413a20696e76616c6964207369676e61747572650000000000000000600082015250565b60006121bb601883610e01565b91506121c682612185565b602082019050919050565b600060208201905081810360008301526121ea816121ae565b9050919050565b7f45434453413a20696e76616c6964207369676e6174757265206c656e67746800600082015250565b6000612227601f83610e01565b9150612232826121f1565b602082019050919050565b600060208201905081810360008301526122568161221a565b9050919050565b7f45434453413a20696e76616c6964207369676e6174757265202773272076616c60008201527f7565000000000000000000000000000000000000000000000000000000000000602082015250565b60006122b9602283610e01565b91506122c48261225d565b604082019050919050565b600060208201905081810360008301526122e8816122ac565b9050919050565b6122f881611367565b82525050565b612307816113cd565b82525050565b600060e082019050612322600083018a611fba565b61232f6020830189610eda565b61233c60408301886122ef565b61234960608301876122fe565b6123566080830186611fba565b61236360a0830185611fba565b61237060c083018461110b565b9897505050505050505056fea264697066735822122010115b45905761868e0d58253d78ee0106df1146d8f9a13f8a79fd26f4a0d6a464736f6c63430008120033",
  "linkReferences": {},
  "deployedLinkReferences": {}
}