{
  "_format": "hh-sol-artifact-1",
  "contractName": "GitcoinVerifierUpdate",
  "sourceName": "contracts/GitcoinVerifierUpdate.sol",
  "abi": [
    {
      "anonymous": false,
      "inputs": [
        {
          "indexed": false,
          "internalType": "address",
          "name": "previousAdmin",
          "type": "address"
        },
        {
          "indexed": false,
          "internalType": "address",
          "name": "newAdmin",
          "type": "address"
        }
      ],
      "name": "AdminChanged",
      "type": "event"
    },
    {
      "anonymous": false,
      "inputs": [
        {
          "indexed": true,
          "internalType": "address",
          "name": "beacon",
          "type": "address"
        }
      ],
      "name": "BeaconUpgraded",
      "type": "event"
    },
    {
      "anonymous": false,
      "inputs": [
        {
          "indexed": false,
          "internalType": "uint8",
          "name": "version",
          "type": "uint8"
        }
      ],
      "name": "Initialized",
      "type": "event"
    },
    {
      "anonymous": false,
      "inputs": [
        {
          "indexed": true,
          "internalType": "address",
          "name": "previousOwner",
          "type": "address"
        },
        {
          "indexed": true,
          "internalType": "address",
          "name": "newOwner",
          "type": "address"
        }
      ],
      "name": "OwnershipTransferred",
      "type": "event"
    },
    {
      "anonymous": false,
      "inputs": [
        {
          "indexed": false,
          "internalType": "address",
          "name": "account",
          "type": "address"
        }
      ],
      "name": "Paused",
      "type": "event"
    },
    {
      "anonymous": false,
      "inputs": [
        {
          "indexed": false,
          "internalType": "address",
          "name": "account",
          "type": "address"
        }
      ],
      "name": "Unpaused",
      "type": "event"
    },
    {
      "anonymous": false,
      "inputs": [
        {
          "indexed": true,
          "internalType": "address",
          "name": "implementation",
          "type": "address"
        }
      ],
      "name": "Upgraded",
      "type": "event"
    },
    {
      "inputs": [],
      "name": "attester",
      "outputs": [
        {
          "internalType": "contract GitcoinAttester",
          "name": "",
          "type": "address"
        }
      ],
      "stateMutability": "view",
      "type": "function"
    },
    {
      "inputs": [
        {
          "internalType": "address",
          "name": "_issuer",
          "type": "address"
        },
        {
          "internalType": "address",
          "name": "_attester",
          "type": "address"
        }
      ],
      "name": "initialize",
      "outputs": [],
      "stateMutability": "nonpayable",
      "type": "function"
    },
    {
      "inputs": [],
      "name": "issuer",
      "outputs": [
        {
          "internalType": "address",
          "name": "",
          "type": "address"
        }
      ],
      "stateMutability": "view",
      "type": "function"
    },
    {
      "inputs": [],
      "name": "name",
      "outputs": [
        {
          "internalType": "string",
          "name": "",
          "type": "string"
        }
      ],
      "stateMutability": "view",
      "type": "function"
    },
    {
      "inputs": [],
      "name": "owner",
      "outputs": [
        {
          "internalType": "address",
          "name": "",
          "type": "address"
        }
      ],
      "stateMutability": "view",
      "type": "function"
    },
    {
      "inputs": [],
      "name": "pause",
      "outputs": [],
      "stateMutability": "nonpayable",
      "type": "function"
    },
    {
      "inputs": [],
      "name": "paused",
      "outputs": [
        {
          "internalType": "bool",
          "name": "",
          "type": "bool"
        }
      ],
      "stateMutability": "view",
      "type": "function"
    },
    {
      "inputs": [],
      "name": "proxiableUUID",
      "outputs": [
        {
          "internalType": "bytes32",
          "name": "",
          "type": "bytes32"
        }
      ],
      "stateMutability": "view",
      "type": "function"
    },
    {
      "inputs": [
        {
          "internalType": "address",
          "name": "",
          "type": "address"
        }
      ],
      "name": "recipientNonces",
      "outputs": [
        {
          "internalType": "uint256",
          "name": "",
          "type": "uint256"
        }
      ],
      "stateMutability": "view",
      "type": "function"
    },
    {
      "inputs": [],
      "name": "renounceOwnership",
      "outputs": [],
      "stateMutability": "nonpayable",
      "type": "function"
    },
    {
      "inputs": [
        {
          "internalType": "address",
          "name": "newOwner",
          "type": "address"
        }
      ],
      "name": "transferOwnership",
      "outputs": [],
      "stateMutability": "nonpayable",
      "type": "function"
    },
    {
      "inputs": [],
      "name": "unpause",
      "outputs": [],
      "stateMutability": "nonpayable",
      "type": "function"
    },
    {
      "inputs": [
        {
          "internalType": "address",
          "name": "newImplementation",
          "type": "address"
        }
      ],
      "name": "upgradeTo",
      "outputs": [],
      "stateMutability": "nonpayable",
      "type": "function"
    },
    {
      "inputs": [
        {
          "internalType": "address",
          "name": "newImplementation",
          "type": "address"
        },
        {
          "internalType": "bytes",
          "name": "data",
          "type": "bytes"
        }
      ],
      "name": "upgradeToAndCall",
      "outputs": [],
      "stateMutability": "payable",
      "type": "function"
    },
    {
      "inputs": [
        {
          "components": [
            {
              "components": [
                {
                  "internalType": "bytes32",
                  "name": "schema",
                  "type": "bytes32"
                },
                {
                  "components": [
                    {
                      "internalType": "address",
                      "name": "recipient",
                      "type": "address"
                    },
                    {
                      "internalType": "uint64",
                      "name": "expirationTime",
                      "type": "uint64"
                    },
                    {
                      "internalType": "bool",
                      "name": "revocable",
                      "type": "bool"
                    },
                    {
                      "internalType": "bytes32",
                      "name": "refUID",
                      "type": "bytes32"
                    },
                    {
                      "internalType": "bytes",
                      "name": "data",
                      "type": "bytes"
                    },
                    {
                      "internalType": "uint256",
                      "name": "value",
                      "type": "uint256"
                    }
                  ],
                  "internalType": "struct AttestationRequestData[]",
                  "name": "data",
                  "type": "tuple[]"
                }
              ],
              "internalType": "struct MultiAttestationRequest[]",
              "name": "multiAttestationRequest",
              "type": "tuple[]"
            },
            {
              "internalType": "uint256",
              "name": "nonce",
              "type": "uint256"
            },
            {
              "internalType": "uint256",
              "name": "fee",
              "type": "uint256"
            }
          ],
          "internalType": "struct GitcoinVerifier.PassportAttestationRequest",
          "name": "attestationRequest",
          "type": "tuple"
        },
        {
          "internalType": "uint8",
          "name": "v",
          "type": "uint8"
        },
        {
          "internalType": "bytes32",
          "name": "r",
          "type": "bytes32"
        },
        {
          "internalType": "bytes32",
          "name": "s",
          "type": "bytes32"
        }
      ],
      "name": "verifyAndAttest",
      "outputs": [],
      "stateMutability": "payable",
      "type": "function"
    },
    {
      "inputs": [],
      "name": "withdrawFees",
      "outputs": [],
      "stateMutability": "nonpayable",
      "type": "function"
    }
  ],
  "bytecode": "0x60a06040523073ffffffffffffffffffffffffffffffffffffffff1660809073ffffffffffffffffffffffffffffffffffffffff1681525034801561004357600080fd5b50608051613eb861007b60003960008181610432015281816104c001528181610a2d01528181610abb0152610b6b0152613eb86000f3fe6080604052600436106100fe5760003560e01c80634a37ac6511610095578063715018a611610064578063715018a6146102bd5780638456cb59146102d45780638da5cb5b146102eb578063c26aaba114610316578063f2fde38b14610353576100fe565b80634a37ac65146102205780634f1ef2861461024b57806352d1902d146102675780635c975abb14610292576100fe565b8063476343ee116100d1578063476343ee1461019957806347b0c3b3146101b0578063485cc955146101db57806348a15e6f14610204576100fe565b806306fdde03146101035780631d1438481461012e5780633659cfe6146101595780633f4ba83a14610182575b600080fd5b34801561010f57600080fd5b5061011861037c565b6040516101259190611e9a565b60405180910390f35b34801561013a57600080fd5b5061014361040a565b6040516101509190611efd565b60405180910390f35b34801561016557600080fd5b50610180600480360381019061017b9190611f58565b610430565b005b34801561018e57600080fd5b506101976105b8565b005b3480156101a557600080fd5b506101ae6105ca565b005b3480156101bc57600080fd5b506101c5610628565b6040516101d29190611fe4565b60405180910390f35b3480156101e757600080fd5b5061020260048036038101906101fd9190611fff565b61064e565b005b61021e600480360381019061021991906120d2565b610911565b005b34801561022c57600080fd5b50610235610a26565b604051610242919061216e565b60405180910390f35b610265600480360381019061026091906122be565b610a2b565b005b34801561027357600080fd5b5061027c610b67565b6040516102899190612329565b60405180910390f35b34801561029e57600080fd5b506102a7610c20565b6040516102b4919061235f565b60405180910390f35b3480156102c957600080fd5b506102d2610c37565b005b3480156102e057600080fd5b506102e9610c4b565b005b3480156102f757600080fd5b50610300610c5d565b60405161030d9190611efd565b60405180910390f35b34801561032257600080fd5b5061033d60048036038101906103389190611f58565b610c87565b60405161034a919061216e565b60405180910390f35b34801561035f57600080fd5b5061037a60048036038101906103759190611f58565b610c9f565b005b609a8054610389906123a9565b80601f01602080910402602001604051908101604052809291908181526020018280546103b5906123a9565b80156104025780601f106103d757610100808354040283529160200191610402565b820191906000526020600020905b8154815290600101906020018083116103e557829003601f168201915b505050505081565b609860009054906101000a900473ffffffffffffffffffffffffffffffffffffffff1681565b7f000000000000000000000000000000000000000000000000000000000000000073ffffffffffffffffffffffffffffffffffffffff163073ffffffffffffffffffffffffffffffffffffffff16036104be576040517f08c379a00000000000000000000000000000000000000000000000000000000081526004016104b59061244c565b60405180910390fd5b7f000000000000000000000000000000000000000000000000000000000000000073ffffffffffffffffffffffffffffffffffffffff166104fd610d22565b73ffffffffffffffffffffffffffffffffffffffff1614610553576040517f08c379a000000000000000000000000000000000000000000000000000000000815260040161054a906124de565b60405180910390fd5b61055c81610d79565b6105b581600067ffffffffffffffff81111561057b5761057a612193565b5b6040519080825280601f01601f1916602001820160405280156105ad5781602001600182028036833780820191505090505b506000610d84565b50565b6105c0610ef2565b6105c8610f70565b565b6105d2610ef2565b60004790506105df610c5d565b73ffffffffffffffffffffffffffffffffffffffff166108fc829081150290604051600060405180830381858888f19350505050158015610624573d6000803e3d6000fd5b5050565b609760009054906101000a900473ffffffffffffffffffffffffffffffffffffffff1681565b60008060019054906101000a900460ff1615905080801561067f5750600160008054906101000a900460ff1660ff16105b806106ac575061068e30610fd3565b1580156106ab5750600160008054906101000a900460ff1660ff16145b5b6106eb576040517f08c379a00000000000000000000000000000000000000000000000000000000081526004016106e290612570565b60405180910390fd5b60016000806101000a81548160ff021916908360ff1602179055508015610728576001600060016101000a81548160ff0219169083151502179055505b610730610ff6565b61073861104f565b81609760006101000a81548173ffffffffffffffffffffffffffffffffffffffff021916908373ffffffffffffffffffffffffffffffffffffffff16021790555082609860006101000a81548173ffffffffffffffffffffffffffffffffffffffff021916908373ffffffffffffffffffffffffffffffffffffffff1602179055506040518060400160405280600f81526020017f476974636f696e56657269666965720000000000000000000000000000000000815250609a90816107fe9190612732565b5060006108096110a8565b90507f8b73c3c69bb8fe3d512ecc4cf759cc79239f7b179b0ffacaa9a75d522b39400f609a60405161083b91906128a7565b60405180910390206040518060400160405280600181526020017f31000000000000000000000000000000000000000000000000000000000000008152508051906020012083306040516020016108969594939291906128be565b6040516020818303038152906040528051906020012060998190555050801561090c5760008060016101000a81548160ff0219169083151502179055507f7f26b83ff96e1f2b6a682f133852f6798a09c465da95921460cefb38474024986001604051610903919061294c565b60405180910390a15b505050565b6109196110b0565b610925838383876110fa565b836040013534101561096c576040517f08c379a0000000000000000000000000000000000000000000000000000000008152600401610963906129b3565b60405180910390fd5b609760009054906101000a900473ffffffffffffffffffffffffffffffffffffffff1673ffffffffffffffffffffffffffffffffffffffff16633addb5b18580600001906109ba91906129e2565b6040518363ffffffff1660e01b81526004016109d7929190612f68565b6000604051808303816000875af11580156109f6573d6000803e3d6000fd5b505050506040513d6000823e3d601f19601f82011682018060405250810190610a1f9190613069565b5050505050565b600090565b7f000000000000000000000000000000000000000000000000000000000000000073ffffffffffffffffffffffffffffffffffffffff163073ffffffffffffffffffffffffffffffffffffffff1603610ab9576040517f08c379a0000000000000000000000000000000000000000000000000000000008152600401610ab09061244c565b60405180910390fd5b7f000000000000000000000000000000000000000000000000000000000000000073ffffffffffffffffffffffffffffffffffffffff16610af8610d22565b73ffffffffffffffffffffffffffffffffffffffff1614610b4e576040517f08c379a0000000000000000000000000000000000000000000000000000000008152600401610b45906124de565b60405180910390fd5b610b5782610d79565b610b6382826001610d84565b5050565b60007f000000000000000000000000000000000000000000000000000000000000000073ffffffffffffffffffffffffffffffffffffffff163073ffffffffffffffffffffffffffffffffffffffff1614610bf7576040517f08c379a0000000000000000000000000000000000000000000000000000000008152600401610bee90613124565b60405180910390fd5b7f360894a13ba1a3210667c828492db98dca3e2076cc3735a920a3ca505d382bbc60001b905090565b6000606560009054906101000a900460ff16905090565b610c3f610ef2565b610c496000611312565b565b610c53610ef2565b610c5b6113d8565b565b6000603360009054906101000a900473ffffffffffffffffffffffffffffffffffffffff16905090565b609b6020528060005260406000206000915090505481565b610ca7610ef2565b600073ffffffffffffffffffffffffffffffffffffffff168173ffffffffffffffffffffffffffffffffffffffff1603610d16576040517f08c379a0000000000000000000000000000000000000000000000000000000008152600401610d0d906131b6565b60405180910390fd5b610d1f81611312565b50565b6000610d507f360894a13ba1a3210667c828492db98dca3e2076cc3735a920a3ca505d382bbc60001b61143b565b60000160009054906101000a900473ffffffffffffffffffffffffffffffffffffffff16905090565b610d81610ef2565b50565b610db07f4910fdfa16fed3260ed0e7147f7cc6da11a60208b5b9406d12a635614ffd914360001b611445565b60000160009054906101000a900460ff1615610dd457610dcf8361144f565b610eed565b8273ffffffffffffffffffffffffffffffffffffffff166352d1902d6040518163ffffffff1660e01b8152600401602060405180830381865afa925050508015610e3c57506040513d601f19601f82011682018060405250810190610e3991906131d6565b60015b610e7b576040517f08c379a0000000000000000000000000000000000000000000000000000000008152600401610e7290613275565b60405180910390fd5b7f360894a13ba1a3210667c828492db98dca3e2076cc3735a920a3ca505d382bbc60001b8114610ee0576040517f08c379a0000000000000000000000000000000000000000000000000000000008152600401610ed790613307565b60405180910390fd5b50610eec838383611508565b5b505050565b610efa611534565b73ffffffffffffffffffffffffffffffffffffffff16610f18610c5d565b73ffffffffffffffffffffffffffffffffffffffff1614610f6e576040517f08c379a0000000000000000000000000000000000000000000000000000000008152600401610f6590613373565b60405180910390fd5b565b610f7861153c565b6000606560006101000a81548160ff0219169083151502179055507f5db9ee0a495bf2e6ff9c91a7834c1ba4fdd244a5e8aa4e537bd38aeae4b073aa610fbc611534565b604051610fc99190611efd565b60405180910390a1565b6000808273ffffffffffffffffffffffffffffffffffffffff163b119050919050565b600060019054906101000a900460ff16611045576040517f08c379a000000000000000000000000000000000000000000000000000000000815260040161103c90613405565b60405180910390fd5b61104d611585565b565b600060019054906101000a900460ff1661109e576040517f08c379a000000000000000000000000000000000000000000000000000000000815260040161109590613405565b60405180910390fd5b6110a66115e6565b565b600046905090565b6110b8610c20565b156110f8576040517f08c379a00000000000000000000000000000000000000000000000000000000081526004016110ef90613471565b60405180910390fd5b565b600081806000019061110c91906129e2565b600081811061111e5761111d613491565b5b905060200281019061113091906134c0565b806020019061113f91906134e8565b600081811061115157611150613491565b5b9050602002810190611163919061354b565b60000160208101906111759190611f58565b9050609b60008273ffffffffffffffffffffffffffffffffffffffff1673ffffffffffffffffffffffffffffffffffffffff168152602001908152602001600020548260200135146111fc576040517f08c379a00000000000000000000000000000000000000000000000000000000081526004016111f3906135bf565b60405180910390fd5b600061120783611652565b90506000611217609954836117bf565b9050609860009054906101000a900473ffffffffffffffffffffffffffffffffffffffff1673ffffffffffffffffffffffffffffffffffffffff1661125e82898989611800565b73ffffffffffffffffffffffffffffffffffffffff16146112b4576040517f08c379a00000000000000000000000000000000000000000000000000000000081526004016112ab9061362b565b60405180910390fd5b609b60008473ffffffffffffffffffffffffffffffffffffffff1673ffffffffffffffffffffffffffffffffffffffff16815260200190815260200160002060008154809291906113049061367a565b919050555050505050505050565b6000603360009054906101000a900473ffffffffffffffffffffffffffffffffffffffff16905081603360006101000a81548173ffffffffffffffffffffffffffffffffffffffff021916908373ffffffffffffffffffffffffffffffffffffffff1602179055508173ffffffffffffffffffffffffffffffffffffffff168173ffffffffffffffffffffffffffffffffffffffff167f8be0079c531659141344cd1fd0a4f28419497f9722a3daafe3b4186f6b6457e060405160405180910390a35050565b6113e06110b0565b6001606560006101000a81548160ff0219169083151502179055507f62e78cea01bee320cd4e420270b5ea74000d11b0c9f74754ebdbfc544b05a258611424611534565b6040516114319190611efd565b60405180910390a1565b6000819050919050565b6000819050919050565b6114588161182b565b611497576040517f08c379a000000000000000000000000000000000000000000000000000000000815260040161148e90613734565b60405180910390fd5b806114c47f360894a13ba1a3210667c828492db98dca3e2076cc3735a920a3ca505d382bbc60001b61143b565b60000160006101000a81548173ffffffffffffffffffffffffffffffffffffffff021916908373ffffffffffffffffffffffffffffffffffffffff16021790555050565b6115118361184e565b60008251118061151e5750805b1561152f5761152d838361189d565b505b505050565b600033905090565b611544610c20565b611583576040517f08c379a000000000000000000000000000000000000000000000000000000000815260040161157a906137a0565b60405180910390fd5b565b600060019054906101000a900460ff166115d4576040517f08c379a00000000000000000000000000000000000000000000000000000000081526004016115cb90613405565b60405180910390fd5b6115e46115df611534565b611312565b565b600060019054906101000a900460ff16611635576040517f08c379a000000000000000000000000000000000000000000000000000000000815260040161162c90613405565b60405180910390fd5b6000606560006101000a81548160ff021916908315150217905550565b60008082806000019061166591906129e2565b905067ffffffffffffffff8111156116805761167f612193565b5b6040519080825280602002602001820160405280156116ae5781602001602082028036833780820191505090505b50905060005b8380600001906116c491906129e2565b905081101561173b576117118480600001906116e091906129e2565b838181106116f1576116f0613491565b5b905060200281019061170391906134c0565b61170c906139d3565b6118ca565b82828151811061172457611723613491565b5b6020026020010181815250508060010190506116b4565b507f0fd0045007471900611efb460970c7a3a1ecbbbbd5abcfb7e43e7cc2fe9635078160405160200161176e9190613a9e565b60405160208183030381529060405280519060200120846020013585604001356040516020016117a19493929190613ab5565b60405160208183030381529060405280519060200120915050919050565b60006040517f190100000000000000000000000000000000000000000000000000000000000081528360028201528260228201526042812091505092915050565b6000806000611811878787876119fc565b9150915061181e81611ade565b8192505050949350505050565b6000808273ffffffffffffffffffffffffffffffffffffffff163b119050919050565b6118578161144f565b8073ffffffffffffffffffffffffffffffffffffffff167fbc7cd75a20ee27fd9adebab32041f755214dbc6bffa90cc0225b39da2e5c2d3b60405160405180910390a250565b60606118c28383604051806060016040528060278152602001613e5c60279139611c44565b905092915050565b60008082602001515167ffffffffffffffff8111156118ec576118eb612193565b5b60405190808252806020026020018201604052801561191a5781602001602082028036833780820191505090505b50905060005b83602001515181101561197e576119548460200151828151811061194757611946613491565b5b6020026020010151611cca565b82828151811061196757611966613491565b5b602002602001018181525050806001019050611920565b507fc85ec0e2b4abf2a8f354a852604877056485cd77c2ab270f9709bd198e9187358360000151826040516020016119b69190613a9e565b604051602081830303815290604052805190602001206040516020016119de93929190613afa565b60405160208183030381529060405280519060200120915050919050565b6000807f7fffffffffffffffffffffffffffffff5d576e7357a4501ddfe92f46681b20a08360001c1115611a37576000600391509150611ad5565b600060018787878760405160008152602001604052604051611a5c9493929190613b40565b6020604051602081039080840390855afa158015611a7e573d6000803e3d6000fd5b505050602060405103519050600073ffffffffffffffffffffffffffffffffffffffff168173ffffffffffffffffffffffffffffffffffffffff1603611acc57600060019250925050611ad5565b80600092509250505b94509492505050565b60006004811115611af257611af1613b85565b5b816004811115611b0557611b04613b85565b5b0315611c415760016004811115611b1f57611b1e613b85565b5b816004811115611b3257611b31613b85565b5b03611b72576040517f08c379a0000000000000000000000000000000000000000000000000000000008152600401611b6990613c00565b60405180910390fd5b60026004811115611b8657611b85613b85565b5b816004811115611b9957611b98613b85565b5b03611bd9576040517f08c379a0000000000000000000000000000000000000000000000000000000008152600401611bd090613c6c565b60405180910390fd5b60036004811115611bed57611bec613b85565b5b816004811115611c0057611bff613b85565b5b03611c40576040517f08c379a0000000000000000000000000000000000000000000000000000000008152600401611c3790613cfe565b60405180910390fd5b5b50565b60606000808573ffffffffffffffffffffffffffffffffffffffff1685604051611c6e9190613d5a565b600060405180830381855af49150503d8060008114611ca9576040519150601f19603f3d011682016040523d82523d6000602084013e611cae565b606091505b5091509150611cbf86838387611d45565b925050509392505050565b60007fd183f890345d44ab79555f4fbe54bbd5e1d554420009efb2b842982fad9779d582600001518360200151846040015185606001518660800151805190602001208760a00151604051602001611d289796959493929190613d80565b604051602081830303815290604052805190602001209050919050565b60608315611da7576000835103611d9f57611d5f8561182b565b611d9e576040517f08c379a0000000000000000000000000000000000000000000000000000000008152600401611d9590613e3b565b60405180910390fd5b5b829050611db2565b611db18383611dba565b5b949350505050565b600082511115611dcd5781518083602001fd5b806040517f08c379a0000000000000000000000000000000000000000000000000000000008152600401611e019190611e9a565b60405180910390fd5b600081519050919050565b600082825260208201905092915050565b60005b83811015611e44578082015181840152602081019050611e29565b60008484015250505050565b6000601f19601f8301169050919050565b6000611e6c82611e0a565b611e768185611e15565b9350611e86818560208601611e26565b611e8f81611e50565b840191505092915050565b60006020820190508181036000830152611eb48184611e61565b905092915050565b600073ffffffffffffffffffffffffffffffffffffffff82169050919050565b6000611ee782611ebc565b9050919050565b611ef781611edc565b82525050565b6000602082019050611f126000830184611eee565b92915050565b6000604051905090565b600080fd5b600080fd5b611f3581611edc565b8114611f4057600080fd5b50565b600081359050611f5281611f2c565b92915050565b600060208284031215611f6e57611f6d611f22565b5b6000611f7c84828501611f43565b91505092915050565b6000819050919050565b6000611faa611fa5611fa084611ebc565b611f85565b611ebc565b9050919050565b6000611fbc82611f8f565b9050919050565b6000611fce82611fb1565b9050919050565b611fde81611fc3565b82525050565b6000602082019050611ff96000830184611fd5565b92915050565b6000806040838503121561201657612015611f22565b5b600061202485828601611f43565b925050602061203585828601611f43565b9150509250929050565b600080fd5b60006060828403121561205a5761205961203f565b5b81905092915050565b600060ff82169050919050565b61207981612063565b811461208457600080fd5b50565b60008135905061209681612070565b92915050565b6000819050919050565b6120af8161209c565b81146120ba57600080fd5b50565b6000813590506120cc816120a6565b92915050565b600080600080608085870312156120ec576120eb611f22565b5b600085013567ffffffffffffffff81111561210a57612109611f27565b5b61211687828801612044565b945050602061212787828801612087565b9350506040612138878288016120bd565b9250506060612149878288016120bd565b91505092959194509250565b6000819050919050565b61216881612155565b82525050565b6000602082019050612183600083018461215f565b92915050565b600080fd5b600080fd5b7f4e487b7100000000000000000000000000000000000000000000000000000000600052604160045260246000fd5b6121cb82611e50565b810181811067ffffffffffffffff821117156121ea576121e9612193565b5b80604052505050565b60006121fd611f18565b905061220982826121c2565b919050565b600067ffffffffffffffff82111561222957612228612193565b5b61223282611e50565b9050602081019050919050565b82818337600083830152505050565b600061226161225c8461220e565b6121f3565b90508281526020810184848401111561227d5761227c61218e565b5b61228884828561223f565b509392505050565b600082601f8301126122a5576122a4612189565b5b81356122b584826020860161224e565b91505092915050565b600080604083850312156122d5576122d4611f22565b5b60006122e385828601611f43565b925050602083013567ffffffffffffffff81111561230457612303611f27565b5b61231085828601612290565b9150509250929050565b6123238161209c565b82525050565b600060208201905061233e600083018461231a565b92915050565b60008115159050919050565b61235981612344565b82525050565b60006020820190506123746000830184612350565b92915050565b7f4e487b7100000000000000000000000000000000000000000000000000000000600052602260045260246000fd5b600060028204905060018216806123c157607f821691505b6020821081036123d4576123d361237a565b5b50919050565b7f46756e6374696f6e206d7573742062652063616c6c6564207468726f7567682060008201527f64656c656761746563616c6c0000000000000000000000000000000000000000602082015250565b6000612436602c83611e15565b9150612441826123da565b604082019050919050565b6000602082019050818103600083015261246581612429565b9050919050565b7f46756e6374696f6e206d7573742062652063616c6c6564207468726f7567682060008201527f6163746976652070726f78790000000000000000000000000000000000000000602082015250565b60006124c8602c83611e15565b91506124d38261246c565b604082019050919050565b600060208201905081810360008301526124f7816124bb565b9050919050565b7f496e697469616c697a61626c653a20636f6e747261637420697320616c72656160008201527f647920696e697469616c697a6564000000000000000000000000000000000000602082015250565b600061255a602e83611e15565b9150612565826124fe565b604082019050919050565b600060208201905081810360008301526125898161254d565b9050919050565b60008190508160005260206000209050919050565b60006020601f8301049050919050565b600082821b905092915050565b6000600883026125f27fffffffffffffffffffffffffffffffffffffffffffffffffffffffffffffffff826125b5565b6125fc86836125b5565b95508019841693508086168417925050509392505050565b600061262f61262a61262584612155565b611f85565b612155565b9050919050565b6000819050919050565b61264983612614565b61265d61265582612636565b8484546125c2565b825550505050565b600090565b612672612665565b61267d818484612640565b505050565b5b818110156126a15761269660008261266a565b600181019050612683565b5050565b601f8211156126e6576126b781612590565b6126c0846125a5565b810160208510156126cf578190505b6126e36126db856125a5565b830182612682565b50505b505050565b600082821c905092915050565b6000612709600019846008026126eb565b1980831691505092915050565b600061272283836126f8565b9150826002028217905092915050565b61273b82611e0a565b67ffffffffffffffff81111561275457612753612193565b5b61275e82546123a9565b6127698282856126a5565b600060209050601f83116001811461279c576000841561278a578287015190505b6127948582612716565b8655506127fc565b601f1984166127aa86612590565b60005b828110156127d2578489015182556001820191506020850194506020810190506127ad565b868310156127ef57848901516127eb601f8916826126f8565b8355505b6001600288020188555050505b505050505050565b600081905092915050565b60008190508160005260206000209050919050565b60008154612831816123a9565b61283b8186612804565b94506001821660008114612856576001811461286b5761289e565b60ff198316865281151582028601935061289e565b6128748561280f565b60005b8381101561289657815481890152600182019150602081019050612877565b838801955050505b50505092915050565b60006128b38284612824565b915081905092915050565b600060a0820190506128d3600083018861231a565b6128e0602083018761231a565b6128ed604083018661231a565b6128fa606083018561215f565b6129076080830184611eee565b9695505050505050565b6000819050919050565b600061293661293161292c84612911565b611f85565b612063565b9050919050565b6129468161291b565b82525050565b6000602082019050612961600083018461293d565b92915050565b7f496e73756666696369656e742066656500000000000000000000000000000000600082015250565b600061299d601083611e15565b91506129a882612967565b602082019050919050565b600060208201905081810360008301526129cc81612990565b9050919050565b600080fd5b600080fd5b600080fd5b600080833560016020038436030381126129ff576129fe6129d3565b5b80840192508235915067ffffffffffffffff821115612a2157612a206129d8565b5b602083019250602082023603831315612a3d57612a3c6129dd565b5b509250929050565b600082825260208201905092915050565b6000819050919050565b6000612a6f60208401846120bd565b905092915050565b612a808161209c565b82525050565b600080fd5b600080fd5b600080fd5b60008083356001602003843603038112612ab257612ab1612a90565b5b83810192508235915060208301925067ffffffffffffffff821115612ada57612ad9612a86565b5b602082023603831315612af057612aef612a8b565b5b509250929050565b600082825260208201905092915050565b6000819050919050565b6000612b226020840184611f43565b905092915050565b612b3381611edc565b82525050565b600067ffffffffffffffff82169050919050565b612b5681612b39565b8114612b6157600080fd5b50565b600081359050612b7381612b4d565b92915050565b6000612b886020840184612b64565b905092915050565b612b9981612b39565b82525050565b612ba881612344565b8114612bb357600080fd5b50565b600081359050612bc581612b9f565b92915050565b6000612bda6020840184612bb6565b905092915050565b612beb81612344565b82525050565b60008083356001602003843603038112612c0e57612c0d612a90565b5b83810192508235915060208301925067ffffffffffffffff821115612c3657612c35612a86565b5b600182023603831315612c4c57612c4b612a8b565b5b509250929050565b600082825260208201905092915050565b6000612c718385612c54565b9350612c7e83858461223f565b612c8783611e50565b840190509392505050565b612c9b81612155565b8114612ca657600080fd5b50565b600081359050612cb881612c92565b92915050565b6000612ccd6020840184612ca9565b905092915050565b612cde81612155565b82525050565b600060c08301612cf76000840184612b13565b612d046000860182612b2a565b50612d126020840184612b79565b612d1f6020860182612b90565b50612d2d6040840184612bcb565b612d3a6040860182612be2565b50612d486060840184612a60565b612d556060860182612a77565b50612d636080840184612bf1565b8583036080870152612d76838284612c65565b92505050612d8760a0840184612cbe565b612d9460a0860182612cd5565b508091505092915050565b6000612dab8383612ce4565b905092915050565b60008235600160c003833603038112612dcf57612dce612a90565b5b82810191505092915050565b6000602082019050919050565b6000612df48385612af8565b935083602084028501612e0684612b09565b8060005b87811015612e4a578484038952612e218284612db3565b612e2b8582612d9f565b9450612e3683612ddb565b925060208a01995050600181019050612e0a565b50829750879450505050509392505050565b600060408301612e6f6000840184612a60565b612e7c6000860182612a77565b50612e8a6020840184612a95565b8583036020870152612e9d838284612de8565b925050508091505092915050565b6000612eb78383612e5c565b905092915050565b600082356001604003833603038112612edb57612eda612a90565b5b82810191505092915050565b6000602082019050919050565b6000612f008385612a45565b935083602084028501612f1284612a56565b8060005b87811015612f56578484038952612f2d8284612ebf565b612f378582612eab565b9450612f4283612ee7565b925060208a01995050600181019050612f16565b50829750879450505050509392505050565b60006020820190508181036000830152612f83818486612ef4565b90509392505050565b600067ffffffffffffffff821115612fa757612fa6612193565b5b602082029050602081019050919050565b600080fd5b600081519050612fcc816120a6565b92915050565b6000612fe5612fe084612f8c565b6121f3565b9050808382526020820190506020840283018581111561300857613007612fb8565b5b835b81811015613031578061301d8882612fbd565b84526020840193505060208101905061300a565b5050509392505050565b600082601f8301126130505761304f612189565b5b8151613060848260208601612fd2565b91505092915050565b60006020828403121561307f5761307e611f22565b5b600082015167ffffffffffffffff81111561309d5761309c611f27565b5b6130a98482850161303b565b91505092915050565b7f555550535570677261646561626c653a206d757374206e6f742062652063616c60008201527f6c6564207468726f7567682064656c656761746563616c6c0000000000000000602082015250565b600061310e603883611e15565b9150613119826130b2565b604082019050919050565b6000602082019050818103600083015261313d81613101565b9050919050565b7f4f776e61626c653a206e6577206f776e657220697320746865207a65726f206160008201527f6464726573730000000000000000000000000000000000000000000000000000602082015250565b60006131a0602683611e15565b91506131ab82613144565b604082019050919050565b600060208201905081810360008301526131cf81613193565b9050919050565b6000602082840312156131ec576131eb611f22565b5b60006131fa84828501612fbd565b91505092915050565b7f45524331393637557067726164653a206e657720696d706c656d656e7461746960008201527f6f6e206973206e6f742055555053000000000000000000000000000000000000602082015250565b600061325f602e83611e15565b915061326a82613203565b604082019050919050565b6000602082019050818103600083015261328e81613252565b9050919050565b7f45524331393637557067726164653a20756e737570706f727465642070726f7860008201527f6961626c65555549440000000000000000000000000000000000000000000000602082015250565b60006132f1602983611e15565b91506132fc82613295565b604082019050919050565b60006020820190508181036000830152613320816132e4565b9050919050565b7f4f776e61626c653a2063616c6c6572206973206e6f7420746865206f776e6572600082015250565b600061335d602083611e15565b915061336882613327565b602082019050919050565b6000602082019050818103600083015261338c81613350565b9050919050565b7f496e697469616c697a61626c653a20636f6e7472616374206973206e6f74206960008201527f6e697469616c697a696e67000000000000000000000000000000000000000000602082015250565b60006133ef602b83611e15565b91506133fa82613393565b604082019050919050565b6000602082019050818103600083015261341e816133e2565b9050919050565b7f5061757361626c653a2070617573656400000000000000000000000000000000600082015250565b600061345b601083611e15565b915061346682613425565b602082019050919050565b6000602082019050818103600083015261348a8161344e565b9050919050565b7f4e487b7100000000000000000000000000000000000000000000000000000000600052603260045260246000fd5b6000823560016040038336030381126134dc576134db6129d3565b5b80830191505092915050565b60008083356001602003843603038112613505576135046129d3565b5b80840192508235915067ffffffffffffffff821115613527576135266129d8565b5b602083019250602082023603831315613543576135426129dd565b5b509250929050565b60008235600160c003833603038112613567576135666129d3565b5b80830191505092915050565b7f496e76616c6964206e6f6e636500000000000000000000000000000000000000600082015250565b60006135a9600d83611e15565b91506135b482613573565b602082019050919050565b600060208201905081810360008301526135d88161359c565b9050919050565b7f496e76616c6964207369676e6174757265000000000000000000000000000000600082015250565b6000613615601183611e15565b9150613620826135df565b602082019050919050565b6000602082019050818103600083015261364481613608565b9050919050565b7f4e487b7100000000000000000000000000000000000000000000000000000000600052601160045260246000fd5b600061368582612155565b91507fffffffffffffffffffffffffffffffffffffffffffffffffffffffffffffffff82036136b7576136b661364b565b5b600182019050919050565b7f455243313936373a206e657720696d706c656d656e746174696f6e206973206e60008201527f6f74206120636f6e747261637400000000000000000000000000000000000000602082015250565b600061371e602d83611e15565b9150613729826136c2565b604082019050919050565b6000602082019050818103600083015261374d81613711565b9050919050565b7f5061757361626c653a206e6f7420706175736564000000000000000000000000600082015250565b600061378a601483611e15565b915061379582613754565b602082019050919050565b600060208201905081810360008301526137b98161377d565b9050919050565b600080fd5b600080fd5b600067ffffffffffffffff8211156137e5576137e4612193565b5b602082029050602081019050919050565b600060c0828403121561380c5761380b6137c0565b5b61381660c06121f3565b9050600061382684828501611f43565b600083015250602061383a84828501612b64565b602083015250604061384e84828501612bb6565b6040830152506060613862848285016120bd565b606083015250608082013567ffffffffffffffff811115613886576138856137c5565b5b61389284828501612290565b60808301525060a06138a684828501612ca9565b60a08301525092915050565b60006138c56138c0846137ca565b6121f3565b905080838252602082019050602084028301858111156138e8576138e7612fb8565b5b835b8181101561392f57803567ffffffffffffffff81111561390d5761390c612189565b5b80860161391a89826137f6565b855260208501945050506020810190506138ea565b5050509392505050565b600082601f83011261394e5761394d612189565b5b813561395e8482602086016138b2565b91505092915050565b60006040828403121561397d5761397c6137c0565b5b61398760406121f3565b90506000613997848285016120bd565b600083015250602082013567ffffffffffffffff8111156139bb576139ba6137c5565b5b6139c784828501613939565b60208301525092915050565b60006139df3683613967565b9050919050565b600081519050919050565b600081905092915050565b6000819050602082019050919050565b613a158161209c565b82525050565b6000613a278383613a0c565b60208301905092915050565b6000602082019050919050565b6000613a4b826139e6565b613a5581856139f1565b9350613a60836139fc565b8060005b83811015613a91578151613a788882613a1b565b9750613a8383613a33565b925050600181019050613a64565b5085935050505092915050565b6000613aaa8284613a40565b915081905092915050565b6000608082019050613aca600083018761231a565b613ad7602083018661231a565b613ae4604083018561215f565b613af1606083018461215f565b95945050505050565b6000606082019050613b0f600083018661231a565b613b1c602083018561231a565b613b29604083018461231a565b949350505050565b613b3a81612063565b82525050565b6000608082019050613b55600083018761231a565b613b626020830186613b31565b613b6f604083018561231a565b613b7c606083018461231a565b95945050505050565b7f4e487b7100000000000000000000000000000000000000000000000000000000600052602160045260246000fd5b7f45434453413a20696e76616c6964207369676e61747572650000000000000000600082015250565b6000613bea601883611e15565b9150613bf582613bb4565b602082019050919050565b60006020820190508181036000830152613c1981613bdd565b9050919050565b7f45434453413a20696e76616c6964207369676e6174757265206c656e67746800600082015250565b6000613c56601f83611e15565b9150613c6182613c20565b602082019050919050565b60006020820190508181036000830152613c8581613c49565b9050919050565b7f45434453413a20696e76616c6964207369676e6174757265202773272076616c60008201527f7565000000000000000000000000000000000000000000000000000000000000602082015250565b6000613ce8602283611e15565b9150613cf382613c8c565b604082019050919050565b60006020820190508181036000830152613d1781613cdb565b9050919050565b600081519050919050565b6000613d3482613d1e565b613d3e8185612804565b9350613d4e818560208601611e26565b80840191505092915050565b6000613d668284613d29565b915081905092915050565b613d7a81612b39565b82525050565b600060e082019050613d95600083018a61231a565b613da26020830189611eee565b613daf6040830188613d71565b613dbc6060830187612350565b613dc9608083018661231a565b613dd660a083018561231a565b613de360c083018461215f565b98975050505050505050565b7f416464726573733a2063616c6c20746f206e6f6e2d636f6e7472616374000000600082015250565b6000613e25601d83611e15565b9150613e3082613def565b602082019050919050565b60006020820190508181036000830152613e5481613e18565b905091905056fe416464726573733a206c6f772d6c6576656c2064656c65676174652063616c6c206661696c6564a2646970667358221220b35a00683499d01713c2c74552d63d0542f9103b2b6bb9e169eff4db00f7998364736f6c63430008130033",
  "linkReferences": {},
  "deployedLinkReferences": {}
}