{
  "_format": "hh-sol-artifact-1",
  "contractName": "GitcoinVerifier",
  "sourceName": "contracts/GitcoinVerifier.sol",
  "abi": [
    {
      "inputs": [
        {
          "internalType": "address",
          "name": "_issuer",
          "type": "address"
        },
        {
          "internalType": "address",
          "name": "_attester",
          "type": "address"
        }
      ],
      "stateMutability": "nonpayable",
      "type": "constructor"
    },
    {
      "anonymous": false,
      "inputs": [
        {
          "indexed": true,
          "internalType": "address",
          "name": "previousOwner",
          "type": "address"
        },
        {
          "indexed": true,
          "internalType": "address",
          "name": "newOwner",
          "type": "address"
        }
      ],
      "name": "OwnershipTransferred",
      "type": "event"
    },
    {
      "inputs": [
        {
          "internalType": "bytes32",
          "name": "schema",
          "type": "bytes32"
        },
        {
          "components": [
            {
              "components": [
                {
                  "internalType": "bytes",
                  "name": "encodedData",
                  "type": "bytes"
                }
              ],
              "internalType": "struct GitcoinVerifier.Stamp[]",
              "name": "stamps",
              "type": "tuple[]"
            },
            {
              "internalType": "address",
              "name": "recipient",
              "type": "address"
            },
            {
              "internalType": "uint64",
              "name": "expirationTime",
              "type": "uint64"
            },
            {
              "internalType": "bool",
              "name": "revocable",
              "type": "bool"
            },
            {
              "internalType": "bytes32",
              "name": "refUID",
              "type": "bytes32"
            },
            {
              "internalType": "uint256",
              "name": "value",
              "type": "uint256"
            },
            {
              "internalType": "uint256",
              "name": "nonce",
              "type": "uint256"
            },
            {
              "internalType": "uint256",
              "name": "fee",
              "type": "uint256"
            }
          ],
          "internalType": "struct GitcoinVerifier.Passport",
          "name": "passport",
          "type": "tuple"
        },
        {
          "internalType": "uint8",
          "name": "v",
          "type": "uint8"
        },
        {
          "internalType": "bytes32",
          "name": "r",
          "type": "bytes32"
        },
        {
          "internalType": "bytes32",
          "name": "s",
          "type": "bytes32"
        }
      ],
      "name": "addPassportWithSignature",
      "outputs": [],
      "stateMutability": "payable",
      "type": "function"
    },
    {
      "inputs": [],
      "name": "attester",
      "outputs": [
        {
          "internalType": "contract GitcoinAttester",
          "name": "",
          "type": "address"
        }
      ],
      "stateMutability": "view",
      "type": "function"
    },
    {
      "inputs": [
        {
          "internalType": "bytes32",
          "name": "schema",
          "type": "bytes32"
        },
        {
          "components": [
            {
              "components": [
                {
                  "internalType": "bytes",
                  "name": "encodedData",
                  "type": "bytes"
                }
              ],
              "internalType": "struct GitcoinVerifier.Stamp[]",
              "name": "stamps",
              "type": "tuple[]"
            },
            {
              "internalType": "address",
              "name": "recipient",
              "type": "address"
            },
            {
              "internalType": "uint64",
              "name": "expirationTime",
              "type": "uint64"
            },
            {
              "internalType": "bool",
              "name": "revocable",
              "type": "bool"
            },
            {
              "internalType": "bytes32",
              "name": "refUID",
              "type": "bytes32"
            },
            {
              "internalType": "uint256",
              "name": "value",
              "type": "uint256"
            },
            {
              "internalType": "uint256",
              "name": "nonce",
              "type": "uint256"
            },
            {
              "internalType": "uint256",
              "name": "fee",
              "type": "uint256"
            }
          ],
          "internalType": "struct GitcoinVerifier.Passport",
          "name": "passport",
          "type": "tuple"
        }
      ],
      "name": "getMultiAttestRequest",
      "outputs": [
        {
          "components": [
            {
              "internalType": "bytes32",
              "name": "schema",
              "type": "bytes32"
            },
            {
              "components": [
                {
                  "internalType": "address",
                  "name": "recipient",
                  "type": "address"
                },
                {
                  "internalType": "uint64",
                  "name": "expirationTime",
                  "type": "uint64"
                },
                {
                  "internalType": "bool",
                  "name": "revocable",
                  "type": "bool"
                },
                {
                  "internalType": "bytes32",
                  "name": "refUID",
                  "type": "bytes32"
                },
                {
                  "internalType": "bytes",
                  "name": "data",
                  "type": "bytes"
                },
                {
                  "internalType": "uint256",
                  "name": "value",
                  "type": "uint256"
                }
              ],
              "internalType": "struct AttestationRequestData[]",
              "name": "data",
              "type": "tuple[]"
            }
          ],
          "internalType": "struct MultiAttestationRequest[]",
          "name": "",
          "type": "tuple[]"
        }
      ],
      "stateMutability": "pure",
      "type": "function"
    },
    {
      "inputs": [],
      "name": "issuer",
      "outputs": [
        {
          "internalType": "address",
          "name": "",
          "type": "address"
        }
      ],
      "stateMutability": "view",
      "type": "function"
    },
    {
      "inputs": [],
      "name": "name",
      "outputs": [
        {
          "internalType": "string",
          "name": "",
          "type": "string"
        }
      ],
      "stateMutability": "view",
      "type": "function"
    },
    {
      "inputs": [],
      "name": "owner",
      "outputs": [
        {
          "internalType": "address",
          "name": "",
          "type": "address"
        }
      ],
      "stateMutability": "view",
      "type": "function"
    },
    {
      "inputs": [
        {
          "internalType": "address",
          "name": "",
          "type": "address"
        }
      ],
      "name": "recipientNonces",
      "outputs": [
        {
          "internalType": "uint256",
          "name": "",
          "type": "uint256"
        }
      ],
      "stateMutability": "view",
      "type": "function"
    },
    {
      "inputs": [],
      "name": "renounceOwnership",
      "outputs": [],
      "stateMutability": "nonpayable",
      "type": "function"
    },
    {
      "inputs": [
        {
          "internalType": "address",
          "name": "newOwner",
          "type": "address"
        }
      ],
      "name": "transferOwnership",
      "outputs": [],
      "stateMutability": "nonpayable",
      "type": "function"
    },
    {
      "inputs": [],
      "name": "withdrawFees",
      "outputs": [],
      "stateMutability": "nonpayable",
      "type": "function"
    }
  ],
  "bytecode": "0x60e06040523480156200001157600080fd5b50604051620028fe380380620028fe83398181016040528101906200003791906200030d565b620000576200004b620001cf60201b60201c565b620001d760201b60201c565b8073ffffffffffffffffffffffffffffffffffffffff1660808173ffffffffffffffffffffffffffffffffffffffff16815250508173ffffffffffffffffffffffffffffffffffffffff1660a08173ffffffffffffffffffffffffffffffffffffffff16815250506040518060400160405280600f81526020017f476974636f696e5665726966696572000000000000000000000000000000000081525060019081620001059190620005ce565b506000620001186200029b60201b60201c565b90507f8b73c3c69bb8fe3d512ecc4cf759cc79239f7b179b0ffacaa9a75d522b39400f60016040516200014c919062000764565b60405180910390206040518060400160405280600181526020017f3100000000000000000000000000000000000000000000000000000000000000815250805190602001208330604051602001620001a9959493929190620007ba565b6040516020818303038152906040528051906020012060c0818152505050505062000817565b600033905090565b60008060009054906101000a900473ffffffffffffffffffffffffffffffffffffffff169050816000806101000a81548173ffffffffffffffffffffffffffffffffffffffff021916908373ffffffffffffffffffffffffffffffffffffffff1602179055508173ffffffffffffffffffffffffffffffffffffffff168173ffffffffffffffffffffffffffffffffffffffff167f8be0079c531659141344cd1fd0a4f28419497f9722a3daafe3b4186f6b6457e060405160405180910390a35050565b600046905090565b600080fd5b600073ffffffffffffffffffffffffffffffffffffffff82169050919050565b6000620002d582620002a8565b9050919050565b620002e781620002c8565b8114620002f357600080fd5b50565b6000815190506200030781620002dc565b92915050565b60008060408385031215620003275762000326620002a3565b5b60006200033785828601620002f6565b92505060206200034a85828601620002f6565b9150509250929050565b600081519050919050565b7f4e487b7100000000000000000000000000000000000000000000000000000000600052604160045260246000fd5b7f4e487b7100000000000000000000000000000000000000000000000000000000600052602260045260246000fd5b60006002820490506001821680620003d657607f821691505b602082108103620003ec57620003eb6200038e565b5b50919050565b60008190508160005260206000209050919050565b60006020601f8301049050919050565b600082821b905092915050565b600060088302620004567fffffffffffffffffffffffffffffffffffffffffffffffffffffffffffffffff8262000417565b62000462868362000417565b95508019841693508086168417925050509392505050565b6000819050919050565b6000819050919050565b6000620004af620004a9620004a3846200047a565b62000484565b6200047a565b9050919050565b6000819050919050565b620004cb836200048e565b620004e3620004da82620004b6565b84845462000424565b825550505050565b600090565b620004fa620004eb565b62000507818484620004c0565b505050565b5b818110156200052f5762000523600082620004f0565b6001810190506200050d565b5050565b601f8211156200057e576200054881620003f2565b620005538462000407565b8101602085101562000563578190505b6200057b620005728562000407565b8301826200050c565b50505b505050565b600082821c905092915050565b6000620005a36000198460080262000583565b1980831691505092915050565b6000620005be838362000590565b9150826002028217905092915050565b620005d98262000354565b67ffffffffffffffff811115620005f557620005f46200035f565b5b620006018254620003bd565b6200060e82828562000533565b600060209050601f83116001811462000646576000841562000631578287015190505b6200063d8582620005b0565b865550620006ad565b601f1984166200065686620003f2565b60005b82811015620006805784890151825560018201915060208501945060208101905062000659565b86831015620006a057848901516200069c601f89168262000590565b8355505b6001600288020188555050505b505050505050565b600081905092915050565b60008190508160005260206000209050919050565b60008154620006e481620003bd565b620006f08186620006b5565b945060018216600081146200070e576001811462000724576200075b565b60ff19831686528115158202860193506200075b565b6200072f85620006c0565b60005b83811015620007535781548189015260018201915060208101905062000732565b838801955050505b50505092915050565b6000620007728284620006d5565b915081905092915050565b6000819050919050565b62000792816200077d565b82525050565b620007a3816200047a565b82525050565b620007b481620002c8565b82525050565b600060a082019050620007d1600083018862000787565b620007e0602083018762000787565b620007ef604083018662000787565b620007fe606083018562000798565b6200080d6080830184620007a9565b9695505050505050565b60805160a05160c0516120b06200084e60003960006108a50152600081816102bf01526108ce0152600061034101526120b06000f3fe6080604052600436106100915760003560e01c80638327a7ee116100595780638327a7ee146101455780638da5cb5b14610161578063c26aaba11461018c578063d2c3ec5b146101c9578063f2fde38b1461020657610091565b806306fdde03146100965780631d143848146100c1578063476343ee146100ec57806347b0c3b314610103578063715018a61461012e575b600080fd5b3480156100a257600080fd5b506100ab61022f565b6040516100b89190610fa2565b60405180910390f35b3480156100cd57600080fd5b506100d66102bd565b6040516100e39190611005565b60405180910390f35b3480156100f857600080fd5b506101016102e1565b005b34801561010f57600080fd5b5061011861033f565b604051610125919061107f565b60405180910390f35b34801561013a57600080fd5b50610143610363565b005b61015f600480360381019061015a9190611142565b610377565b005b34801561016d57600080fd5b506101766103d1565b6040516101839190611005565b60405180910390f35b34801561019857600080fd5b506101b360048036038101906101ae9190611205565b6103fa565b6040516101c0919061124b565b60405180910390f35b3480156101d557600080fd5b506101f060048036038101906101eb9190611266565b610412565b6040516101fd91906115cc565b60405180910390f35b34801561021257600080fd5b5061022d60048036038101906102289190611205565b610635565b005b6001805461023c9061161d565b80601f01602080910402602001604051908101604052809291908181526020018280546102689061161d565b80156102b55780601f1061028a576101008083540402835291602001916102b5565b820191906000526020600020905b81548152906001019060200180831161029857829003601f168201915b505050505081565b7f000000000000000000000000000000000000000000000000000000000000000081565b6102e96106b8565b60004790506102f66103d1565b73ffffffffffffffffffffffffffffffffffffffff166108fc829081150290604051600060405180830381858888f1935050505015801561033b573d6000803e3d6000fd5b5050565b7f000000000000000000000000000000000000000000000000000000000000000081565b61036b6106b8565b6103756000610736565b565b8360e001353410156103be576040517f08c379a00000000000000000000000000000000000000000000000000000000081526004016103b59061169a565b60405180910390fd5b6103ca838383876107fa565b5050505050565b60008060009054906101000a900473ffffffffffffffffffffffffffffffffffffffff16905090565b60026020528060005260406000206000915090505481565b60606000600167ffffffffffffffff811115610431576104306116ba565b5b60405190808252806020026020018201604052801561046a57816020015b610457610e9a565b81526020019060019003908161044f5790505b5090508381600081518110610482576104816116e9565b5b602002602001015160000181815250508280600001906104a29190611727565b905067ffffffffffffffff8111156104bd576104bc6116ba565b5b6040519080825280602002602001820160405280156104f657816020015b6104e3610eb7565b8152602001906001900390816104db5790505b508160008151811061050b5761050a6116e9565b5b60200260200101516020018190525060005b83806000019061052d9190611727565b905081101561062a5760008480600001906105489190611727565b83818110610559576105586116e9565b5b905060200281019061056b919061178a565b6105749061191a565b90506040518060c001604052808660200160208101906105949190611205565b73ffffffffffffffffffffffffffffffffffffffff168152602001600067ffffffffffffffff1681526020016001151581526020016000801b8152602001826000015181526020016000815250836000815181106105f5576105f46116e9565b5b6020026020010151602001518381518110610613576106126116e9565b5b60200260200101819052508160010191505061051d565b508091505092915050565b61063d6106b8565b600073ffffffffffffffffffffffffffffffffffffffff168173ffffffffffffffffffffffffffffffffffffffff16036106ac576040517f08c379a00000000000000000000000000000000000000000000000000000000081526004016106a39061199f565b60405180910390fd5b6106b581610736565b50565b6106c06109d4565b73ffffffffffffffffffffffffffffffffffffffff166106de6103d1565b73ffffffffffffffffffffffffffffffffffffffff1614610734576040517f08c379a000000000000000000000000000000000000000000000000000000000815260040161072b90611a0b565b60405180910390fd5b565b60008060009054906101000a900473ffffffffffffffffffffffffffffffffffffffff169050816000806101000a81548173ffffffffffffffffffffffffffffffffffffffff021916908373ffffffffffffffffffffffffffffffffffffffff1602179055508173ffffffffffffffffffffffffffffffffffffffff168173ffffffffffffffffffffffffffffffffffffffff167f8be0079c531659141344cd1fd0a4f28419497f9722a3daafe3b4186f6b6457e060405160405180910390a35050565b600260008260200160208101906108119190611205565b73ffffffffffffffffffffffffffffffffffffffff1673ffffffffffffffffffffffffffffffffffffffff168152602001908152602001600020548160c0013514610891576040517f08c379a000000000000000000000000000000000000000000000000000000000815260040161088890611a77565b60405180910390fd5b600061089c826109dc565b905060006108ca7f000000000000000000000000000000000000000000000000000000000000000083610b97565b90507f000000000000000000000000000000000000000000000000000000000000000073ffffffffffffffffffffffffffffffffffffffff1661090f82888888610bca565b73ffffffffffffffffffffffffffffffffffffffff1614610965576040517f08c379a000000000000000000000000000000000000000000000000000000000815260040161095c90611ae3565b60405180910390fd5b6002600084602001602081019061097c9190611205565b73ffffffffffffffffffffffffffffffffffffffff1673ffffffffffffffffffffffffffffffffffffffff16815260200190815260200160002060008154809291906109c790611b32565b9190505550505050505050565b600033905090565b6000808280600001906109ef9190611727565b905067ffffffffffffffff811115610a0a57610a096116ba565b5b604051908082528060200260200182016040528015610a385781602001602082028036833780820191505090505b50905060005b838060000190610a4e9190611727565b9050811015610ac557610a9b848060000190610a6a9190611727565b83818110610a7b57610a7a6116e9565b5b9050602002810190610a8d919061178a565b610a969061191a565b610bf5565b828281518110610aae57610aad6116e9565b5b602002602001018181525050806001019050610a3e565b50600081604051602001610ad99190611c32565b6040516020818303038152906040528051906020012090507f2b9dbd884c3667c9ed6ed0ce709567df4e3f68f2d18eadda7d7f3a3dcdd7f05881856020016020810190610b269190611205565b866040016020810190610b399190611c75565b876060016020810190610b4c9190611cce565b88608001358960a001358a60c001358b60e00135604051602001610b7899989796959493929190611d28565b6040516020818303038152906040528051906020012092505050919050565b60008282604051602001610bac929190611e2d565b60405160208183030381529060405280519060200120905092915050565b6000806000610bdb87878787610c52565b91509150610be881610d34565b8192505050949350505050565b60007f533a6d49bdc4d5721c468318ae1cc7977ad2a6961b42fe7f0c36e3c9fb01a2d1826000015180519060200120604051602001610c35929190611e64565b604051602081830303815290604052805190602001209050919050565b6000807f7fffffffffffffffffffffffffffffff5d576e7357a4501ddfe92f46681b20a08360001c1115610c8d576000600391509150610d2b565b600060018787878760405160008152602001604052604051610cb29493929190611e9c565b6020604051602081039080840390855afa158015610cd4573d6000803e3d6000fd5b505050602060405103519050600073ffffffffffffffffffffffffffffffffffffffff168173ffffffffffffffffffffffffffffffffffffffff1603610d2257600060019250925050610d2b565b80600092509250505b94509492505050565b60006004811115610d4857610d47611ee1565b5b816004811115610d5b57610d5a611ee1565b5b0315610e975760016004811115610d7557610d74611ee1565b5b816004811115610d8857610d87611ee1565b5b03610dc8576040517f08c379a0000000000000000000000000000000000000000000000000000000008152600401610dbf90611f5c565b60405180910390fd5b60026004811115610ddc57610ddb611ee1565b5b816004811115610def57610dee611ee1565b5b03610e2f576040517f08c379a0000000000000000000000000000000000000000000000000000000008152600401610e2690611fc8565b60405180910390fd5b60036004811115610e4357610e42611ee1565b5b816004811115610e5657610e55611ee1565b5b03610e96576040517f08c379a0000000000000000000000000000000000000000000000000000000008152600401610e8d9061205a565b60405180910390fd5b5b50565b604051806040016040528060008019168152602001606081525090565b6040518060c00160405280600073ffffffffffffffffffffffffffffffffffffffff168152602001600067ffffffffffffffff1681526020016000151581526020016000801916815260200160608152602001600081525090565b600081519050919050565b600082825260208201905092915050565b60005b83811015610f4c578082015181840152602081019050610f31565b60008484015250505050565b6000601f19601f8301169050919050565b6000610f7482610f12565b610f7e8185610f1d565b9350610f8e818560208601610f2e565b610f9781610f58565b840191505092915050565b60006020820190508181036000830152610fbc8184610f69565b905092915050565b600073ffffffffffffffffffffffffffffffffffffffff82169050919050565b6000610fef82610fc4565b9050919050565b610fff81610fe4565b82525050565b600060208201905061101a6000830184610ff6565b92915050565b6000819050919050565b600061104561104061103b84610fc4565b611020565b610fc4565b9050919050565b60006110578261102a565b9050919050565b60006110698261104c565b9050919050565b6110798161105e565b82525050565b60006020820190506110946000830184611070565b92915050565b6000604051905090565b600080fd5b600080fd5b6000819050919050565b6110c1816110ae565b81146110cc57600080fd5b50565b6000813590506110de816110b8565b92915050565b600080fd5b60006101008284031215611100576110ff6110e4565b5b81905092915050565b600060ff82169050919050565b61111f81611109565b811461112a57600080fd5b50565b60008135905061113c81611116565b92915050565b600080600080600060a0868803121561115e5761115d6110a4565b5b600061116c888289016110cf565b955050602086013567ffffffffffffffff81111561118d5761118c6110a9565b5b611199888289016110e9565b94505060406111aa8882890161112d565b93505060606111bb888289016110cf565b92505060806111cc888289016110cf565b9150509295509295909350565b6111e281610fe4565b81146111ed57600080fd5b50565b6000813590506111ff816111d9565b92915050565b60006020828403121561121b5761121a6110a4565b5b6000611229848285016111f0565b91505092915050565b6000819050919050565b61124581611232565b82525050565b6000602082019050611260600083018461123c565b92915050565b6000806040838503121561127d5761127c6110a4565b5b600061128b858286016110cf565b925050602083013567ffffffffffffffff8111156112ac576112ab6110a9565b5b6112b8858286016110e9565b9150509250929050565b600081519050919050565b600082825260208201905092915050565b6000819050602082019050919050565b6112f7816110ae565b82525050565b600081519050919050565b600082825260208201905092915050565b6000819050602082019050919050565b61133281610fe4565b82525050565b600067ffffffffffffffff82169050919050565b61135581611338565b82525050565b60008115159050919050565b6113708161135b565b82525050565b600081519050919050565b600082825260208201905092915050565b600061139d82611376565b6113a78185611381565b93506113b7818560208601610f2e565b6113c081610f58565b840191505092915050565b6113d481611232565b82525050565b600060c0830160008301516113f26000860182611329565b506020830151611405602086018261134c565b5060408301516114186040860182611367565b50606083015161142b60608601826112ee565b50608083015184820360808601526114438282611392565b91505060a083015161145860a08601826113cb565b508091505092915050565b600061146f83836113da565b905092915050565b6000602082019050919050565b600061148f826112fd565b6114998185611308565b9350836020820285016114ab85611319565b8060005b858110156114e757848403895281516114c88582611463565b94506114d383611477565b925060208a019950506001810190506114af565b50829750879550505050505092915050565b600060408301600083015161151160008601826112ee565b50602083015184820360208601526115298282611484565b9150508091505092915050565b600061154283836114f9565b905092915050565b6000602082019050919050565b6000611562826112c2565b61156c81856112cd565b93508360208202850161157e856112de565b8060005b858110156115ba578484038952815161159b8582611536565b94506115a68361154a565b925060208a01995050600181019050611582565b50829750879550505050505092915050565b600060208201905081810360008301526115e68184611557565b905092915050565b7f4e487b7100000000000000000000000000000000000000000000000000000000600052602260045260246000fd5b6000600282049050600182168061163557607f821691505b602082108103611648576116476115ee565b5b50919050565b7f496e73756666696369656e742066656500000000000000000000000000000000600082015250565b6000611684601083610f1d565b915061168f8261164e565b602082019050919050565b600060208201905081810360008301526116b381611677565b9050919050565b7f4e487b7100000000000000000000000000000000000000000000000000000000600052604160045260246000fd5b7f4e487b7100000000000000000000000000000000000000000000000000000000600052603260045260246000fd5b600080fd5b600080fd5b600080fd5b6000808335600160200384360303811261174457611743611718565b5b80840192508235915067ffffffffffffffff8211156117665761176561171d565b5b60208301925060208202360383131561178257611781611722565b5b509250929050565b6000823560016020038336030381126117a6576117a5611718565b5b80830191505092915050565b600080fd5b6117c082610f58565b810181811067ffffffffffffffff821117156117df576117de6116ba565b5b80604052505050565b60006117f261109a565b90506117fe82826117b7565b919050565b600080fd5b600080fd5b600080fd5b600067ffffffffffffffff82111561182d5761182c6116ba565b5b61183682610f58565b9050602081019050919050565b82818337600083830152505050565b600061186561186084611812565b6117e8565b9050828152602081018484840111156118815761188061180d565b5b61188c848285611843565b509392505050565b600082601f8301126118a9576118a8611808565b5b81356118b9848260208601611852565b91505092915050565b6000602082840312156118d8576118d76117b2565b5b6118e260206117e8565b9050600082013567ffffffffffffffff81111561190257611901611803565b5b61190e84828501611894565b60008301525092915050565b600061192636836118c2565b9050919050565b7f4f776e61626c653a206e6577206f776e657220697320746865207a65726f206160008201527f6464726573730000000000000000000000000000000000000000000000000000602082015250565b6000611989602683610f1d565b91506119948261192d565b604082019050919050565b600060208201905081810360008301526119b88161197c565b9050919050565b7f4f776e61626c653a2063616c6c6572206973206e6f7420746865206f776e6572600082015250565b60006119f5602083610f1d565b9150611a00826119bf565b602082019050919050565b60006020820190508181036000830152611a24816119e8565b9050919050565b7f496e76616c6964206e6f6e636500000000000000000000000000000000000000600082015250565b6000611a61600d83610f1d565b9150611a6c82611a2b565b602082019050919050565b60006020820190508181036000830152611a9081611a54565b9050919050565b7f496e76616c6964207369676e6174757265000000000000000000000000000000600082015250565b6000611acd601183610f1d565b9150611ad882611a97565b602082019050919050565b60006020820190508181036000830152611afc81611ac0565b9050919050565b7f4e487b7100000000000000000000000000000000000000000000000000000000600052601160045260246000fd5b6000611b3d82611232565b91507fffffffffffffffffffffffffffffffffffffffffffffffffffffffffffffffff8203611b6f57611b6e611b03565b5b600182019050919050565b600081519050919050565b600081905092915050565b6000819050602082019050919050565b611ba9816110ae565b82525050565b6000611bbb8383611ba0565b60208301905092915050565b6000602082019050919050565b6000611bdf82611b7a565b611be98185611b85565b9350611bf483611b90565b8060005b83811015611c25578151611c0c8882611baf565b9750611c1783611bc7565b925050600181019050611bf8565b5085935050505092915050565b6000611c3e8284611bd4565b915081905092915050565b611c5281611338565b8114611c5d57600080fd5b50565b600081359050611c6f81611c49565b92915050565b600060208284031215611c8b57611c8a6110a4565b5b6000611c9984828501611c60565b91505092915050565b611cab8161135b565b8114611cb657600080fd5b50565b600081359050611cc881611ca2565b92915050565b600060208284031215611ce457611ce36110a4565b5b6000611cf284828501611cb9565b91505092915050565b611d04816110ae565b82525050565b611d1381611338565b82525050565b611d228161135b565b82525050565b600061012082019050611d3e600083018c611cfb565b611d4b602083018b611cfb565b611d58604083018a610ff6565b611d656060830189611d0a565b611d726080830188611d19565b611d7f60a0830187611cfb565b611d8c60c083018661123c565b611d9960e083018561123c565b611da761010083018461123c565b9a9950505050505050505050565b600081905092915050565b7f1901000000000000000000000000000000000000000000000000000000000000600082015250565b6000611df6600283611db5565b9150611e0182611dc0565b600282019050919050565b6000819050919050565b611e27611e22826110ae565b611e0c565b82525050565b6000611e3882611de9565b9150611e448285611e16565b602082019150611e548284611e16565b6020820191508190509392505050565b6000604082019050611e796000830185611cfb565b611e866020830184611cfb565b9392505050565b611e9681611109565b82525050565b6000608082019050611eb16000830187611cfb565b611ebe6020830186611e8d565b611ecb6040830185611cfb565b611ed86060830184611cfb565b95945050505050565b7f4e487b7100000000000000000000000000000000000000000000000000000000600052602160045260246000fd5b7f45434453413a20696e76616c6964207369676e61747572650000000000000000600082015250565b6000611f46601883610f1d565b9150611f5182611f10565b602082019050919050565b60006020820190508181036000830152611f7581611f39565b9050919050565b7f45434453413a20696e76616c6964207369676e6174757265206c656e67746800600082015250565b6000611fb2601f83610f1d565b9150611fbd82611f7c565b602082019050919050565b60006020820190508181036000830152611fe181611fa5565b9050919050565b7f45434453413a20696e76616c6964207369676e6174757265202773272076616c60008201527f7565000000000000000000000000000000000000000000000000000000000000602082015250565b6000612044602283610f1d565b915061204f82611fe8565b604082019050919050565b6000602082019050818103600083015261207381612037565b905091905056fea264697066735822122094b1b44b5aafde2b122be363e189bde31b655f38f51018a79207d488f136e57864736f6c63430008120033",
  "linkReferences": {},
  "deployedLinkReferences": {}
}