{
  "_format": "hh-sol-artifact-1",
  "contractName": "GitcoinResolver",
  "sourceName": "contracts/GitcoinResolver.sol",
  "abi": [
    {
      "inputs": [],
      "name": "AccessDenied",
      "type": "error"
    },
    {
      "inputs": [],
      "name": "InsufficientValue",
      "type": "error"
    },
    {
      "inputs": [],
      "name": "InvalidAttestationSchema",
      "type": "error"
    },
    {
      "inputs": [],
      "name": "InvalidEAS",
      "type": "error"
    },
    {
      "inputs": [],
      "name": "NotPayable",
      "type": "error"
    },
    {
      "anonymous": false,
      "inputs": [
        {
          "indexed": false,
          "internalType": "address",
          "name": "previousAdmin",
          "type": "address"
        },
        {
          "indexed": false,
          "internalType": "address",
          "name": "newAdmin",
          "type": "address"
        }
      ],
      "name": "AdminChanged",
      "type": "event"
    },
    {
      "anonymous": false,
      "inputs": [
        {
          "indexed": true,
          "internalType": "address",
          "name": "beacon",
          "type": "address"
        }
      ],
      "name": "BeaconUpgraded",
      "type": "event"
    },
    {
      "anonymous": false,
      "inputs": [
        {
          "indexed": false,
          "internalType": "uint8",
          "name": "version",
          "type": "uint8"
        }
      ],
      "name": "Initialized",
      "type": "event"
    },
    {
      "anonymous": false,
      "inputs": [
        {
          "indexed": true,
          "internalType": "address",
          "name": "previousOwner",
          "type": "address"
        },
        {
          "indexed": true,
          "internalType": "address",
          "name": "newOwner",
          "type": "address"
        }
      ],
      "name": "OwnershipTransferred",
      "type": "event"
    },
    {
      "anonymous": false,
      "inputs": [
        {
          "indexed": false,
          "internalType": "address",
          "name": "recipient",
          "type": "address"
        },
        {
          "indexed": false,
          "internalType": "bytes32",
          "name": "recipientUid",
          "type": "bytes32"
        }
      ],
      "name": "PassportAdded",
      "type": "event"
    },
    {
      "anonymous": false,
      "inputs": [
        {
          "indexed": false,
          "internalType": "address",
          "name": "recipient",
          "type": "address"
        },
        {
          "indexed": false,
          "internalType": "bytes32",
          "name": "recipientUid",
          "type": "bytes32"
        }
      ],
      "name": "PassportRemoved",
      "type": "event"
    },
    {
      "anonymous": false,
      "inputs": [
        {
          "indexed": false,
          "internalType": "address",
          "name": "account",
          "type": "address"
        }
      ],
      "name": "Paused",
      "type": "event"
    },
    {
      "anonymous": false,
      "inputs": [
        {
          "indexed": false,
          "internalType": "address",
          "name": "recipient",
          "type": "address"
        },
        {
          "indexed": false,
          "internalType": "bytes32",
          "name": "recipientUid",
          "type": "bytes32"
        }
      ],
      "name": "ScoreAdded",
      "type": "event"
    },
    {
      "anonymous": false,
      "inputs": [
        {
          "indexed": false,
          "internalType": "address",
          "name": "recipient",
          "type": "address"
        },
        {
          "indexed": false,
          "internalType": "bytes32",
          "name": "recipientUid",
          "type": "bytes32"
        }
      ],
      "name": "ScoreRemoved",
      "type": "event"
    },
    {
      "anonymous": false,
      "inputs": [
        {
          "indexed": false,
          "internalType": "address",
          "name": "account",
          "type": "address"
        }
      ],
      "name": "Unpaused",
      "type": "event"
    },
    {
      "anonymous": false,
      "inputs": [
        {
          "indexed": false,
          "internalType": "bytes32",
          "name": "passportSchema",
          "type": "bytes32"
        }
      ],
      "name": "UpdatedPassportSchema",
      "type": "event"
    },
    {
      "anonymous": false,
      "inputs": [
        {
          "indexed": false,
          "internalType": "bytes32",
          "name": "scoreSchema",
          "type": "bytes32"
        }
      ],
      "name": "UpdatedScoreSchema",
      "type": "event"
    },
    {
      "anonymous": false,
      "inputs": [
        {
          "indexed": true,
          "internalType": "address",
          "name": "implementation",
          "type": "address"
        }
      ],
      "name": "Upgraded",
      "type": "event"
    },
    {
      "inputs": [],
      "name": "_eas",
      "outputs": [
        {
          "internalType": "contract IEAS",
          "name": "",
          "type": "address"
        }
      ],
      "stateMutability": "view",
      "type": "function"
    },
    {
      "inputs": [],
      "name": "_gitcoinAttester",
      "outputs": [
        {
          "internalType": "contract GitcoinAttester",
          "name": "",
          "type": "address"
        }
      ],
      "stateMutability": "view",
      "type": "function"
    },
    {
      "inputs": [
        {
          "components": [
            {
              "internalType": "bytes32",
              "name": "uid",
              "type": "bytes32"
            },
            {
              "internalType": "bytes32",
              "name": "schema",
              "type": "bytes32"
            },
            {
              "internalType": "uint64",
              "name": "time",
              "type": "uint64"
            },
            {
              "internalType": "uint64",
              "name": "expirationTime",
              "type": "uint64"
            },
            {
              "internalType": "uint64",
              "name": "revocationTime",
              "type": "uint64"
            },
            {
              "internalType": "bytes32",
              "name": "refUID",
              "type": "bytes32"
            },
            {
              "internalType": "address",
              "name": "recipient",
              "type": "address"
            },
            {
              "internalType": "address",
              "name": "attester",
              "type": "address"
            },
            {
              "internalType": "bool",
              "name": "revocable",
              "type": "bool"
            },
            {
              "internalType": "bytes",
              "name": "data",
              "type": "bytes"
            }
          ],
          "internalType": "struct Attestation",
          "name": "attestation",
          "type": "tuple"
        }
      ],
      "name": "attest",
      "outputs": [
        {
          "internalType": "bool",
          "name": "",
          "type": "bool"
        }
      ],
      "stateMutability": "payable",
      "type": "function"
    },
    {
      "inputs": [
        {
          "internalType": "contract IEAS",
          "name": "eas",
          "type": "address"
        },
        {
          "internalType": "contract GitcoinAttester",
          "name": "gitcoinAttester",
          "type": "address"
        }
      ],
      "name": "initialize",
      "outputs": [],
      "stateMutability": "nonpayable",
      "type": "function"
    },
    {
      "inputs": [],
      "name": "isPayable",
      "outputs": [
        {
          "internalType": "bool",
          "name": "",
          "type": "bool"
        }
      ],
      "stateMutability": "pure",
      "type": "function"
    },
    {
      "inputs": [
        {
          "components": [
            {
              "internalType": "bytes32",
              "name": "uid",
              "type": "bytes32"
            },
            {
              "internalType": "bytes32",
              "name": "schema",
              "type": "bytes32"
            },
            {
              "internalType": "uint64",
              "name": "time",
              "type": "uint64"
            },
            {
              "internalType": "uint64",
              "name": "expirationTime",
              "type": "uint64"
            },
            {
              "internalType": "uint64",
              "name": "revocationTime",
              "type": "uint64"
            },
            {
              "internalType": "bytes32",
              "name": "refUID",
              "type": "bytes32"
            },
            {
              "internalType": "address",
              "name": "recipient",
              "type": "address"
            },
            {
              "internalType": "address",
              "name": "attester",
              "type": "address"
            },
            {
              "internalType": "bool",
              "name": "revocable",
              "type": "bool"
            },
            {
              "internalType": "bytes",
              "name": "data",
              "type": "bytes"
            }
          ],
          "internalType": "struct Attestation[]",
          "name": "attestations",
          "type": "tuple[]"
        },
        {
          "internalType": "uint256[]",
          "name": "",
          "type": "uint256[]"
        }
      ],
      "name": "multiAttest",
      "outputs": [
        {
          "internalType": "bool",
          "name": "",
          "type": "bool"
        }
      ],
      "stateMutability": "payable",
      "type": "function"
    },
    {
      "inputs": [
        {
          "components": [
            {
              "internalType": "bytes32",
              "name": "uid",
              "type": "bytes32"
            },
            {
              "internalType": "bytes32",
              "name": "schema",
              "type": "bytes32"
            },
            {
              "internalType": "uint64",
              "name": "time",
              "type": "uint64"
            },
            {
              "internalType": "uint64",
              "name": "expirationTime",
              "type": "uint64"
            },
            {
              "internalType": "uint64",
              "name": "revocationTime",
              "type": "uint64"
            },
            {
              "internalType": "bytes32",
              "name": "refUID",
              "type": "bytes32"
            },
            {
              "internalType": "address",
              "name": "recipient",
              "type": "address"
            },
            {
              "internalType": "address",
              "name": "attester",
              "type": "address"
            },
            {
              "internalType": "bool",
              "name": "revocable",
              "type": "bool"
            },
            {
              "internalType": "bytes",
              "name": "data",
              "type": "bytes"
            }
          ],
          "internalType": "struct Attestation[]",
          "name": "attestations",
          "type": "tuple[]"
        },
        {
          "internalType": "uint256[]",
          "name": "",
          "type": "uint256[]"
        }
      ],
      "name": "multiRevoke",
      "outputs": [
        {
          "internalType": "bool",
          "name": "",
          "type": "bool"
        }
      ],
      "stateMutability": "payable",
      "type": "function"
    },
    {
      "inputs": [],
      "name": "owner",
      "outputs": [
        {
          "internalType": "address",
          "name": "",
          "type": "address"
        }
      ],
      "stateMutability": "view",
      "type": "function"
    },
    {
      "inputs": [],
      "name": "passportSchema",
      "outputs": [
        {
          "internalType": "bytes32",
          "name": "",
          "type": "bytes32"
        }
      ],
      "stateMutability": "view",
      "type": "function"
    },
    {
      "inputs": [
        {
          "internalType": "address",
          "name": "",
          "type": "address"
        }
      ],
      "name": "passports",
      "outputs": [
        {
          "internalType": "bytes32",
          "name": "",
          "type": "bytes32"
        }
      ],
      "stateMutability": "view",
      "type": "function"
    },
    {
      "inputs": [],
      "name": "pause",
      "outputs": [],
      "stateMutability": "nonpayable",
      "type": "function"
    },
    {
      "inputs": [],
      "name": "paused",
      "outputs": [
        {
          "internalType": "bool",
          "name": "",
          "type": "bool"
        }
      ],
      "stateMutability": "view",
      "type": "function"
    },
    {
      "inputs": [],
      "name": "proxiableUUID",
      "outputs": [
        {
          "internalType": "bytes32",
          "name": "",
          "type": "bytes32"
        }
      ],
      "stateMutability": "view",
      "type": "function"
    },
    {
      "inputs": [],
      "name": "renounceOwnership",
      "outputs": [],
      "stateMutability": "nonpayable",
      "type": "function"
    },
    {
      "inputs": [
        {
          "components": [
            {
              "internalType": "bytes32",
              "name": "uid",
              "type": "bytes32"
            },
            {
              "internalType": "bytes32",
              "name": "schema",
              "type": "bytes32"
            },
            {
              "internalType": "uint64",
              "name": "time",
              "type": "uint64"
            },
            {
              "internalType": "uint64",
              "name": "expirationTime",
              "type": "uint64"
            },
            {
              "internalType": "uint64",
              "name": "revocationTime",
              "type": "uint64"
            },
            {
              "internalType": "bytes32",
              "name": "refUID",
              "type": "bytes32"
            },
            {
              "internalType": "address",
              "name": "recipient",
              "type": "address"
            },
            {
              "internalType": "address",
              "name": "attester",
              "type": "address"
            },
            {
              "internalType": "bool",
              "name": "revocable",
              "type": "bool"
            },
            {
              "internalType": "bytes",
              "name": "data",
              "type": "bytes"
            }
          ],
          "internalType": "struct Attestation",
          "name": "attestation",
          "type": "tuple"
        }
      ],
      "name": "revoke",
      "outputs": [
        {
          "internalType": "bool",
          "name": "",
          "type": "bool"
        }
      ],
      "stateMutability": "payable",
      "type": "function"
    },
    {
      "inputs": [],
      "name": "scoreSchema",
      "outputs": [
        {
          "internalType": "bytes32",
          "name": "",
          "type": "bytes32"
        }
      ],
      "stateMutability": "view",
      "type": "function"
    },
    {
      "inputs": [
        {
          "internalType": "address",
          "name": "",
          "type": "address"
        }
      ],
      "name": "scores",
      "outputs": [
        {
          "internalType": "bytes32",
          "name": "",
          "type": "bytes32"
        }
      ],
      "stateMutability": "view",
      "type": "function"
    },
    {
      "inputs": [
        {
          "internalType": "bytes32",
          "name": "_passportSchema",
          "type": "bytes32"
        }
      ],
      "name": "setPassportSchema",
      "outputs": [],
      "stateMutability": "nonpayable",
      "type": "function"
    },
    {
      "inputs": [
        {
          "internalType": "bytes32",
          "name": "_scoreSchema",
          "type": "bytes32"
        }
      ],
      "name": "setScoreSchema",
      "outputs": [],
      "stateMutability": "nonpayable",
      "type": "function"
    },
    {
      "inputs": [
        {
          "internalType": "address",
          "name": "newOwner",
          "type": "address"
        }
      ],
      "name": "transferOwnership",
      "outputs": [],
      "stateMutability": "nonpayable",
      "type": "function"
    },
    {
      "inputs": [],
      "name": "unpause",
      "outputs": [],
      "stateMutability": "nonpayable",
      "type": "function"
    },
    {
      "inputs": [
        {
          "internalType": "address",
          "name": "newImplementation",
          "type": "address"
        }
      ],
      "name": "upgradeTo",
      "outputs": [],
      "stateMutability": "nonpayable",
      "type": "function"
    },
    {
      "inputs": [
        {
          "internalType": "address",
          "name": "newImplementation",
          "type": "address"
        },
        {
          "internalType": "bytes",
          "name": "data",
          "type": "bytes"
        }
      ],
      "name": "upgradeToAndCall",
      "outputs": [],
      "stateMutability": "payable",
      "type": "function"
    }
  ],
  "bytecode": "0x60a06040523073ffffffffffffffffffffffffffffffffffffffff1660809073ffffffffffffffffffffffffffffffffffffffff1681525034801561004357600080fd5b50608051612ddd61007b600039600081816105760152818161060401528181610940015281816109ce0152610a7e0152612ddd6000f3fe6080604052600436106101405760003560e01c806388e5b2d9116100b6578063c927ee371161006f578063c927ee37146103eb578063ce46e04614610414578063e37c132b1461043f578063e49617e11461047c578063e60c3505146104ac578063f2fde38b146104dc57610140565b806388e5b2d9146102df5780638adcb6041461030f5780638c0a485c1461033a5780638da5cb5b1461036557806391db0b7e14610390578063b6b1a9b7146103c057610140565b80634f1ef286116101085780634f1ef2861461020257806352d1902d1461021e5780635c975abb14610249578063715018a61461027457806376dd110f1461028b5780638456cb59146102c857610140565b80630f0ddf471461014557806330f97eea1461016e5780633659cfe6146101995780633f4ba83a146101c2578063485cc955146101d9575b600080fd5b34801561015157600080fd5b5061016c60048036038101906101679190611db1565b610505565b005b34801561017a57600080fd5b5061018361054e565b6040516101909190611e5d565b60405180910390f35b3480156101a557600080fd5b506101c060048036038101906101bb9190611eb6565b610574565b005b3480156101ce57600080fd5b506101d76106fc565b005b3480156101e557600080fd5b5061020060048036038101906101fb9190611f5f565b61070e565b005b61021c600480360381019061021791906120e5565b61093e565b005b34801561022a57600080fd5b50610233610a7a565b6040516102409190612150565b60405180910390f35b34801561025557600080fd5b5061025e610b33565b60405161026b9190612186565b60405180910390f35b34801561028057600080fd5b50610289610b4a565b005b34801561029757600080fd5b506102b260048036038101906102ad9190611eb6565b610b5e565b6040516102bf9190612150565b60405180910390f35b3480156102d457600080fd5b506102dd610b76565b005b6102f960048036038101906102f49190612257565b610b88565b6040516103069190612186565b60405180910390f35b34801561031b57600080fd5b50610324610c76565b6040516103319190612150565b60405180910390f35b34801561034657600080fd5b5061034f610c7c565b60405161035c91906122f9565b60405180910390f35b34801561037157600080fd5b5061037a610ca2565b6040516103879190612323565b60405180910390f35b6103aa60048036038101906103a59190612257565b610ccc565b6040516103b79190612186565b60405180910390f35b3480156103cc57600080fd5b506103d5610dba565b6040516103e29190612150565b60405180910390f35b3480156103f757600080fd5b50610412600480360381019061040d9190611db1565b610dc0565b005b34801561042057600080fd5b50610429610e09565b6040516104369190612186565b60405180910390f35b34801561044b57600080fd5b5061046660048036038101906104619190611eb6565b610e0e565b6040516104739190612150565b60405180910390f35b61049660048036038101906104919190612363565b610e26565b6040516104a39190612186565b60405180910390f35b6104c660048036038101906104c19190612363565b610ed0565b6040516104d39190612186565b60405180910390f35b3480156104e857600080fd5b5061050360048036038101906104fe9190611eb6565b610f7a565b005b61050d610ffd565b80609b819055507f8260db1b5339e74fbb369004f20ecbf50bde5406b4019bfc369c1ee4661e4c4c816040516105439190612150565b60405180910390a150565b609960009054906101000a900473ffffffffffffffffffffffffffffffffffffffff1681565b7f000000000000000000000000000000000000000000000000000000000000000073ffffffffffffffffffffffffffffffffffffffff163073ffffffffffffffffffffffffffffffffffffffff1603610602576040517f08c379a00000000000000000000000000000000000000000000000000000000081526004016105f99061242f565b60405180910390fd5b7f000000000000000000000000000000000000000000000000000000000000000073ffffffffffffffffffffffffffffffffffffffff1661064161107b565b73ffffffffffffffffffffffffffffffffffffffff1614610697576040517f08c379a000000000000000000000000000000000000000000000000000000000815260040161068e906124c1565b60405180910390fd5b6106a0816110d2565b6106f981600067ffffffffffffffff8111156106bf576106be611fba565b5b6040519080825280601f01601f1916602001820160405280156106f15781602001600182028036833780820191505090505b5060006110dd565b50565b610704610ffd565b61070c61124b565b565b60008060019054906101000a900460ff1615905080801561073f5750600160008054906101000a900460ff1660ff16105b8061076c575061074e306112ae565b15801561076b5750600160008054906101000a900460ff1660ff16145b5b6107ab576040517f08c379a00000000000000000000000000000000000000000000000000000000081526004016107a290612553565b60405180910390fd5b60016000806101000a81548160ff021916908360ff16021790555080156107e8576001600060016101000a81548160ff0219169083151502179055505b6107f06112d1565b6107f861132a565b600073ffffffffffffffffffffffffffffffffffffffff168373ffffffffffffffffffffffffffffffffffffffff160361085e576040517f83780ffe00000000000000000000000000000000000000000000000000000000815260040160405180910390fd5b82609960006101000a81548173ffffffffffffffffffffffffffffffffffffffff021916908373ffffffffffffffffffffffffffffffffffffffff16021790555081609a60006101000a81548173ffffffffffffffffffffffffffffffffffffffff021916908373ffffffffffffffffffffffffffffffffffffffff16021790555080156109395760008060016101000a81548160ff0219169083151502179055507f7f26b83ff96e1f2b6a682f133852f6798a09c465da95921460cefb3847402498600160405161093091906125bb565b60405180910390a15b505050565b7f000000000000000000000000000000000000000000000000000000000000000073ffffffffffffffffffffffffffffffffffffffff163073ffffffffffffffffffffffffffffffffffffffff16036109cc576040517f08c379a00000000000000000000000000000000000000000000000000000000081526004016109c39061242f565b60405180910390fd5b7f000000000000000000000000000000000000000000000000000000000000000073ffffffffffffffffffffffffffffffffffffffff16610a0b61107b565b73ffffffffffffffffffffffffffffffffffffffff1614610a61576040517f08c379a0000000000000000000000000000000000000000000000000000000008152600401610a58906124c1565b60405180910390fd5b610a6a826110d2565b610a76828260016110dd565b5050565b60007f000000000000000000000000000000000000000000000000000000000000000073ffffffffffffffffffffffffffffffffffffffff163073ffffffffffffffffffffffffffffffffffffffff1614610b0a576040517f08c379a0000000000000000000000000000000000000000000000000000000008152600401610b0190612648565b60405180910390fd5b7f360894a13ba1a3210667c828492db98dca3e2076cc3735a920a3ca505d382bbc60001b905090565b6000606560009054906101000a900460ff16905090565b610b52610ffd565b610b5c6000611383565b565b60986020528060005260406000206000915090505481565b610b7e610ffd565b610b86611449565b565b6000610b926114ac565b609960009054906101000a900473ffffffffffffffffffffffffffffffffffffffff1673ffffffffffffffffffffffffffffffffffffffff163373ffffffffffffffffffffffffffffffffffffffff1614610c22576040517f08c379a0000000000000000000000000000000000000000000000000000000008152600401610c19906126b4565b60405180910390fd5b60005b85859050811015610c6957610c5d868683818110610c4657610c456126d4565b5b9050602002810190610c589190612708565b6114f6565b50806001019050610c25565b5060019050949350505050565b609b5481565b609a60009054906101000a900473ffffffffffffffffffffffffffffffffffffffff1681565b6000603360009054906101000a900473ffffffffffffffffffffffffffffffffffffffff16905090565b6000610cd66114ac565b609960009054906101000a900473ffffffffffffffffffffffffffffffffffffffff1673ffffffffffffffffffffffffffffffffffffffff163373ffffffffffffffffffffffffffffffffffffffff1614610d66576040517f08c379a0000000000000000000000000000000000000000000000000000000008152600401610d5d906126b4565b60405180910390fd5b60005b85859050811015610dad57610da1868683818110610d8a57610d896126d4565b5b9050602002810190610d9c9190612708565b611710565b50806001019050610d69565b5060019050949350505050565b609c5481565b610dc8610ffd565b80609c819055507f71d9b6d94d17791a140a952650fb715f97cbc401c49c7cc7700184612a9e539d81604051610dfe9190612150565b60405180910390a150565b600090565b60976020528060005260406000206000915090505481565b6000610e306114ac565b609960009054906101000a900473ffffffffffffffffffffffffffffffffffffffff1673ffffffffffffffffffffffffffffffffffffffff163373ffffffffffffffffffffffffffffffffffffffff1614610ec0576040517f08c379a0000000000000000000000000000000000000000000000000000000008152600401610eb7906126b4565b60405180910390fd5b610ec9826114f6565b9050919050565b6000610eda6114ac565b609960009054906101000a900473ffffffffffffffffffffffffffffffffffffffff1673ffffffffffffffffffffffffffffffffffffffff163373ffffffffffffffffffffffffffffffffffffffff1614610f6a576040517f08c379a0000000000000000000000000000000000000000000000000000000008152600401610f61906126b4565b60405180910390fd5b610f7382611710565b9050919050565b610f82610ffd565b600073ffffffffffffffffffffffffffffffffffffffff168173ffffffffffffffffffffffffffffffffffffffff1603610ff1576040517f08c379a0000000000000000000000000000000000000000000000000000000008152600401610fe8906127a3565b60405180910390fd5b610ffa81611383565b50565b611005611966565b73ffffffffffffffffffffffffffffffffffffffff16611023610ca2565b73ffffffffffffffffffffffffffffffffffffffff1614611079576040517f08c379a00000000000000000000000000000000000000000000000000000000081526004016110709061280f565b60405180910390fd5b565b60006110a97f360894a13ba1a3210667c828492db98dca3e2076cc3735a920a3ca505d382bbc60001b61196e565b60000160009054906101000a900473ffffffffffffffffffffffffffffffffffffffff16905090565b6110da610ffd565b50565b6111097f4910fdfa16fed3260ed0e7147f7cc6da11a60208b5b9406d12a635614ffd914360001b611978565b60000160009054906101000a900460ff161561112d5761112883611982565b611246565b8273ffffffffffffffffffffffffffffffffffffffff166352d1902d6040518163ffffffff1660e01b8152600401602060405180830381865afa92505050801561119557506040513d601f19601f820116820180604052508101906111929190612844565b60015b6111d4576040517f08c379a00000000000000000000000000000000000000000000000000000000081526004016111cb906128e3565b60405180910390fd5b7f360894a13ba1a3210667c828492db98dca3e2076cc3735a920a3ca505d382bbc60001b8114611239576040517f08c379a000000000000000000000000000000000000000000000000000000000815260040161123090612975565b60405180910390fd5b50611245838383611a3b565b5b505050565b611253611a67565b6000606560006101000a81548160ff0219169083151502179055507f5db9ee0a495bf2e6ff9c91a7834c1ba4fdd244a5e8aa4e537bd38aeae4b073aa611297611966565b6040516112a49190612323565b60405180910390a1565b6000808273ffffffffffffffffffffffffffffffffffffffff163b119050919050565b600060019054906101000a900460ff16611320576040517f08c379a000000000000000000000000000000000000000000000000000000000815260040161131790612a07565b60405180910390fd5b611328611ab0565b565b600060019054906101000a900460ff16611379576040517f08c379a000000000000000000000000000000000000000000000000000000000815260040161137090612a07565b60405180910390fd5b611381611b11565b565b6000603360009054906101000a900473ffffffffffffffffffffffffffffffffffffffff16905081603360006101000a81548173ffffffffffffffffffffffffffffffffffffffff021916908373ffffffffffffffffffffffffffffffffffffffff1602179055508173ffffffffffffffffffffffffffffffffffffffff168173ffffffffffffffffffffffffffffffffffffffff167f8be0079c531659141344cd1fd0a4f28419497f9722a3daafe3b4186f6b6457e060405160405180910390a35050565b6114516114ac565b6001606560006101000a81548160ff0219169083151502179055507f62e78cea01bee320cd4e420270b5ea74000d11b0c9f74754ebdbfc544b05a258611495611966565b6040516114a29190612323565b60405180910390a1565b6114b4610b33565b156114f4576040517f08c379a00000000000000000000000000000000000000000000000000000000081526004016114eb90612a73565b60405180910390fd5b565b60008160000135609760008460c00160208101906115149190611eb6565b73ffffffffffffffffffffffffffffffffffffffff1673ffffffffffffffffffffffffffffffffffffffff1681526020019081526020016000205403611601576000801b609760008460c001602081019061156f9190611eb6565b73ffffffffffffffffffffffffffffffffffffffff1673ffffffffffffffffffffffffffffffffffffffff168152602001908152602001600020819055507f867a983caee4a85b4457f8e73f5a1a417432abbc3358c8340b02c96694922c578260c00160208101906115e19190611eb6565b83600001356040516115f4929190612a93565b60405180910390a1611707565b8160000135609860008460c001602081019061161d9190611eb6565b73ffffffffffffffffffffffffffffffffffffffff1673ffffffffffffffffffffffffffffffffffffffff1681526020019081526020016000205403611706576000801b609860008460c00160208101906116789190611eb6565b73ffffffffffffffffffffffffffffffffffffffff1673ffffffffffffffffffffffffffffffffffffffff168152602001908152602001600020819055507f24909ec60b28ed4bae0f819b5c7c25fee9c5e404d7d5a491960b2b0f739ab5c58260c00160208101906116ea9190611eb6565b83600001356040516116fd929190612a93565b60405180910390a15b5b60019050919050565b6000609a60009054906101000a900473ffffffffffffffffffffffffffffffffffffffff1673ffffffffffffffffffffffffffffffffffffffff168260e001602081019061175e9190611eb6565b73ffffffffffffffffffffffffffffffffffffffff16146117b4576040517f08c379a00000000000000000000000000000000000000000000000000000000081526004016117ab90612b08565b60405180910390fd5b609b5482602001350361186f578160000135609760008460c00160208101906117dd9190611eb6565b73ffffffffffffffffffffffffffffffffffffffff1673ffffffffffffffffffffffffffffffffffffffff168152602001908152602001600020819055507fefe95a45044ec6f69409de9ba4efe7d264f2f69ee2a81c49b9a662361c662a668260c001602081019061184f9190611eb6565b8360000135604051611862929190612a93565b60405180910390a161195d565b609c5482602001350361192a578160000135609860008460c00160208101906118989190611eb6565b73ffffffffffffffffffffffffffffffffffffffff1673ffffffffffffffffffffffffffffffffffffffff168152602001908152602001600020819055507fa44b249e297e43b318a081e6f483485db8bf9fd114cf3319fc0c1c27e081b0368260c001602081019061190a9190611eb6565b836000013560405161191d929190612a93565b60405180910390a161195c565b6040517f5c85da7200000000000000000000000000000000000000000000000000000000815260040160405180910390fd5b5b60019050919050565b600033905090565b6000819050919050565b6000819050919050565b61198b81611b7d565b6119ca576040517f08c379a00000000000000000000000000000000000000000000000000000000081526004016119c190612b9a565b60405180910390fd5b806119f77f360894a13ba1a3210667c828492db98dca3e2076cc3735a920a3ca505d382bbc60001b61196e565b60000160006101000a81548173ffffffffffffffffffffffffffffffffffffffff021916908373ffffffffffffffffffffffffffffffffffffffff16021790555050565b611a4483611ba0565b600082511180611a515750805b15611a6257611a608383611bef565b505b505050565b611a6f610b33565b611aae576040517f08c379a0000000000000000000000000000000000000000000000000000000008152600401611aa590612c06565b60405180910390fd5b565b600060019054906101000a900460ff16611aff576040517f08c379a0000000000000000000000000000000000000000000000000000000008152600401611af690612a07565b60405180910390fd5b611b0f611b0a611966565b611383565b565b600060019054906101000a900460ff16611b60576040517f08c379a0000000000000000000000000000000000000000000000000000000008152600401611b5790612a07565b60405180910390fd5b6000606560006101000a81548160ff021916908315150217905550565b6000808273ffffffffffffffffffffffffffffffffffffffff163b119050919050565b611ba981611982565b8073ffffffffffffffffffffffffffffffffffffffff167fbc7cd75a20ee27fd9adebab32041f755214dbc6bffa90cc0225b39da2e5c2d3b60405160405180910390a250565b6060611c148383604051806060016040528060278152602001612d8160279139611c1c565b905092915050565b60606000808573ffffffffffffffffffffffffffffffffffffffff1685604051611c469190612c97565b600060405180830381855af49150503d8060008114611c81576040519150601f19603f3d011682016040523d82523d6000602084013e611c86565b606091505b5091509150611c9786838387611ca2565b925050509392505050565b60608315611d04576000835103611cfc57611cbc85611b7d565b611cfb576040517f08c379a0000000000000000000000000000000000000000000000000000000008152600401611cf290612cfa565b60405180910390fd5b5b829050611d0f565b611d0e8383611d17565b5b949350505050565b600082511115611d2a5781518083602001fd5b806040517f08c379a0000000000000000000000000000000000000000000000000000000008152600401611d5e9190612d5e565b60405180910390fd5b6000604051905090565b600080fd5b600080fd5b6000819050919050565b611d8e81611d7b565b8114611d9957600080fd5b50565b600081359050611dab81611d85565b92915050565b600060208284031215611dc757611dc6611d71565b5b6000611dd584828501611d9c565b91505092915050565b600073ffffffffffffffffffffffffffffffffffffffff82169050919050565b6000819050919050565b6000611e23611e1e611e1984611dde565b611dfe565b611dde565b9050919050565b6000611e3582611e08565b9050919050565b6000611e4782611e2a565b9050919050565b611e5781611e3c565b82525050565b6000602082019050611e726000830184611e4e565b92915050565b6000611e8382611dde565b9050919050565b611e9381611e78565b8114611e9e57600080fd5b50565b600081359050611eb081611e8a565b92915050565b600060208284031215611ecc57611ecb611d71565b5b6000611eda84828501611ea1565b91505092915050565b6000611eee82611e78565b9050919050565b611efe81611ee3565b8114611f0957600080fd5b50565b600081359050611f1b81611ef5565b92915050565b6000611f2c82611e78565b9050919050565b611f3c81611f21565b8114611f4757600080fd5b50565b600081359050611f5981611f33565b92915050565b60008060408385031215611f7657611f75611d71565b5b6000611f8485828601611f0c565b9250506020611f9585828601611f4a565b9150509250929050565b600080fd5b600080fd5b6000601f19601f8301169050919050565b7f4e487b7100000000000000000000000000000000000000000000000000000000600052604160045260246000fd5b611ff282611fa9565b810181811067ffffffffffffffff8211171561201157612010611fba565b5b80604052505050565b6000612024611d67565b90506120308282611fe9565b919050565b600067ffffffffffffffff8211156120505761204f611fba565b5b61205982611fa9565b9050602081019050919050565b82818337600083830152505050565b600061208861208384612035565b61201a565b9050828152602081018484840111156120a4576120a3611fa4565b5b6120af848285612066565b509392505050565b600082601f8301126120cc576120cb611f9f565b5b81356120dc848260208601612075565b91505092915050565b600080604083850312156120fc576120fb611d71565b5b600061210a85828601611ea1565b925050602083013567ffffffffffffffff81111561212b5761212a611d76565b5b612137858286016120b7565b9150509250929050565b61214a81611d7b565b82525050565b60006020820190506121656000830184612141565b92915050565b60008115159050919050565b6121808161216b565b82525050565b600060208201905061219b6000830184612177565b92915050565b600080fd5b600080fd5b60008083601f8401126121c1576121c0611f9f565b5b8235905067ffffffffffffffff8111156121de576121dd6121a1565b5b6020830191508360208202830111156121fa576121f96121a6565b5b9250929050565b60008083601f84011261221757612216611f9f565b5b8235905067ffffffffffffffff811115612234576122336121a1565b5b6020830191508360208202830111156122505761224f6121a6565b5b9250929050565b6000806000806040858703121561227157612270611d71565b5b600085013567ffffffffffffffff81111561228f5761228e611d76565b5b61229b878288016121ab565b9450945050602085013567ffffffffffffffff8111156122be576122bd611d76565b5b6122ca87828801612201565b925092505092959194509250565b60006122e382611e2a565b9050919050565b6122f3816122d8565b82525050565b600060208201905061230e60008301846122ea565b92915050565b61231d81611e78565b82525050565b60006020820190506123386000830184612314565b92915050565b600080fd5b6000610140828403121561235a5761235961233e565b5b81905092915050565b60006020828403121561237957612378611d71565b5b600082013567ffffffffffffffff81111561239757612396611d76565b5b6123a384828501612343565b91505092915050565b600082825260208201905092915050565b7f46756e6374696f6e206d7573742062652063616c6c6564207468726f7567682060008201527f64656c656761746563616c6c0000000000000000000000000000000000000000602082015250565b6000612419602c836123ac565b9150612424826123bd565b604082019050919050565b600060208201905081810360008301526124488161240c565b9050919050565b7f46756e6374696f6e206d7573742062652063616c6c6564207468726f7567682060008201527f6163746976652070726f78790000000000000000000000000000000000000000602082015250565b60006124ab602c836123ac565b91506124b68261244f565b604082019050919050565b600060208201905081810360008301526124da8161249e565b9050919050565b7f496e697469616c697a61626c653a20636f6e747261637420697320616c72656160008201527f647920696e697469616c697a6564000000000000000000000000000000000000602082015250565b600061253d602e836123ac565b9150612548826124e1565b604082019050919050565b6000602082019050818103600083015261256c81612530565b9050919050565b6000819050919050565b600060ff82169050919050565b60006125a56125a061259b84612573565b611dfe565b61257d565b9050919050565b6125b58161258a565b82525050565b60006020820190506125d060008301846125ac565b92915050565b7f555550535570677261646561626c653a206d757374206e6f742062652063616c60008201527f6c6564207468726f7567682064656c656761746563616c6c0000000000000000602082015250565b60006126326038836123ac565b915061263d826125d6565b604082019050919050565b6000602082019050818103600083015261266181612625565b9050919050565b7f4f6e6c79204541532063616e2063616c6c20746869732066756e6374696f6e00600082015250565b600061269e601f836123ac565b91506126a982612668565b602082019050919050565b600060208201905081810360008301526126cd81612691565b9050919050565b7f4e487b7100000000000000000000000000000000000000000000000000000000600052603260045260246000fd5b600080fd5b6000823560016101400383360303811261272557612724612703565b5b80830191505092915050565b7f4f776e61626c653a206e6577206f776e657220697320746865207a65726f206160008201527f6464726573730000000000000000000000000000000000000000000000000000602082015250565b600061278d6026836123ac565b915061279882612731565b604082019050919050565b600060208201905081810360008301526127bc81612780565b9050919050565b7f4f776e61626c653a2063616c6c6572206973206e6f7420746865206f776e6572600082015250565b60006127f96020836123ac565b9150612804826127c3565b602082019050919050565b60006020820190508181036000830152612828816127ec565b9050919050565b60008151905061283e81611d85565b92915050565b60006020828403121561285a57612859611d71565b5b60006128688482850161282f565b91505092915050565b7f45524331393637557067726164653a206e657720696d706c656d656e7461746960008201527f6f6e206973206e6f742055555053000000000000000000000000000000000000602082015250565b60006128cd602e836123ac565b91506128d882612871565b604082019050919050565b600060208201905081810360008301526128fc816128c0565b9050919050565b7f45524331393637557067726164653a20756e737570706f727465642070726f7860008201527f6961626c65555549440000000000000000000000000000000000000000000000602082015250565b600061295f6029836123ac565b915061296a82612903565b604082019050919050565b6000602082019050818103600083015261298e81612952565b9050919050565b7f496e697469616c697a61626c653a20636f6e7472616374206973206e6f74206960008201527f6e697469616c697a696e67000000000000000000000000000000000000000000602082015250565b60006129f1602b836123ac565b91506129fc82612995565b604082019050919050565b60006020820190508181036000830152612a20816129e4565b9050919050565b7f5061757361626c653a2070617573656400000000000000000000000000000000600082015250565b6000612a5d6010836123ac565b9150612a6882612a27565b602082019050919050565b60006020820190508181036000830152612a8c81612a50565b9050919050565b6000604082019050612aa86000830185612314565b612ab56020830184612141565b9392505050565b7f496e76616c696420617474657374657200000000000000000000000000000000600082015250565b6000612af26010836123ac565b9150612afd82612abc565b602082019050919050565b60006020820190508181036000830152612b2181612ae5565b9050919050565b7f455243313936373a206e657720696d706c656d656e746174696f6e206973206e60008201527f6f74206120636f6e747261637400000000000000000000000000000000000000602082015250565b6000612b84602d836123ac565b9150612b8f82612b28565b604082019050919050565b60006020820190508181036000830152612bb381612b77565b9050919050565b7f5061757361626c653a206e6f7420706175736564000000000000000000000000600082015250565b6000612bf06014836123ac565b9150612bfb82612bba565b602082019050919050565b60006020820190508181036000830152612c1f81612be3565b9050919050565b600081519050919050565b600081905092915050565b60005b83811015612c5a578082015181840152602081019050612c3f565b60008484015250505050565b6000612c7182612c26565b612c7b8185612c31565b9350612c8b818560208601612c3c565b80840191505092915050565b6000612ca38284612c66565b915081905092915050565b7f416464726573733a2063616c6c20746f206e6f6e2d636f6e7472616374000000600082015250565b6000612ce4601d836123ac565b9150612cef82612cae565b602082019050919050565b60006020820190508181036000830152612d1381612cd7565b9050919050565b600081519050919050565b6000612d3082612d1a565b612d3a81856123ac565b9350612d4a818560208601612c3c565b612d5381611fa9565b840191505092915050565b60006020820190508181036000830152612d788184612d25565b90509291505056fe416464726573733a206c6f772d6c6576656c2064656c65676174652063616c6c206661696c6564a264697066735822122016ef092740d04d31feb5fbeaa7e887bf5aaf1825e0e4e6eb64f1af4b15ae472064736f6c63430008130033",
  "linkReferences": {},
  "deployedLinkReferences": {}
}