{
  "_format": "hh-sol-artifact-1",
  "contractName": "GitcoinAttester",
  "sourceName": "contracts/GitcoinAttester.sol",
  "abi": [
    {
      "inputs": [
        {
          "internalType": "address",
          "name": "iamIssuer",
          "type": "address"
        }
      ],
      "stateMutability": "payable",
      "type": "constructor"
    },
    {
      "inputs": [],
      "name": "DOMAIN_SEPARATOR",
      "outputs": [
        {
          "internalType": "bytes32",
          "name": "",
          "type": "bytes32"
        }
      ],
      "stateMutability": "view",
      "type": "function"
    },
    {
      "inputs": [
        {
          "internalType": "bytes32",
          "name": "schema",
          "type": "bytes32"
        },
        {
          "components": [
            {
              "internalType": "address",
              "name": "recipient",
              "type": "address"
            },
            {
              "internalType": "uint64",
              "name": "expirationTime",
              "type": "uint64"
            },
            {
              "internalType": "bool",
              "name": "revocable",
              "type": "bool"
            },
            {
              "internalType": "bytes32",
              "name": "refUID",
              "type": "bytes32"
            },
            {
              "internalType": "bytes",
              "name": "data",
              "type": "bytes"
            },
            {
              "internalType": "uint256",
              "name": "value",
              "type": "uint256"
            }
          ],
          "internalType": "struct AttestationRequestData[]",
          "name": "attestationRequestData",
          "type": "tuple[]"
        }
      ],
      "name": "addPassport",
      "outputs": [
        {
          "internalType": "bytes32[]",
          "name": "",
          "type": "bytes32[]"
        }
      ],
      "stateMutability": "payable",
      "type": "function"
    },
    {
      "inputs": [
        {
          "internalType": "bytes32",
          "name": "schema",
          "type": "bytes32"
        },
        {
          "components": [
            {
              "components": [
                {
                  "internalType": "string",
                  "name": "provider",
                  "type": "string"
                },
                {
                  "internalType": "string",
                  "name": "stampHash",
                  "type": "string"
                },
                {
                  "internalType": "string",
                  "name": "expirationDate",
                  "type": "string"
                },
                {
                  "internalType": "bytes",
                  "name": "encodedData",
                  "type": "bytes"
                }
              ],
              "internalType": "struct Stamp[]",
              "name": "stamps",
              "type": "tuple[]"
            },
            {
              "internalType": "address",
              "name": "recipient",
              "type": "address"
            },
            {
              "internalType": "uint64",
              "name": "expirationTime",
              "type": "uint64"
            },
            {
              "internalType": "bool",
              "name": "revocable",
              "type": "bool"
            },
            {
              "internalType": "bytes32",
              "name": "refUID",
              "type": "bytes32"
            },
            {
              "internalType": "uint256",
              "name": "value",
              "type": "uint256"
            }
          ],
          "internalType": "struct Passport",
          "name": "passport",
          "type": "tuple"
        },
        {
          "internalType": "uint8",
          "name": "v",
          "type": "uint8"
        },
        {
          "internalType": "bytes32",
          "name": "r",
          "type": "bytes32"
        },
        {
          "internalType": "bytes32",
          "name": "s",
          "type": "bytes32"
        }
      ],
      "name": "addPassportWithSignature",
      "outputs": [
        {
          "internalType": "bytes32[]",
          "name": "",
          "type": "bytes32[]"
        }
      ],
      "stateMutability": "payable",
      "type": "function"
    },
    {
      "inputs": [
        {
          "internalType": "bytes32",
          "name": "uid",
          "type": "bytes32"
        }
      ],
      "name": "getAttestation",
      "outputs": [
        {
          "components": [
            {
              "internalType": "bytes32",
              "name": "uid",
              "type": "bytes32"
            },
            {
              "internalType": "bytes32",
              "name": "schema",
              "type": "bytes32"
            },
            {
              "internalType": "uint64",
              "name": "time",
              "type": "uint64"
            },
            {
              "internalType": "uint64",
              "name": "expirationTime",
              "type": "uint64"
            },
            {
              "internalType": "uint64",
              "name": "revocationTime",
              "type": "uint64"
            },
            {
              "internalType": "bytes32",
              "name": "refUID",
              "type": "bytes32"
            },
            {
              "internalType": "address",
              "name": "recipient",
              "type": "address"
            },
            {
              "internalType": "address",
              "name": "attester",
              "type": "address"
            },
            {
              "internalType": "bool",
              "name": "revocable",
              "type": "bool"
            },
            {
              "internalType": "bytes",
              "name": "data",
              "type": "bytes"
            }
          ],
          "internalType": "struct Attestation",
          "name": "",
          "type": "tuple"
        }
      ],
      "stateMutability": "view",
      "type": "function"
    },
    {
      "inputs": [],
      "name": "getChainId",
      "outputs": [
        {
          "internalType": "uint256",
          "name": "",
          "type": "uint256"
        }
      ],
      "stateMutability": "view",
      "type": "function"
    },
    {
      "inputs": [],
      "name": "issuer",
      "outputs": [
        {
          "internalType": "address",
          "name": "",
          "type": "address"
        }
      ],
      "stateMutability": "view",
      "type": "function"
    },
    {
      "inputs": [],
      "name": "name",
      "outputs": [
        {
          "internalType": "string",
          "name": "",
          "type": "string"
        }
      ],
      "stateMutability": "view",
      "type": "function"
    },
    {
      "inputs": [
        {
          "internalType": "address",
          "name": "_easContractAddress",
          "type": "address"
        }
      ],
      "name": "setEASAddress",
      "outputs": [],
      "stateMutability": "nonpayable",
      "type": "function"
    },
    {
      "inputs": [
        {
          "internalType": "uint8",
          "name": "v",
          "type": "uint8"
        },
        {
          "internalType": "bytes32",
          "name": "r",
          "type": "bytes32"
        },
        {
          "internalType": "bytes32",
          "name": "s",
          "type": "bytes32"
        },
        {
          "components": [
            {
              "components": [
                {
                  "internalType": "string",
                  "name": "provider",
                  "type": "string"
                },
                {
                  "internalType": "string",
                  "name": "stampHash",
                  "type": "string"
                },
                {
                  "internalType": "string",
                  "name": "expirationDate",
                  "type": "string"
                },
                {
                  "internalType": "bytes",
                  "name": "encodedData",
                  "type": "bytes"
                }
              ],
              "internalType": "struct Stamp[]",
              "name": "stamps",
              "type": "tuple[]"
            },
            {
              "internalType": "address",
              "name": "recipient",
              "type": "address"
            },
            {
              "internalType": "uint64",
              "name": "expirationTime",
              "type": "uint64"
            },
            {
              "internalType": "bool",
              "name": "revocable",
              "type": "bool"
            },
            {
              "internalType": "bytes32",
              "name": "refUID",
              "type": "bytes32"
            },
            {
              "internalType": "uint256",
              "name": "value",
              "type": "uint256"
            }
          ],
          "internalType": "struct Passport",
          "name": "passport",
          "type": "tuple"
        }
      ],
      "name": "verify",
      "outputs": [
        {
          "internalType": "bool",
          "name": "",
          "type": "bool"
        }
      ],
      "stateMutability": "view",
      "type": "function"
    }
  ],
  "bytecode": "0x608060405260405162002bb438038062002bb48339818101604052810190620000299190620001f0565b80806000806101000a81548173ffffffffffffffffffffffffffffffffffffffff021916908373ffffffffffffffffffffffffffffffffffffffff1602179055506040518060400160405280600881526020017f417474657374657200000000000000000000000000000000000000000000000081525060019081620000b091906200049c565b506000620000c36200017960201b60201c565b90507f8b73c3c69bb8fe3d512ecc4cf759cc79239f7b179b0ffacaa9a75d522b39400f6001604051620000f7919062000632565b60405180910390206040518060400160405280600181526020017f31000000000000000000000000000000000000000000000000000000000000008152508051906020012083306040516020016200015495949392919062000688565b60405160208183030381529060405280519060200120600281905550505050620006e5565b6000804690508091505090565b600080fd5b600073ffffffffffffffffffffffffffffffffffffffff82169050919050565b6000620001b8826200018b565b9050919050565b620001ca81620001ab565b8114620001d657600080fd5b50565b600081519050620001ea81620001bf565b92915050565b60006020828403121562000209576200020862000186565b5b60006200021984828501620001d9565b91505092915050565b600081519050919050565b7f4e487b7100000000000000000000000000000000000000000000000000000000600052604160045260246000fd5b7f4e487b7100000000000000000000000000000000000000000000000000000000600052602260045260246000fd5b60006002820490506001821680620002a457607f821691505b602082108103620002ba57620002b96200025c565b5b50919050565b60008190508160005260206000209050919050565b60006020601f8301049050919050565b600082821b905092915050565b600060088302620003247fffffffffffffffffffffffffffffffffffffffffffffffffffffffffffffffff82620002e5565b620003308683620002e5565b95508019841693508086168417925050509392505050565b6000819050919050565b6000819050919050565b60006200037d62000377620003718462000348565b62000352565b62000348565b9050919050565b6000819050919050565b62000399836200035c565b620003b1620003a88262000384565b848454620002f2565b825550505050565b600090565b620003c8620003b9565b620003d58184846200038e565b505050565b5b81811015620003fd57620003f1600082620003be565b600181019050620003db565b5050565b601f8211156200044c576200041681620002c0565b6200042184620002d5565b8101602085101562000431578190505b620004496200044085620002d5565b830182620003da565b50505b505050565b600082821c905092915050565b6000620004716000198460080262000451565b1980831691505092915050565b60006200048c83836200045e565b9150826002028217905092915050565b620004a78262000222565b67ffffffffffffffff811115620004c357620004c26200022d565b5b620004cf82546200028b565b620004dc82828562000401565b600060209050601f831160018114620005145760008415620004ff578287015190505b6200050b85826200047e565b8655506200057b565b601f1984166200052486620002c0565b60005b828110156200054e5784890151825560018201915060208501945060208101905062000527565b868310156200056e57848901516200056a601f8916826200045e565b8355505b6001600288020188555050505b505050505050565b600081905092915050565b60008190508160005260206000209050919050565b60008154620005b2816200028b565b620005be818662000583565b94506001821660008114620005dc5760018114620005f25762000629565b60ff198316865281151582028601935062000629565b620005fd856200058e565b60005b83811015620006215781548189015260018201915060208101905062000600565b838801955050505b50505092915050565b6000620006408284620005a3565b915081905092915050565b6000819050919050565b62000660816200064b565b82525050565b620006718162000348565b82525050565b6200068281620001ab565b82525050565b600060a0820190506200069f600083018862000655565b620006ae602083018762000655565b620006bd604083018662000655565b620006cc606083018562000666565b620006db608083018462000677565b9695505050505050565b6124bf80620006f56000396000f3fe6080604052600436106100865760003560e01c80633644e515116100595780633644e5151461013c5780635c0e528414610167578063a3112a64146101a4578063cdf94df2146101e1578063d2ae372c1461021157610086565b806306fdde031461008b5780631d143848146100b6578063271caf12146100e15780633408e47014610111575b600080fd5b34801561009757600080fd5b506100a061023a565b6040516100ad9190610e95565b60405180910390f35b3480156100c257600080fd5b506100cb6102c8565b6040516100d89190610ef8565b60405180910390f35b6100fb60048036038101906100f69190610fc2565b6102ec565b60405161010891906110e0565b60405180910390f35b34801561011d57600080fd5b5061012661046f565b604051610133919061111b565b60405180910390f35b34801561014857600080fd5b5061015161047c565b60405161015e9190611145565b60405180910390f35b34801561017357600080fd5b5061018e600480360381019061018991906111bd565b610482565b60405161019b919061125b565b60405180910390f35b3480156101b057600080fd5b506101cb60048036038101906101c69190611276565b610515565b6040516101d89190611413565b60405180910390f35b6101fb60048036038101906101f69190611435565b6105c5565b60405161020891906110e0565b60405180910390f35b34801561021d57600080fd5b50610238600480360381019061023391906114f8565b610836565b005b6001805461024790611554565b80601f016020809104026020016040519081016040528092919081815260200182805461027390611554565b80156102c05780601f10610295576101008083540402835291602001916102c0565b820191906000526020600020905b8154815290600101906020018083116102a357829003601f168201915b505050505081565b60008054906101000a900473ffffffffffffffffffffffffffffffffffffffff1681565b606060008383905067ffffffffffffffff81111561030d5761030c611585565b5b60405190808252806020026020018201604052801561033b5781602001602082028036833780820191505090505b50905060005b848490508110156104635760006040518060400160405280888152602001878785818110610372576103716115b4565b5b905060200281019061038491906115f2565b61038d90611865565b8152509050600460009054906101000a900473ffffffffffffffffffffffffffffffffffffffff1673ffffffffffffffffffffffffffffffffffffffff1663f17325e7826040518263ffffffff1660e01b81526004016103ed919061194d565b6020604051808303816000875af115801561040c573d6000803e3d6000fd5b505050506040513d601f19601f820116820180604052508101906104309190611984565b838381518110610443576104426115b4565b5b60200260200101818152505050808061045b906119e0565b915050610341565b50809150509392505050565b6000804690508091505090565b60025481565b6000806104978361049290611d4e565b6108dd565b905060006104a760025483610a33565b905060006104b782898989610a66565b905060008054906101000a900473ffffffffffffffffffffffffffffffffffffffff1673ffffffffffffffffffffffffffffffffffffffff168173ffffffffffffffffffffffffffffffffffffffff16149350505050949350505050565b61051d610d5d565b600460009054906101000a900473ffffffffffffffffffffffffffffffffffffffff1673ffffffffffffffffffffffffffffffffffffffff1663a3112a64836040518263ffffffff1660e01b81526004016105789190611145565b600060405180830381865afa158015610595573d6000803e3d6000fd5b505050506040513d6000823e3d601f19601f820116820180604052508101906105be9190611f22565b9050919050565b6060600015156105d785858589610482565b151503610619576040517f08c379a000000000000000000000000000000000000000000000000000000000815260040161061090611fb7565b60405180910390fd5b600085806000019061062b9190611fd7565b905067ffffffffffffffff81111561064657610645611585565b5b6040519080825280602002602001820160405280156106745781602001602082028036833780820191505090505b50905060005b86806000019061068a9190611fd7565b90508110156108285760008780600001906106a59190611fd7565b838181106106b6576106b56115b4565b5b90506020028101906106c8919061203a565b6106d190612062565b9050600060405180604001604052808b81526020016040518060c001604052808c602001602081019061070491906114f8565b73ffffffffffffffffffffffffffffffffffffffff168152602001600067ffffffffffffffff1681526020016001151581526020016000801b81526020018560600151815260200160008152508152509050600460009054906101000a900473ffffffffffffffffffffffffffffffffffffffff1673ffffffffffffffffffffffffffffffffffffffff1663f17325e7826040518263ffffffff1660e01b81526004016107b1919061194d565b6020604051808303816000875af11580156107d0573d6000803e3d6000fd5b505050506040513d601f19601f820116820180604052508101906107f49190611984565b848481518110610807576108066115b4565b5b60200260200101818152505050508080610820906119e0565b91505061067a565b508091505095945050505050565b80600360006101000a81548173ffffffffffffffffffffffffffffffffffffffff021916908373ffffffffffffffffffffffffffffffffffffffff160217905550600360009054906101000a900473ffffffffffffffffffffffffffffffffffffffff16600460006101000a81548173ffffffffffffffffffffffffffffffffffffffff021916908373ffffffffffffffffffffffffffffffffffffffff16021790555050565b60008082600001515167ffffffffffffffff8111156108ff576108fe611585565b5b60405190808252806020026020018201604052801561092d5781602001602082028036833780820191505090505b50905060005b836000015151811015610997576109678460000151828151811061095a576109596115b4565b5b6020026020010151610a91565b82828151811061097a576109796115b4565b5b60200260200101818152505080610990906119e0565b9050610933565b506000816040516020016109ab9190612105565b6040516020818303038152906040528051906020012090507fb7510fda4f69c0ab7c790ff69359cc990febc76c4ef39611b58847906f2552528185602001518660400151876060015188608001518960a00151604051602001610a14979695949392919061212b565b6040516020818303038152906040528051906020012092505050919050565b60008282604051602001610a48929190612212565b60405160208183030381529060405280519060200120905092915050565b6000806000610a7787878787610b15565b91509150610a8481610bf7565b8192505050949350505050565b60007fa5a3d2dce9820519305fc2b0757ca9aeaff0b7c8aec688876d660dcc1f4525b5826000015180519060200120836020015180519060200120846040015180519060200120856060015180519060200120604051602001610af8959493929190612249565b604051602081830303815290604052805190602001209050919050565b6000807f7fffffffffffffffffffffffffffffff5d576e7357a4501ddfe92f46681b20a08360001c1115610b50576000600391509150610bee565b600060018787878760405160008152602001604052604051610b7594939291906122ab565b6020604051602081039080840390855afa158015610b97573d6000803e3d6000fd5b505050602060405103519050600073ffffffffffffffffffffffffffffffffffffffff168173ffffffffffffffffffffffffffffffffffffffff1603610be557600060019250925050610bee565b80600092509250505b94509492505050565b60006004811115610c0b57610c0a6122f0565b5b816004811115610c1e57610c1d6122f0565b5b0315610d5a5760016004811115610c3857610c376122f0565b5b816004811115610c4b57610c4a6122f0565b5b03610c8b576040517f08c379a0000000000000000000000000000000000000000000000000000000008152600401610c829061236b565b60405180910390fd5b60026004811115610c9f57610c9e6122f0565b5b816004811115610cb257610cb16122f0565b5b03610cf2576040517f08c379a0000000000000000000000000000000000000000000000000000000008152600401610ce9906123d7565b60405180910390fd5b60036004811115610d0657610d056122f0565b5b816004811115610d1957610d186122f0565b5b03610d59576040517f08c379a0000000000000000000000000000000000000000000000000000000008152600401610d5090612469565b60405180910390fd5b5b50565b6040518061014001604052806000801916815260200160008019168152602001600067ffffffffffffffff168152602001600067ffffffffffffffff168152602001600067ffffffffffffffff16815260200160008019168152602001600073ffffffffffffffffffffffffffffffffffffffff168152602001600073ffffffffffffffffffffffffffffffffffffffff168152602001600015158152602001606081525090565b600081519050919050565b600082825260208201905092915050565b60005b83811015610e3f578082015181840152602081019050610e24565b60008484015250505050565b6000601f19601f8301169050919050565b6000610e6782610e05565b610e718185610e10565b9350610e81818560208601610e21565b610e8a81610e4b565b840191505092915050565b60006020820190508181036000830152610eaf8184610e5c565b905092915050565b600073ffffffffffffffffffffffffffffffffffffffff82169050919050565b6000610ee282610eb7565b9050919050565b610ef281610ed7565b82525050565b6000602082019050610f0d6000830184610ee9565b92915050565b6000604051905090565b600080fd5b600080fd5b6000819050919050565b610f3a81610f27565b8114610f4557600080fd5b50565b600081359050610f5781610f31565b92915050565b600080fd5b600080fd5b600080fd5b60008083601f840112610f8257610f81610f5d565b5b8235905067ffffffffffffffff811115610f9f57610f9e610f62565b5b602083019150836020820283011115610fbb57610fba610f67565b5b9250929050565b600080600060408486031215610fdb57610fda610f1d565b5b6000610fe986828701610f48565b935050602084013567ffffffffffffffff81111561100a57611009610f22565b5b61101686828701610f6c565b92509250509250925092565b600081519050919050565b600082825260208201905092915050565b6000819050602082019050919050565b61105781610f27565b82525050565b6000611069838361104e565b60208301905092915050565b6000602082019050919050565b600061108d82611022565b611097818561102d565b93506110a28361103e565b8060005b838110156110d35781516110ba888261105d565b97506110c583611075565b9250506001810190506110a6565b5085935050505092915050565b600060208201905081810360008301526110fa8184611082565b905092915050565b6000819050919050565b61111581611102565b82525050565b6000602082019050611130600083018461110c565b92915050565b61113f81610f27565b82525050565b600060208201905061115a6000830184611136565b92915050565b600060ff82169050919050565b61117681611160565b811461118157600080fd5b50565b6000813590506111938161116d565b92915050565b600080fd5b600060c082840312156111b4576111b3611199565b5b81905092915050565b600080600080608085870312156111d7576111d6610f1d565b5b60006111e587828801611184565b94505060206111f687828801610f48565b935050604061120787828801610f48565b925050606085013567ffffffffffffffff81111561122857611227610f22565b5b6112348782880161119e565b91505092959194509250565b60008115159050919050565b61125581611240565b82525050565b6000602082019050611270600083018461124c565b92915050565b60006020828403121561128c5761128b610f1d565b5b600061129a84828501610f48565b91505092915050565b600067ffffffffffffffff82169050919050565b6112c0816112a3565b82525050565b6112cf81610ed7565b82525050565b6112de81611240565b82525050565b600081519050919050565b600082825260208201905092915050565b600061130b826112e4565b61131581856112ef565b9350611325818560208601610e21565b61132e81610e4b565b840191505092915050565b600061014083016000830151611352600086018261104e565b506020830151611365602086018261104e565b50604083015161137860408601826112b7565b50606083015161138b60608601826112b7565b50608083015161139e60808601826112b7565b5060a08301516113b160a086018261104e565b5060c08301516113c460c08601826112c6565b5060e08301516113d760e08601826112c6565b506101008301516113ec6101008601826112d5565b506101208301518482036101208601526114068282611300565b9150508091505092915050565b6000602082019050818103600083015261142d8184611339565b905092915050565b600080600080600060a0868803121561145157611450610f1d565b5b600061145f88828901610f48565b955050602086013567ffffffffffffffff8111156114805761147f610f22565b5b61148c8882890161119e565b945050604061149d88828901611184565b93505060606114ae88828901610f48565b92505060806114bf88828901610f48565b9150509295509295909350565b6114d581610ed7565b81146114e057600080fd5b50565b6000813590506114f2816114cc565b92915050565b60006020828403121561150e5761150d610f1d565b5b600061151c848285016114e3565b91505092915050565b7f4e487b7100000000000000000000000000000000000000000000000000000000600052602260045260246000fd5b6000600282049050600182168061156c57607f821691505b60208210810361157f5761157e611525565b5b50919050565b7f4e487b7100000000000000000000000000000000000000000000000000000000600052604160045260246000fd5b7f4e487b7100000000000000000000000000000000000000000000000000000000600052603260045260246000fd5b600080fd5b600080fd5b600080fd5b60008235600160c00383360303811261160e5761160d6115e3565b5b80830191505092915050565b600080fd5b61162882610e4b565b810181811067ffffffffffffffff8211171561164757611646611585565b5b80604052505050565b600061165a610f13565b9050611666828261161f565b919050565b600080fd5b611679816112a3565b811461168457600080fd5b50565b60008135905061169681611670565b92915050565b6116a581611240565b81146116b057600080fd5b50565b6000813590506116c28161169c565b92915050565b600080fd5b600067ffffffffffffffff8211156116e8576116e7611585565b5b6116f182610e4b565b9050602081019050919050565b82818337600083830152505050565b600061172061171b846116cd565b611650565b90508281526020810184848401111561173c5761173b6116c8565b5b6117478482856116fe565b509392505050565b600082601f83011261176457611763610f5d565b5b813561177484826020860161170d565b91505092915050565b61178681611102565b811461179157600080fd5b50565b6000813590506117a38161177d565b92915050565b600060c082840312156117bf576117be61161a565b5b6117c960c0611650565b905060006117d9848285016114e3565b60008301525060206117ed84828501611687565b6020830152506040611801848285016116b3565b604083015250606061181584828501610f48565b606083015250608082013567ffffffffffffffff8111156118395761183861166b565b5b6118458482850161174f565b60808301525060a061185984828501611794565b60a08301525092915050565b600061187136836117a9565b9050919050565b61188181611102565b82525050565b600060c08301600083015161189f60008601826112c6565b5060208301516118b260208601826112b7565b5060408301516118c560408601826112d5565b5060608301516118d8606086018261104e565b50608083015184820360808601526118f08282611300565b91505060a083015161190560a0860182611878565b508091505092915050565b6000604083016000830151611928600086018261104e565b50602083015184820360208601526119408282611887565b9150508091505092915050565b600060208201905081810360008301526119678184611910565b905092915050565b60008151905061197e81610f31565b92915050565b60006020828403121561199a57611999610f1d565b5b60006119a88482850161196f565b91505092915050565b7f4e487b7100000000000000000000000000000000000000000000000000000000600052601160045260246000fd5b60006119eb82611102565b91507fffffffffffffffffffffffffffffffffffffffffffffffffffffffffffffffff8203611a1d57611a1c6119b1565b5b600182019050919050565b600067ffffffffffffffff821115611a4357611a42611585565b5b602082029050602081019050919050565b600067ffffffffffffffff821115611a6f57611a6e611585565b5b611a7882610e4b565b9050602081019050919050565b6000611a98611a9384611a54565b611650565b905082815260208101848484011115611ab457611ab36116c8565b5b611abf8482856116fe565b509392505050565b600082601f830112611adc57611adb610f5d565b5b8135611aec848260208601611a85565b91505092915050565b600060808284031215611b0b57611b0a61161a565b5b611b156080611650565b9050600082013567ffffffffffffffff811115611b3557611b3461166b565b5b611b4184828501611ac7565b600083015250602082013567ffffffffffffffff811115611b6557611b6461166b565b5b611b7184828501611ac7565b602083015250604082013567ffffffffffffffff811115611b9557611b9461166b565b5b611ba184828501611ac7565b604083015250606082013567ffffffffffffffff811115611bc557611bc461166b565b5b611bd18482850161174f565b60608301525092915050565b6000611bf0611beb84611a28565b611650565b90508083825260208201905060208402830185811115611c1357611c12610f67565b5b835b81811015611c5a57803567ffffffffffffffff811115611c3857611c37610f5d565b5b808601611c458982611af5565b85526020850194505050602081019050611c15565b5050509392505050565b600082601f830112611c7957611c78610f5d565b5b8135611c89848260208601611bdd565b91505092915050565b600060c08284031215611ca857611ca761161a565b5b611cb260c0611650565b9050600082013567ffffffffffffffff811115611cd257611cd161166b565b5b611cde84828501611c64565b6000830152506020611cf2848285016114e3565b6020830152506040611d0684828501611687565b6040830152506060611d1a848285016116b3565b6060830152506080611d2e84828501610f48565b60808301525060a0611d4284828501611794565b60a08301525092915050565b6000611d5a3683611c92565b9050919050565b600081519050611d7081611670565b92915050565b600081519050611d85816114cc565b92915050565b600081519050611d9a8161169c565b92915050565b6000611db3611dae846116cd565b611650565b905082815260208101848484011115611dcf57611dce6116c8565b5b611dda848285610e21565b509392505050565b600082601f830112611df757611df6610f5d565b5b8151611e07848260208601611da0565b91505092915050565b60006101408284031215611e2757611e2661161a565b5b611e32610140611650565b90506000611e428482850161196f565b6000830152506020611e568482850161196f565b6020830152506040611e6a84828501611d61565b6040830152506060611e7e84828501611d61565b6060830152506080611e9284828501611d61565b60808301525060a0611ea68482850161196f565b60a08301525060c0611eba84828501611d76565b60c08301525060e0611ece84828501611d76565b60e083015250610100611ee384828501611d8b565b6101008301525061012082015167ffffffffffffffff811115611f0957611f0861166b565b5b611f1584828501611de2565b6101208301525092915050565b600060208284031215611f3857611f37610f1d565b5b600082015167ffffffffffffffff811115611f5657611f55610f22565b5b611f6284828501611e10565b91505092915050565b7f496e76616c6964207369676e6174757265000000000000000000000000000000600082015250565b6000611fa1601183610e10565b9150611fac82611f6b565b602082019050919050565b60006020820190508181036000830152611fd081611f94565b9050919050565b60008083356001602003843603038112611ff457611ff36115e3565b5b80840192508235915067ffffffffffffffff821115612016576120156115e8565b5b602083019250602082023603831315612032576120316115ed565b5b509250929050565b600082356001608003833603038112612056576120556115e3565b5b80830191505092915050565b600061206e3683611af5565b9050919050565b600081905092915050565b61208981610f27565b82525050565b600061209b8383612080565b60208301905092915050565b60006120b282611022565b6120bc8185612075565b93506120c78361103e565b8060005b838110156120f85781516120df888261208f565b97506120ea83611075565b9250506001810190506120cb565b5085935050505092915050565b600061211182846120a7565b915081905092915050565b612125816112a3565b82525050565b600060e082019050612140600083018a611136565b61214d6020830189611136565b61215a6040830188610ee9565b612167606083018761211c565b612174608083018661124c565b61218160a0830185611136565b61218e60c083018461110c565b98975050505050505050565b600081905092915050565b7f1901000000000000000000000000000000000000000000000000000000000000600082015250565b60006121db60028361219a565b91506121e6826121a5565b600282019050919050565b6000819050919050565b61220c61220782610f27565b6121f1565b82525050565b600061221d826121ce565b915061222982856121fb565b60208201915061223982846121fb565b6020820191508190509392505050565b600060a08201905061225e6000830188611136565b61226b6020830187611136565b6122786040830186611136565b6122856060830185611136565b6122926080830184611136565b9695505050505050565b6122a581611160565b82525050565b60006080820190506122c06000830187611136565b6122cd602083018661229c565b6122da6040830185611136565b6122e76060830184611136565b95945050505050565b7f4e487b7100000000000000000000000000000000000000000000000000000000600052602160045260246000fd5b7f45434453413a20696e76616c6964207369676e61747572650000000000000000600082015250565b6000612355601883610e10565b91506123608261231f565b602082019050919050565b6000602082019050818103600083015261238481612348565b9050919050565b7f45434453413a20696e76616c6964207369676e6174757265206c656e67746800600082015250565b60006123c1601f83610e10565b91506123cc8261238b565b602082019050919050565b600060208201905081810360008301526123f0816123b4565b9050919050565b7f45434453413a20696e76616c6964207369676e6174757265202773272076616c60008201527f7565000000000000000000000000000000000000000000000000000000000000602082015250565b6000612453602283610e10565b915061245e826123f7565b604082019050919050565b6000602082019050818103600083015261248281612446565b905091905056fea26469706673582212209a2f95772cf71bfe7a9913c0d4d4dc7fe2de8a330df1b30deb4726f6fc31b9c464736f6c63430008120033",
  "linkReferences": {},
  "deployedLinkReferences": {}
}