{
  "_format": "hh-sol-artifact-1",
  "contractName": "GitcoinVerifier",
  "sourceName": "contracts/GitcoinVerifier.sol",
  "abi": [
    {
      "inputs": [
        {
          "internalType": "address",
          "name": "_issuer",
          "type": "address"
        },
        {
          "internalType": "address",
          "name": "_attester",
          "type": "address"
        }
      ],
      "stateMutability": "nonpayable",
      "type": "constructor"
    },
    {
      "inputs": [
        {
          "internalType": "bytes32",
          "name": "schema",
          "type": "bytes32"
        },
        {
          "components": [
            {
              "components": [
                {
                  "internalType": "bytes",
                  "name": "encodedData",
                  "type": "bytes"
                }
              ],
              "internalType": "struct GitcoinVerifier.Stamp[]",
              "name": "stamps",
              "type": "tuple[]"
            },
            {
              "internalType": "address",
              "name": "recipient",
              "type": "address"
            },
            {
              "internalType": "uint64",
              "name": "expirationTime",
              "type": "uint64"
            },
            {
              "internalType": "bool",
              "name": "revocable",
              "type": "bool"
            },
            {
              "internalType": "bytes32",
              "name": "refUID",
              "type": "bytes32"
            },
            {
              "internalType": "uint256",
              "name": "value",
              "type": "uint256"
            },
            {
              "internalType": "uint256",
              "name": "nonce",
              "type": "uint256"
            },
            {
              "internalType": "uint256",
              "name": "fee",
              "type": "uint256"
            }
          ],
          "internalType": "struct GitcoinVerifier.Passport",
          "name": "passport",
          "type": "tuple"
        },
        {
          "internalType": "uint8",
          "name": "v",
          "type": "uint8"
        },
        {
          "internalType": "bytes32",
          "name": "r",
          "type": "bytes32"
        },
        {
          "internalType": "bytes32",
          "name": "s",
          "type": "bytes32"
        }
      ],
      "name": "addPassportWithSignature",
      "outputs": [],
      "stateMutability": "payable",
      "type": "function"
    },
    {
      "inputs": [],
      "name": "attester",
      "outputs": [
        {
          "internalType": "contract GitcoinAttester",
          "name": "",
          "type": "address"
        }
      ],
      "stateMutability": "view",
      "type": "function"
    },
    {
      "inputs": [
        {
          "internalType": "bytes32",
          "name": "schema",
          "type": "bytes32"
        },
        {
          "components": [
            {
              "components": [
                {
                  "internalType": "bytes",
                  "name": "encodedData",
                  "type": "bytes"
                }
              ],
              "internalType": "struct GitcoinVerifier.Stamp[]",
              "name": "stamps",
              "type": "tuple[]"
            },
            {
              "internalType": "address",
              "name": "recipient",
              "type": "address"
            },
            {
              "internalType": "uint64",
              "name": "expirationTime",
              "type": "uint64"
            },
            {
              "internalType": "bool",
              "name": "revocable",
              "type": "bool"
            },
            {
              "internalType": "bytes32",
              "name": "refUID",
              "type": "bytes32"
            },
            {
              "internalType": "uint256",
              "name": "value",
              "type": "uint256"
            },
            {
              "internalType": "uint256",
              "name": "nonce",
              "type": "uint256"
            },
            {
              "internalType": "uint256",
              "name": "fee",
              "type": "uint256"
            }
          ],
          "internalType": "struct GitcoinVerifier.Passport",
          "name": "passport",
          "type": "tuple"
        }
      ],
      "name": "getMultiAttestRequest",
      "outputs": [
        {
          "components": [
            {
              "internalType": "bytes32",
              "name": "schema",
              "type": "bytes32"
            },
            {
              "components": [
                {
                  "internalType": "address",
                  "name": "recipient",
                  "type": "address"
                },
                {
                  "internalType": "uint64",
                  "name": "expirationTime",
                  "type": "uint64"
                },
                {
                  "internalType": "bool",
                  "name": "revocable",
                  "type": "bool"
                },
                {
                  "internalType": "bytes32",
                  "name": "refUID",
                  "type": "bytes32"
                },
                {
                  "internalType": "bytes",
                  "name": "data",
                  "type": "bytes"
                },
                {
                  "internalType": "uint256",
                  "name": "value",
                  "type": "uint256"
                }
              ],
              "internalType": "struct AttestationRequestData[]",
              "name": "data",
              "type": "tuple[]"
            }
          ],
          "internalType": "struct MultiAttestationRequest[]",
          "name": "",
          "type": "tuple[]"
        }
      ],
      "stateMutability": "pure",
      "type": "function"
    },
    {
      "inputs": [],
      "name": "issuer",
      "outputs": [
        {
          "internalType": "address",
          "name": "",
          "type": "address"
        }
      ],
      "stateMutability": "view",
      "type": "function"
    },
    {
      "inputs": [],
      "name": "name",
      "outputs": [
        {
          "internalType": "string",
          "name": "",
          "type": "string"
        }
      ],
      "stateMutability": "view",
      "type": "function"
    },
    {
      "inputs": [
        {
          "internalType": "address",
          "name": "",
          "type": "address"
        }
      ],
      "name": "recipientNonces",
      "outputs": [
        {
          "internalType": "uint256",
          "name": "",
          "type": "uint256"
        }
      ],
      "stateMutability": "view",
      "type": "function"
    }
  ],
  "bytecode": "0x60806040523480156200001157600080fd5b506040516200267c3803806200267c833981810160405281019062000037919062000239565b806000806101000a81548173ffffffffffffffffffffffffffffffffffffffff021916908373ffffffffffffffffffffffffffffffffffffffff16021790555081600160006101000a81548173ffffffffffffffffffffffffffffffffffffffff021916908373ffffffffffffffffffffffffffffffffffffffff1602179055506040518060400160405280600f81526020017f476974636f696e5665726966696572000000000000000000000000000000000081525060029081620000fe9190620004fa565b50600062000111620001c760201b60201c565b90507f8b73c3c69bb8fe3d512ecc4cf759cc79239f7b179b0ffacaa9a75d522b39400f600260405162000145919062000690565b60405180910390206040518060400160405280600181526020017f3100000000000000000000000000000000000000000000000000000000000000815250805190602001208330604051602001620001a2959493929190620006e6565b6040516020818303038152906040528051906020012060048190555050505062000743565b600046905090565b600080fd5b600073ffffffffffffffffffffffffffffffffffffffff82169050919050565b60006200020182620001d4565b9050919050565b6200021381620001f4565b81146200021f57600080fd5b50565b600081519050620002338162000208565b92915050565b60008060408385031215620002535762000252620001cf565b5b6000620002638582860162000222565b9250506020620002768582860162000222565b9150509250929050565b600081519050919050565b7f4e487b7100000000000000000000000000000000000000000000000000000000600052604160045260246000fd5b7f4e487b7100000000000000000000000000000000000000000000000000000000600052602260045260246000fd5b600060028204905060018216806200030257607f821691505b602082108103620003185762000317620002ba565b5b50919050565b60008190508160005260206000209050919050565b60006020601f8301049050919050565b600082821b905092915050565b600060088302620003827fffffffffffffffffffffffffffffffffffffffffffffffffffffffffffffffff8262000343565b6200038e868362000343565b95508019841693508086168417925050509392505050565b6000819050919050565b6000819050919050565b6000620003db620003d5620003cf84620003a6565b620003b0565b620003a6565b9050919050565b6000819050919050565b620003f783620003ba565b6200040f6200040682620003e2565b84845462000350565b825550505050565b600090565b6200042662000417565b62000433818484620003ec565b505050565b5b818110156200045b576200044f6000826200041c565b60018101905062000439565b5050565b601f821115620004aa5762000474816200031e565b6200047f8462000333565b810160208510156200048f578190505b620004a76200049e8562000333565b83018262000438565b50505b505050565b600082821c905092915050565b6000620004cf60001984600802620004af565b1980831691505092915050565b6000620004ea8383620004bc565b9150826002028217905092915050565b620005058262000280565b67ffffffffffffffff8111156200052157620005206200028b565b5b6200052d8254620002e9565b6200053a8282856200045f565b600060209050601f8311600181146200057257600084156200055d578287015190505b620005698582620004dc565b865550620005d9565b601f19841662000582866200031e565b60005b82811015620005ac5784890151825560018201915060208501945060208101905062000585565b86831015620005cc5784890151620005c8601f891682620004bc565b8355505b6001600288020188555050505b505050505050565b600081905092915050565b60008190508160005260206000209050919050565b600081546200061081620002e9565b6200061c8186620005e1565b945060018216600081146200063a5760018114620006505762000687565b60ff198316865281151582028601935062000687565b6200065b85620005ec565b60005b838110156200067f578154818901526001820191506020810190506200065e565b838801955050505b50505092915050565b60006200069e828462000601565b915081905092915050565b6000819050919050565b620006be81620006a9565b82525050565b620006cf81620003a6565b82525050565b620006e081620001f4565b82525050565b600060a082019050620006fd6000830188620006b3565b6200070c6020830187620006b3565b6200071b6040830186620006b3565b6200072a6060830185620006c4565b620007396080830184620006d5565b9695505050505050565b611f2980620007536000396000f3fe6080604052600436106100555760003560e01c806306fdde031461005a5780631d1438481461008557806347b0c3b3146100b05780638327a7ee146100db578063c26aaba1146100f7578063d2c3ec5b14610134575b600080fd5b34801561006657600080fd5b5061006f610171565b60405161007c9190610cb3565b60405180910390f35b34801561009157600080fd5b5061009a6101ff565b6040516100a79190610d16565b60405180910390f35b3480156100bc57600080fd5b506100c5610225565b6040516100d29190610d90565b60405180910390f35b6100f560048036038101906100f09190610e53565b610249565b005b34801561010357600080fd5b5061011e60048036038101906101199190610f16565b610394565b60405161012b9190610f5c565b60405180910390f35b34801561014057600080fd5b5061015b60048036038101906101569190610f77565b6103ac565b60405161016891906112dd565b60405180910390f35b6002805461017e9061132e565b80601f01602080910402602001604051908101604052809291908181526020018280546101aa9061132e565b80156101f75780601f106101cc576101008083540402835291602001916101f7565b820191906000526020600020905b8154815290600101906020018083116101da57829003601f168201915b505050505081565b600160009054906101000a900473ffffffffffffffffffffffffffffffffffffffff1681565b60008054906101000a900473ffffffffffffffffffffffffffffffffffffffff1681565b60001515610259848484886105d7565b15150361029b576040517f08c379a0000000000000000000000000000000000000000000000000000000008152600401610292906113ab565b60405180910390fd5b8360e001353410156102e2576040517f08c379a00000000000000000000000000000000000000000000000000000000081526004016102d990611417565b60405180910390fd5b60008054906101000a900473ffffffffffffffffffffffffffffffffffffffff1673ffffffffffffffffffffffffffffffffffffffff166352248a1961032887876103ac565b6040518263ffffffff1660e01b815260040161034491906112dd565b6000604051808303816000875af1158015610363573d6000803e3d6000fd5b505050506040513d6000823e3d601f19601f8201168201806040525081019061038c9190611594565b505050505050565b60036020528060005260406000206000915090505481565b60606000600167ffffffffffffffff8111156103cb576103ca61143c565b5b60405190808252806020026020018201604052801561040457816020015b6103f1610bab565b8152602001906001900390816103e95790505b509050838160008151811061041c5761041b6115dd565b5b6020026020010151600001818152505082806000019061043c919061161b565b905067ffffffffffffffff8111156104575761045661143c565b5b60405190808252806020026020018201604052801561049057816020015b61047d610bc8565b8152602001906001900390816104755790505b50816000815181106104a5576104a46115dd565b5b60200260200101516020018190525060005b8380600001906104c7919061161b565b90508110156105cc5760008480600001906104e2919061161b565b838181106104f3576104f26115dd565b5b9050602002810190610505919061167e565b61050e906117bd565b90506040518060c0016040528086602001602081019061052e9190610f16565b73ffffffffffffffffffffffffffffffffffffffff168152602001600067ffffffffffffffff1681526020016001151581526020016000801b81526020018260000151815260200160008152508360008151811061058f5761058e6115dd565b5b60200260200101516020015183815181106105ad576105ac6115dd565b5b60200260200101819052505080806105c4906117ff565b9150506104b7565b508091505092915050565b6000806105ec836105e790611a92565b610746565b905060006105fc600454836108a8565b9050600061060c828989896108db565b90506000600160009054906101000a900473ffffffffffffffffffffffffffffffffffffffff1673ffffffffffffffffffffffffffffffffffffffff168273ffffffffffffffffffffffffffffffffffffffff1614905060006003600088602001602081019061067c9190610f16565b73ffffffffffffffffffffffffffffffffffffffff1673ffffffffffffffffffffffffffffffffffffffff168152602001908152602001600020548760c00135149050801561072d57600360008860200160208101906106dc9190610f16565b73ffffffffffffffffffffffffffffffffffffffff1673ffffffffffffffffffffffffffffffffffffffff1681526020019081526020016000206000815480929190610727906117ff565b91905055505b8180156107375750805b95505050505050949350505050565b60008082600001515167ffffffffffffffff8111156107685761076761143c565b5b6040519080825280602002602001820160405280156107965781602001602082028036833780820191505090505b50905060005b836000015151811015610800576107d0846000015182815181106107c3576107c26115dd565b5b6020026020010151610906565b8282815181106107e3576107e26115dd565b5b602002602001018181525050806107f9906117ff565b905061079c565b506000816040516020016108149190611b5d565b6040516020818303038152906040528051906020012090507f2b9dbd884c3667c9ed6ed0ce709567df4e3f68f2d18eadda7d7f3a3dcdd7f0588185602001518660400151876060015188608001518960a001518a60c001518b60e0015160405160200161088999989796959493929190611ba1565b6040516020818303038152906040528051906020012092505050919050565b600082826040516020016108bd929190611ca6565b60405160208183030381529060405280519060200120905092915050565b60008060006108ec87878787610963565b915091506108f981610a45565b8192505050949350505050565b60007f533a6d49bdc4d5721c468318ae1cc7977ad2a6961b42fe7f0c36e3c9fb01a2d1826000015180519060200120604051602001610946929190611cdd565b604051602081830303815290604052805190602001209050919050565b6000807f7fffffffffffffffffffffffffffffff5d576e7357a4501ddfe92f46681b20a08360001c111561099e576000600391509150610a3c565b6000600187878787604051600081526020016040526040516109c39493929190611d15565b6020604051602081039080840390855afa1580156109e5573d6000803e3d6000fd5b505050602060405103519050600073ffffffffffffffffffffffffffffffffffffffff168173ffffffffffffffffffffffffffffffffffffffff1603610a3357600060019250925050610a3c565b80600092509250505b94509492505050565b60006004811115610a5957610a58611d5a565b5b816004811115610a6c57610a6b611d5a565b5b0315610ba85760016004811115610a8657610a85611d5a565b5b816004811115610a9957610a98611d5a565b5b03610ad9576040517f08c379a0000000000000000000000000000000000000000000000000000000008152600401610ad090611dd5565b60405180910390fd5b60026004811115610aed57610aec611d5a565b5b816004811115610b0057610aff611d5a565b5b03610b40576040517f08c379a0000000000000000000000000000000000000000000000000000000008152600401610b3790611e41565b60405180910390fd5b60036004811115610b5457610b53611d5a565b5b816004811115610b6757610b66611d5a565b5b03610ba7576040517f08c379a0000000000000000000000000000000000000000000000000000000008152600401610b9e90611ed3565b60405180910390fd5b5b50565b604051806040016040528060008019168152602001606081525090565b6040518060c00160405280600073ffffffffffffffffffffffffffffffffffffffff168152602001600067ffffffffffffffff1681526020016000151581526020016000801916815260200160608152602001600081525090565b600081519050919050565b600082825260208201905092915050565b60005b83811015610c5d578082015181840152602081019050610c42565b60008484015250505050565b6000601f19601f8301169050919050565b6000610c8582610c23565b610c8f8185610c2e565b9350610c9f818560208601610c3f565b610ca881610c69565b840191505092915050565b60006020820190508181036000830152610ccd8184610c7a565b905092915050565b600073ffffffffffffffffffffffffffffffffffffffff82169050919050565b6000610d0082610cd5565b9050919050565b610d1081610cf5565b82525050565b6000602082019050610d2b6000830184610d07565b92915050565b6000819050919050565b6000610d56610d51610d4c84610cd5565b610d31565b610cd5565b9050919050565b6000610d6882610d3b565b9050919050565b6000610d7a82610d5d565b9050919050565b610d8a81610d6f565b82525050565b6000602082019050610da56000830184610d81565b92915050565b6000604051905090565b600080fd5b600080fd5b6000819050919050565b610dd281610dbf565b8114610ddd57600080fd5b50565b600081359050610def81610dc9565b92915050565b600080fd5b60006101008284031215610e1157610e10610df5565b5b81905092915050565b600060ff82169050919050565b610e3081610e1a565b8114610e3b57600080fd5b50565b600081359050610e4d81610e27565b92915050565b600080600080600060a08688031215610e6f57610e6e610db5565b5b6000610e7d88828901610de0565b955050602086013567ffffffffffffffff811115610e9e57610e9d610dba565b5b610eaa88828901610dfa565b9450506040610ebb88828901610e3e565b9350506060610ecc88828901610de0565b9250506080610edd88828901610de0565b9150509295509295909350565b610ef381610cf5565b8114610efe57600080fd5b50565b600081359050610f1081610eea565b92915050565b600060208284031215610f2c57610f2b610db5565b5b6000610f3a84828501610f01565b91505092915050565b6000819050919050565b610f5681610f43565b82525050565b6000602082019050610f716000830184610f4d565b92915050565b60008060408385031215610f8e57610f8d610db5565b5b6000610f9c85828601610de0565b925050602083013567ffffffffffffffff811115610fbd57610fbc610dba565b5b610fc985828601610dfa565b9150509250929050565b600081519050919050565b600082825260208201905092915050565b6000819050602082019050919050565b61100881610dbf565b82525050565b600081519050919050565b600082825260208201905092915050565b6000819050602082019050919050565b61104381610cf5565b82525050565b600067ffffffffffffffff82169050919050565b61106681611049565b82525050565b60008115159050919050565b6110818161106c565b82525050565b600081519050919050565b600082825260208201905092915050565b60006110ae82611087565b6110b88185611092565b93506110c8818560208601610c3f565b6110d181610c69565b840191505092915050565b6110e581610f43565b82525050565b600060c083016000830151611103600086018261103a565b506020830151611116602086018261105d565b5060408301516111296040860182611078565b50606083015161113c6060860182610fff565b506080830151848203608086015261115482826110a3565b91505060a083015161116960a08601826110dc565b508091505092915050565b600061118083836110eb565b905092915050565b6000602082019050919050565b60006111a08261100e565b6111aa8185611019565b9350836020820285016111bc8561102a565b8060005b858110156111f857848403895281516111d98582611174565b94506111e483611188565b925060208a019950506001810190506111c0565b50829750879550505050505092915050565b60006040830160008301516112226000860182610fff565b506020830151848203602086015261123a8282611195565b9150508091505092915050565b6000611253838361120a565b905092915050565b6000602082019050919050565b600061127382610fd3565b61127d8185610fde565b93508360208202850161128f85610fef565b8060005b858110156112cb57848403895281516112ac8582611247565b94506112b78361125b565b925060208a01995050600181019050611293565b50829750879550505050505092915050565b600060208201905081810360008301526112f78184611268565b905092915050565b7f4e487b7100000000000000000000000000000000000000000000000000000000600052602260045260246000fd5b6000600282049050600182168061134657607f821691505b602082108103611359576113586112ff565b5b50919050565b7f496e76616c6964207369676e6174757265000000000000000000000000000000600082015250565b6000611395601183610c2e565b91506113a08261135f565b602082019050919050565b600060208201905081810360008301526113c481611388565b9050919050565b7f496e73756666696369656e742066656500000000000000000000000000000000600082015250565b6000611401601083610c2e565b915061140c826113cb565b602082019050919050565b60006020820190508181036000830152611430816113f4565b9050919050565b600080fd5b7f4e487b7100000000000000000000000000000000000000000000000000000000600052604160045260246000fd5b61147482610c69565b810181811067ffffffffffffffff821117156114935761149261143c565b5b80604052505050565b60006114a6610dab565b90506114b2828261146b565b919050565b600067ffffffffffffffff8211156114d2576114d161143c565b5b602082029050602081019050919050565b600080fd5b6000815190506114f781610dc9565b92915050565b600061151061150b846114b7565b61149c565b90508083825260208201905060208402830185811115611533576115326114e3565b5b835b8181101561155c578061154888826114e8565b845260208401935050602081019050611535565b5050509392505050565b600082601f83011261157b5761157a611437565b5b815161158b8482602086016114fd565b91505092915050565b6000602082840312156115aa576115a9610db5565b5b600082015167ffffffffffffffff8111156115c8576115c7610dba565b5b6115d484828501611566565b91505092915050565b7f4e487b7100000000000000000000000000000000000000000000000000000000600052603260045260246000fd5b600080fd5b600080fd5b600080fd5b600080833560016020038436030381126116385761163761160c565b5b80840192508235915067ffffffffffffffff82111561165a57611659611611565b5b60208301925060208202360383131561167657611675611616565b5b509250929050565b60008235600160200383360303811261169a5761169961160c565b5b80830191505092915050565b600080fd5b600080fd5b600080fd5b600067ffffffffffffffff8211156116d0576116cf61143c565b5b6116d982610c69565b9050602081019050919050565b82818337600083830152505050565b6000611708611703846116b5565b61149c565b905082815260208101848484011115611724576117236116b0565b5b61172f8482856116e6565b509392505050565b600082601f83011261174c5761174b611437565b5b813561175c8482602086016116f5565b91505092915050565b60006020828403121561177b5761177a6116a6565b5b611785602061149c565b9050600082013567ffffffffffffffff8111156117a5576117a46116ab565b5b6117b184828501611737565b60008301525092915050565b60006117c93683611765565b9050919050565b7f4e487b7100000000000000000000000000000000000000000000000000000000600052601160045260246000fd5b600061180a82610f43565b91507fffffffffffffffffffffffffffffffffffffffffffffffffffffffffffffffff820361183c5761183b6117d0565b5b600182019050919050565b600067ffffffffffffffff8211156118625761186161143c565b5b602082029050602081019050919050565b600061188661188184611847565b61149c565b905080838252602082019050602084028301858111156118a9576118a86114e3565b5b835b818110156118f057803567ffffffffffffffff8111156118ce576118cd611437565b5b8086016118db8982611765565b855260208501945050506020810190506118ab565b5050509392505050565b600082601f83011261190f5761190e611437565b5b813561191f848260208601611873565b91505092915050565b61193181611049565b811461193c57600080fd5b50565b60008135905061194e81611928565b92915050565b61195d8161106c565b811461196857600080fd5b50565b60008135905061197a81611954565b92915050565b61198981610f43565b811461199457600080fd5b50565b6000813590506119a681611980565b92915050565b600061010082840312156119c3576119c26116a6565b5b6119ce61010061149c565b9050600082013567ffffffffffffffff8111156119ee576119ed6116ab565b5b6119fa848285016118fa565b6000830152506020611a0e84828501610f01565b6020830152506040611a228482850161193f565b6040830152506060611a368482850161196b565b6060830152506080611a4a84828501610de0565b60808301525060a0611a5e84828501611997565b60a08301525060c0611a7284828501611997565b60c08301525060e0611a8684828501611997565b60e08301525092915050565b6000611a9e36836119ac565b9050919050565b600081519050919050565b600081905092915050565b6000819050602082019050919050565b611ad481610dbf565b82525050565b6000611ae68383611acb565b60208301905092915050565b6000602082019050919050565b6000611b0a82611aa5565b611b148185611ab0565b9350611b1f83611abb565b8060005b83811015611b50578151611b378882611ada565b9750611b4283611af2565b925050600181019050611b23565b5085935050505092915050565b6000611b698284611aff565b915081905092915050565b611b7d81610dbf565b82525050565b611b8c81611049565b82525050565b611b9b8161106c565b82525050565b600061012082019050611bb7600083018c611b74565b611bc4602083018b611b74565b611bd1604083018a610d07565b611bde6060830189611b83565b611beb6080830188611b92565b611bf860a0830187611b74565b611c0560c0830186610f4d565b611c1260e0830185610f4d565b611c20610100830184610f4d565b9a9950505050505050505050565b600081905092915050565b7f1901000000000000000000000000000000000000000000000000000000000000600082015250565b6000611c6f600283611c2e565b9150611c7a82611c39565b600282019050919050565b6000819050919050565b611ca0611c9b82610dbf565b611c85565b82525050565b6000611cb182611c62565b9150611cbd8285611c8f565b602082019150611ccd8284611c8f565b6020820191508190509392505050565b6000604082019050611cf26000830185611b74565b611cff6020830184611b74565b9392505050565b611d0f81610e1a565b82525050565b6000608082019050611d2a6000830187611b74565b611d376020830186611d06565b611d446040830185611b74565b611d516060830184611b74565b95945050505050565b7f4e487b7100000000000000000000000000000000000000000000000000000000600052602160045260246000fd5b7f45434453413a20696e76616c6964207369676e61747572650000000000000000600082015250565b6000611dbf601883610c2e565b9150611dca82611d89565b602082019050919050565b60006020820190508181036000830152611dee81611db2565b9050919050565b7f45434453413a20696e76616c6964207369676e6174757265206c656e67746800600082015250565b6000611e2b601f83610c2e565b9150611e3682611df5565b602082019050919050565b60006020820190508181036000830152611e5a81611e1e565b9050919050565b7f45434453413a20696e76616c6964207369676e6174757265202773272076616c60008201527f7565000000000000000000000000000000000000000000000000000000000000602082015250565b6000611ebd602283610c2e565b9150611ec882611e61565b604082019050919050565b60006020820190508181036000830152611eec81611eb0565b905091905056fea2646970667358221220addd6839982f0f2a016fa6a7dd57eca1c50187aee0d427c043a15df61cb94c3e64736f6c63430008120033",
  "linkReferences": {},
  "deployedLinkReferences": {}
}