{
  "abi": [
    {
      "type": "constructor",
      "inputs": [
        {
          "name": "resolver_",
          "type": "address",
          "internalType": "address"
        },
        {
          "name": "gitcoinPassportDecoder_",
          "type": "address",
          "internalType": "address"
        }
      ],
      "stateMutability": "nonpayable"
    },
    {
      "type": "function",
      "name": "badgeLevel",
      "inputs": [
        {
          "name": "",
          "type": "bytes32",
          "internalType": "bytes32"
        }
      ],
      "outputs": [
        {
          "name": "",
          "type": "uint256",
          "internalType": "uint256"
        }
      ],
      "stateMutability": "view"
    },
    {
      "type": "function",
      "name": "badgeLevelDescriptions",
      "inputs": [
        {
          "name": "",
          "type": "uint256",
          "internalType": "uint256"
        }
      ],
      "outputs": [
        {
          "name": "",
          "type": "string",
          "internalType": "string"
        }
      ],
      "stateMutability": "view"
    },
    {
      "type": "function",
      "name": "badgeLevelImageURIs",
      "inputs": [
        {
          "name": "",
          "type": "uint256",
          "internalType": "uint256"
        }
      ],
      "outputs": [
        {
          "name": "",
          "type": "string",
          "internalType": "string"
        }
      ],
      "stateMutability": "view"
    },
    {
      "type": "function",
      "name": "badgeLevelNames",
      "inputs": [
        {
          "name": "",
          "type": "uint256",
          "internalType": "uint256"
        }
      ],
      "outputs": [
        {
          "name": "",
          "type": "string",
          "internalType": "string"
        }
      ],
      "stateMutability": "view"
    },
    {
      "type": "function",
      "name": "badgeTokenURI",
      "inputs": [
        {
          "name": "uid",
          "type": "bytes32",
          "internalType": "bytes32"
        }
      ],
      "outputs": [
        {
          "name": "",
          "type": "string",
          "internalType": "string"
        }
      ],
      "stateMutability": "view"
    },
    {
      "type": "function",
      "name": "canUpgrade",
      "inputs": [
        {
          "name": "uid",
          "type": "bytes32",
          "internalType": "bytes32"
        }
      ],
      "outputs": [
        {
          "name": "",
          "type": "bool",
          "internalType": "bool"
        }
      ],
      "stateMutability": "view"
    },
    {
      "type": "function",
      "name": "checkLevel",
      "inputs": [
        {
          "name": "user",
          "type": "address",
          "internalType": "address"
        }
      ],
      "outputs": [
        {
          "name": "",
          "type": "uint256",
          "internalType": "uint256"
        }
      ],
      "stateMutability": "view"
    },
    {
      "type": "function",
      "name": "getAndValidateBadge",
      "inputs": [
        {
          "name": "uid",
          "type": "bytes32",
          "internalType": "bytes32"
        }
      ],
      "outputs": [
        {
          "name": "",
          "type": "tuple",
          "internalType": "struct Attestation",
          "components": [
            {
              "name": "uid",
              "type": "bytes32",
              "internalType": "bytes32"
            },
            {
              "name": "schema",
              "type": "bytes32",
              "internalType": "bytes32"
            },
            {
              "name": "time",
              "type": "uint64",
              "internalType": "uint64"
            },
            {
              "name": "expirationTime",
              "type": "uint64",
              "internalType": "uint64"
            },
            {
              "name": "revocationTime",
              "type": "uint64",
              "internalType": "uint64"
            },
            {
              "name": "refUID",
              "type": "bytes32",
              "internalType": "bytes32"
            },
            {
              "name": "recipient",
              "type": "address",
              "internalType": "address"
            },
            {
              "name": "attester",
              "type": "address",
              "internalType": "address"
            },
            {
              "name": "revocable",
              "type": "bool",
              "internalType": "bool"
            },
            {
              "name": "data",
              "type": "bytes",
              "internalType": "bytes"
            }
          ]
        }
      ],
      "stateMutability": "view"
    },
    {
      "type": "function",
      "name": "gitcoinPassportDecoder",
      "inputs": [],
      "outputs": [
        {
          "name": "",
          "type": "address",
          "internalType": "contract IGitcoinPassportDecoder"
        }
      ],
      "stateMutability": "view"
    },
    {
      "type": "function",
      "name": "hasBadge",
      "inputs": [
        {
          "name": "user",
          "type": "address",
          "internalType": "address"
        }
      ],
      "outputs": [
        {
          "name": "",
          "type": "bool",
          "internalType": "bool"
        }
      ],
      "stateMutability": "view"
    },
    {
      "type": "function",
      "name": "isAttester",
      "inputs": [
        {
          "name": "",
          "type": "address",
          "internalType": "address"
        }
      ],
      "outputs": [
        {
          "name": "",
          "type": "bool",
          "internalType": "bool"
        }
      ],
      "stateMutability": "view"
    },
    {
      "type": "function",
      "name": "issueBadge",
      "inputs": [
        {
          "name": "attestation",
          "type": "tuple",
          "internalType": "struct Attestation",
          "components": [
            {
              "name": "uid",
              "type": "bytes32",
              "internalType": "bytes32"
            },
            {
              "name": "schema",
              "type": "bytes32",
              "internalType": "bytes32"
            },
            {
              "name": "time",
              "type": "uint64",
              "internalType": "uint64"
            },
            {
              "name": "expirationTime",
              "type": "uint64",
              "internalType": "uint64"
            },
            {
              "name": "revocationTime",
              "type": "uint64",
              "internalType": "uint64"
            },
            {
              "name": "refUID",
              "type": "bytes32",
              "internalType": "bytes32"
            },
            {
              "name": "recipient",
              "type": "address",
              "internalType": "address"
            },
            {
              "name": "attester",
              "type": "address",
              "internalType": "address"
            },
            {
              "name": "revocable",
              "type": "bool",
              "internalType": "bool"
            },
            {
              "name": "data",
              "type": "bytes",
              "internalType": "bytes"
            }
          ]
        }
      ],
      "outputs": [
        {
          "name": "",
          "type": "bool",
          "internalType": "bool"
        }
      ],
      "stateMutability": "nonpayable"
    },
    {
      "type": "function",
      "name": "levelThresholds",
      "inputs": [
        {
          "name": "",
          "type": "uint256",
          "internalType": "uint256"
        }
      ],
      "outputs": [
        {
          "name": "",
          "type": "uint256",
          "internalType": "uint256"
        }
      ],
      "stateMutability": "view"
    },
    {
      "type": "function",
      "name": "owner",
      "inputs": [],
      "outputs": [
        {
          "name": "",
          "type": "address",
          "internalType": "address"
        }
      ],
      "stateMutability": "view"
    },
    {
      "type": "function",
      "name": "renounceOwnership",
      "inputs": [],
      "outputs": [],
      "stateMutability": "nonpayable"
    },
    {
      "type": "function",
      "name": "resolver",
      "inputs": [],
      "outputs": [
        {
          "name": "",
          "type": "address",
          "internalType": "address"
        }
      ],
      "stateMutability": "view"
    },
    {
      "type": "function",
      "name": "revokeBadge",
      "inputs": [
        {
          "name": "attestation",
          "type": "tuple",
          "internalType": "struct Attestation",
          "components": [
            {
              "name": "uid",
              "type": "bytes32",
              "internalType": "bytes32"
            },
            {
              "name": "schema",
              "type": "bytes32",
              "internalType": "bytes32"
            },
            {
              "name": "time",
              "type": "uint64",
              "internalType": "uint64"
            },
            {
              "name": "expirationTime",
              "type": "uint64",
              "internalType": "uint64"
            },
            {
              "name": "revocationTime",
              "type": "uint64",
              "internalType": "uint64"
            },
            {
              "name": "refUID",
              "type": "bytes32",
              "internalType": "bytes32"
            },
            {
              "name": "recipient",
              "type": "address",
              "internalType": "address"
            },
            {
              "name": "attester",
              "type": "address",
              "internalType": "address"
            },
            {
              "name": "revocable",
              "type": "bool",
              "internalType": "bool"
            },
            {
              "name": "data",
              "type": "bytes",
              "internalType": "bytes"
            }
          ]
        }
      ],
      "outputs": [
        {
          "name": "",
          "type": "bool",
          "internalType": "bool"
        }
      ],
      "stateMutability": "nonpayable"
    },
    {
      "type": "function",
      "name": "setBadgeLevelDescriptions",
      "inputs": [
        {
          "name": "badgeLevelDescriptions_",
          "type": "string[]",
          "internalType": "string[]"
        }
      ],
      "outputs": [],
      "stateMutability": "nonpayable"
    },
    {
      "type": "function",
      "name": "setBadgeLevelImageURIs",
      "inputs": [
        {
          "name": "badgeLevelImageURIs_",
          "type": "string[]",
          "internalType": "string[]"
        }
      ],
      "outputs": [],
      "stateMutability": "nonpayable"
    },
    {
      "type": "function",
      "name": "setBadgeLevelNames",
      "inputs": [
        {
          "name": "badgeLevelNames_",
          "type": "string[]",
          "internalType": "string[]"
        }
      ],
      "outputs": [],
      "stateMutability": "nonpayable"
    },
    {
      "type": "function",
      "name": "setLevelThresholds",
      "inputs": [
        {
          "name": "levelsThresholds_",
          "type": "uint256[]",
          "internalType": "uint256[]"
        }
      ],
      "outputs": [],
      "stateMutability": "nonpayable"
    },
    {
      "type": "function",
      "name": "toggleAttester",
      "inputs": [
        {
          "name": "attester",
          "type": "address",
          "internalType": "address"
        },
        {
          "name": "enable",
          "type": "bool",
          "internalType": "bool"
        }
      ],
      "outputs": [],
      "stateMutability": "nonpayable"
    },
    {
      "type": "function",
      "name": "transferOwnership",
      "inputs": [
        {
          "name": "newOwner",
          "type": "address",
          "internalType": "address"
        }
      ],
      "outputs": [],
      "stateMutability": "nonpayable"
    },
    {
      "type": "function",
      "name": "upgrade",
      "inputs": [
        {
          "name": "uid",
          "type": "bytes32",
          "internalType": "bytes32"
        }
      ],
      "outputs": [],
      "stateMutability": "nonpayable"
    },
    {
      "type": "event",
      "name": "IssueBadge",
      "inputs": [
        {
          "name": "uid",
          "type": "bytes32",
          "indexed": true,
          "internalType": "bytes32"
        }
      ],
      "anonymous": false
    },
    {
      "type": "event",
      "name": "OwnershipTransferred",
      "inputs": [
        {
          "name": "previousOwner",
          "type": "address",
          "indexed": true,
          "internalType": "address"
        },
        {
          "name": "newOwner",
          "type": "address",
          "indexed": true,
          "internalType": "address"
        }
      ],
      "anonymous": false
    },
    {
      "type": "event",
      "name": "RevokeBadge",
      "inputs": [
        {
          "name": "uid",
          "type": "bytes32",
          "indexed": true,
          "internalType": "bytes32"
        }
      ],
      "anonymous": false
    },
    {
      "type": "event",
      "name": "Upgrade",
      "inputs": [
        {
          "name": "oldLevel",
          "type": "uint256",
          "indexed": false,
          "internalType": "uint256"
        },
        {
          "name": "newLevel",
          "type": "uint256",
          "indexed": false,
          "internalType": "uint256"
        }
      ],
      "anonymous": false
    },
    {
      "type": "error",
      "name": "AttestationBadgeMismatch",
      "inputs": [
        {
          "name": "uid",
          "type": "bytes32",
          "internalType": "bytes32"
        }
      ]
    },
    {
      "type": "error",
      "name": "CannotUpgrade",
      "inputs": [
        {
          "name": "uid",
          "type": "bytes32",
          "internalType": "bytes32"
        }
      ]
    },
    {
      "type": "error",
      "name": "SingletonBadge",
      "inputs": []
    },
    {
      "type": "error",
      "name": "Unauthorized",
      "inputs": []
    }
  ],
  "bytecode": {
    "object": "0x60a06040523480156200001157600080fd5b5060405162001be038038062001be08339810160408190526200003491620000da565b8162000040336200006d565b6001600160a01b03908116608052600380546001600160a01b031916929091169190911790555062000112565b600080546001600160a01b038381166001600160a01b0319831681178455604051919092169283917f8be0079c531659141344cd1fd0a4f28419497f9722a3daafe3b4186f6b6457e09190a35050565b80516001600160a01b0381168114620000d557600080fd5b919050565b60008060408385031215620000ee57600080fd5b620000f983620000bd565b91506200010960208401620000bd565b90509250929050565b608051611a9d62000143600039600081816101620152818161079b015281816109a70152610b620152611a9d6000f3fe608060405234801561001057600080fd5b50600436106101585760003560e01c80638298b030116100c3578063bc444e131161007c578063bc444e1314610346578063d753a63d14610359578063d84a4a5e1461036c578063f2fde38b1461037f578063f942ebd614610392578063ffa679b7146103a557600080fd5b80638298b030146102b95780638b2c41bc146102cc5780638c6f12f0146102df5780638da5cb5b146102ff578063b6ebe53914610310578063bb2ae6bf1461033357600080fd5b80632c01c7a4116101155780632c01c7a41461020f57806342faaa7e1461022257806343e839cf146102505780635c445412146102635780635e50864f14610276578063715018a6146102b157600080fd5b806304f3bcec1461015d5780630d713004146101a15780630ee48948146101c1578063114c05df146101d65780632149ee55146101e957806324830563146101fc575b600080fd5b6101847f000000000000000000000000000000000000000000000000000000000000000081565b6040516001600160a01b0390911681526020015b60405180910390f35b6101b46101af36600461113e565b6103b8565b60405161019891906111a7565b6101d46101cf3660046111dd565b610464565b005b6101d46101e43660046112cf565b610497565b600354610184906001600160a01b031681565b6101b461020a36600461113e565b6104b6565b6101d461021d3660046112cf565b610723565b61024261023036600461113e565b60086020526000908152604090205481565b604051908152602001610198565b6101d461025e3660046112cf565b61073e565b61024261027136600461113e565b610759565b6102a16102843660046113c3565b6001600160a01b0316600090815260016020526040902054151590565b6040519015158152602001610198565b6101d461077a565b6102a16102c73660046113e0565b61078e565b6102426102da3660046113c3565b61086a565b6102f26102ed36600461113e565b610938565b604051610198919061141b565b6000546001600160a01b0316610184565b6102a161031e3660046113c3565b60026020526000908152604090205460ff1681565b6101d46103413660046114ef565b610a63565b6101d461035436600461113e565b610a7e565b6102a16103673660046113e0565b610b55565b6101b461037a36600461113e565b610c31565b6101d461038d3660046113c3565b610c41565b6102a16103a036600461113e565b610cba565b6101b46103b336600461113e565b610cf1565b600681815481106103c857600080fd5b9060005260206000200160009150905080546103e39061157f565b80601f016020809104026020016040519081016040528092919081815260200182805461040f9061157f565b801561045c5780601f106104315761010080835404028352916020019161045c565b820191906000526020600020905b81548152906001019060200180831161043f57829003601f168201915b505050505081565b61046c610d01565b6001600160a01b03919091166000908152600260205260409020805460ff1916911515919091179055565b61049f610d01565b80516104b2906005906020840190611035565b5050565b600081815260086020526040812054600680546060939190839081106104de576104de6115b9565b9060005260206000200180546104f39061157f565b80601f016020809104026020016040519081016040528092919081815260200182805461051f9061157f565b801561056c5780601f106105415761010080835404028352916020019161056c565b820191906000526020600020905b81548152906001019060200180831161054f57829003601f168201915b50505050509050600060078381548110610588576105886115b9565b90600052602060002001805461059d9061157f565b80601f01602080910402602001604051908101604052809291908181526020018280546105c99061157f565b80156106165780601f106105eb57610100808354040283529160200191610616565b820191906000526020600020905b8154815290600101906020018083116105f957829003601f168201915b50505050509050600060058481548110610632576106326115b9565b9060005260206000200180546106479061157f565b80601f01602080910402602001604051908101604052809291908181526020018280546106739061157f565b80156106c05780601f10610695576101008083540402835291602001916106c0565b820191906000526020600020905b8154815290600101906020018083116106a357829003601f168201915b5050505050905060006106f58484846040516020016106e1939291906115cf565b604051602081830303815290604052610d5b565b9050806040516020016107089190611670565b60405160208183030381529060405295505050505050919050565b61072b610d01565b80516104b2906007906020840190611035565b610746610d01565b80516104b2906006906020840190611035565b6004818154811061076957600080fd5b600091825260209091200154905081565b610782610d01565b61078c6000610ead565b565b6000336001600160a01b037f000000000000000000000000000000000000000000000000000000000000000016146107d8576040516282b42960e81b815260040160405180910390fd5b6107e182610efd565b6107ed57506000919050565b600180600061080260e0860160c087016113c3565b6001600160a01b03166001600160a01b03168152602001908152602001600020600082825461083191906116cb565b90915550506040518235907f504e4727721de18c6bf7f66448a6ff6da00aa4b1f00b6034e71723ae7ce6373a90600090a2506001919050565b600354604051630d47875d60e41b81526001600160a01b038381166004830152600092839291169063d47875d090602401602060405180830381865afa1580156108b8573d6000803e3d6000fd5b505050506040513d601f19601f820116820180604052508101906108dc91906116de565b90506000805b60045481101561093057600481815481106108ff576108ff6115b9565b9060005260206000200154831061091e5761091b8160016116f7565b91505b806109288161170a565b9150506108e2565b509392505050565b604080516101408101825260008082526020820181905281830181905260608083018290526080830182905260a0830182905260c0830182905260e08301829052610100830182905261012083015291516308c6f12f60e41b8152600481018490529091906001600160a01b037f00000000000000000000000000000000000000000000000000000000000000001690638c6f12f090602401600060405180830381865afa1580156109ee573d6000803e3d6000fd5b505050506040513d6000823e601f3d908101601f19168201604052610a16919081019061179a565b90506000610a28826101200151610f0e565b5090506001600160a01b0381163014610a5c5760405163b923d26160e01b8152600481018590526024015b60405180910390fd5b5092915050565b610a6b610d01565b80516104b290600490602084019061108b565b6000610a8982610938565b90508060c001516001600160a01b0316336001600160a01b031614610ac0576040516282b42960e81b815260040160405180910390fd5b6000610acf8260c0015161086a565b600084815260086020526040902054909150808211610b0457604051634327880b60e11b815260048101859052602401610a53565b60008481526008602090815260409182902084905581518381529081018490527feb0ebb51128928d7b1a6419c52128a9319bfcb55f0adafea75afbf75f9f2f3e9910160405180910390a150505050565b6000336001600160a01b037f00000000000000000000000000000000000000000000000000000000000000001614610b9f576040516282b42960e81b815260040160405180910390fd5b610ba882610f2f565b610bb457506000919050565b6001806000610bc960e0860160c087016113c3565b6001600160a01b03166001600160a01b031681526020019081526020016000206000828254610bf891906116f7565b90915550506040518235907fa0785ec0b9bf31a5475d33c716fb9f500f0ea0bb9e4bc10ec39d5db763c1da1590600090a2506001919050565b600781815481106103c857600080fd5b610c49610d01565b6001600160a01b038116610cae5760405162461bcd60e51b815260206004820152602660248201527f4f776e61626c653a206e6577206f776e657220697320746865207a65726f206160448201526564647265737360d01b6064820152608401610a53565b610cb781610ead565b50565b600080610cc683610938565b90506000610cd78260c0015161086a565b600094855260086020526040909420549093119392505050565b600581815481106103c857600080fd5b6000546001600160a01b0316331461078c5760405162461bcd60e51b815260206004820181905260248201527f4f776e61626c653a2063616c6c6572206973206e6f7420746865206f776e65726044820152606401610a53565b60608151600003610d7a57505060408051602081019091526000815290565b6000604051806060016040528060408152602001611a286040913990506000600384516002610da991906116f7565b610db39190611890565b610dbe9060046118b2565b6001600160401b03811115610dd557610dd5611216565b6040519080825280601f01601f191660200182016040528015610dff576020820181803683370190505b509050600182016020820185865187015b80821015610e6b576003820191508151603f8160121c168501518453600184019350603f81600c1c168501518453600184019350603f8160061c168501518453600184019350603f8116850151845350600183019250610e10565b5050600386510660018114610e875760028114610e9a57610ea2565b603d6001830353603d6002830353610ea2565b603d60018303535b509195945050505050565b600080546001600160a01b038381166001600160a01b0319831681178455604051919092169283917f8be0079c531659141344cd1fd0a4f28419497f9722a3daafe3b4186f6b6457e09190a35050565b6000610f0882610f8a565b92915050565b6000606082806020019051810190610f2691906118c9565b91509150915091565b600080610f456102da60e0850160c086016113c3565b905080600003610f67576040516282b42960e81b815260040160405180910390fd5b82356000908152600860205260409020819055610f8383610f95565b9392505050565b6000610f0882610fe5565b6000610fa082610fe5565b610fac57506000919050565b610fbf61028460e0840160c085016113c3565b15610fdd57604051630c59311960e11b815260040160405180910390fd5b506001919050565b600060026000610ffc610100850160e086016113c3565b6001600160a01b0316815260208101919091526040016000205460ff16610fdd576040516282b42960e81b815260040160405180910390fd5b82805482825590600052602060002090810192821561107b579160200282015b8281111561107b578251829061106b9082611968565b5091602001919060010190611055565b506110879291506110d2565b5090565b8280548282559060005260206000209081019282156110c6579160200282015b828111156110c65782518255916020019190600101906110ab565b506110879291506110ef565b808211156110875760006110e68282611104565b506001016110d2565b5b8082111561108757600081556001016110f0565b5080546111109061157f565b6000825580601f10611120575050565b601f016020900490600052602060002090810190610cb791906110ef565b60006020828403121561115057600080fd5b5035919050565b60005b8381101561117257818101518382015260200161115a565b50506000910152565b60008151808452611193816020860160208601611157565b601f01601f19169290920160200192915050565b602081526000610f83602083018461117b565b6001600160a01b0381168114610cb757600080fd5b8015158114610cb757600080fd5b600080604083850312156111f057600080fd5b82356111fb816111ba565b9150602083013561120b816111cf565b809150509250929050565b634e487b7160e01b600052604160045260246000fd5b60405161014081016001600160401b038111828210171561124f5761124f611216565b60405290565b604051601f8201601f191681016001600160401b038111828210171561127d5761127d611216565b604052919050565b60006001600160401b0382111561129e5761129e611216565b5060051b60200190565b60006001600160401b038211156112c1576112c1611216565b50601f01601f191660200190565b600060208083850312156112e257600080fd5b82356001600160401b03808211156112f957600080fd5b818501915085601f83011261130d57600080fd5b813561132061131b82611285565b611255565b81815260059190911b8301840190848101908883111561133f57600080fd5b8585015b838110156113b65780358581111561135b5760008081fd5b8601603f81018b1361136d5760008081fd5b87810135604061137f61131b836112a8565b8281528d828486010111156113945760008081fd5b828285018c83013760009281018b019290925250845250918601918601611343565b5098975050505050505050565b6000602082840312156113d557600080fd5b8135610f83816111ba565b6000602082840312156113f257600080fd5b81356001600160401b0381111561140857600080fd5b82016101408185031215610f8357600080fd5b6020815281516020820152602082015160408201526000604083015161144c60608401826001600160401b03169052565b5060608301516001600160401b03811660808401525060808301516001600160401b03811660a08401525060a083015160c083015260c083015161149b60e08401826001600160a01b03169052565b5060e08301516101006114b8818501836001600160a01b03169052565b84015190506101206114cd8482018315159052565b8401516101408481015290506114e761016084018261117b565b949350505050565b6000602080838503121561150257600080fd5b82356001600160401b0381111561151857600080fd5b8301601f8101851361152957600080fd5b803561153761131b82611285565b81815260059190911b8201830190838101908783111561155657600080fd5b928401925b828410156115745783358252928401929084019061155b565b979650505050505050565b600181811c9082168061159357607f821691505b6020821081036115b357634e487b7160e01b600052602260045260246000fd5b50919050565b634e487b7160e01b600052603260045260246000fd5b683d913730b6b2911d1160b91b815283516000906115f4816009850160208901611157565b71111610113232b9b1b934b83a34b7b7111d1160711b600991840191820152845161162681601b840160208901611157565b6c1116101134b6b0b3b2911d101160991b601b92909101918201528351611654816028840160208801611157565b61227d60f01b60289290910191820152602a0195945050505050565b7f646174613a6170706c69636174696f6e2f6a736f6e3b6261736536342c0000008152600082516116a881601d850160208701611157565b91909101601d0192915050565b634e487b7160e01b600052601160045260246000fd5b81810381811115610f0857610f086116b5565b6000602082840312156116f057600080fd5b5051919050565b80820180821115610f0857610f086116b5565b60006001820161171c5761171c6116b5565b5060010190565b80516001600160401b038116811461173a57600080fd5b919050565b805161173a816111ba565b805161173a816111cf565b600082601f83011261176657600080fd5b815161177461131b826112a8565b81815284602083860101111561178957600080fd5b6114e7826020830160208701611157565b6000602082840312156117ac57600080fd5b81516001600160401b03808211156117c357600080fd5b9083019061014082860312156117d857600080fd5b6117e061122c565b82518152602083015160208201526117fa60408401611723565b604082015261180b60608401611723565b606082015261181c60808401611723565b608082015260a083015160a082015261183760c0840161173f565b60c082015261184860e0840161173f565b60e082015261010061185b81850161174a565b90820152610120838101518381111561187357600080fd5b61187f88828701611755565b918301919091525095945050505050565b6000826118ad57634e487b7160e01b600052601260045260246000fd5b500490565b8082028115828204841417610f0857610f086116b5565b600080604083850312156118dc57600080fd5b82516118e7816111ba565b60208401519092506001600160401b0381111561190357600080fd5b61190f85828601611755565b9150509250929050565b601f82111561196357600081815260208120601f850160051c810160208610156119405750805b601f850160051c820191505b8181101561195f5782815560010161194c565b5050505b505050565b81516001600160401b0381111561198157611981611216565b6119958161198f845461157f565b84611919565b602080601f8311600181146119ca57600084156119b25750858301515b600019600386901b1c1916600185901b17855561195f565b600085815260208120601f198616915b828110156119f9578886015182559484019460019091019084016119da565b5085821015611a175787850151600019600388901b60f8161c191681555b5050505050600190811b0190555056fe4142434445464748494a4b4c4d4e4f505152535455565758595a6162636465666768696a6b6c6d6e6f707172737475767778797a303132333435363738392b2fa2646970667358221220c6cd53582319cbc27735f3f52b01120dfa184ec184b0b43dd30fcc9d5d290f5664736f6c63430008130033",
    "linkReferences": {}
  },
  "methodIdentifiers": {
    "badgeLevel(bytes32)": "42faaa7e",
    "badgeLevelDescriptions(uint256)": "d84a4a5e",
    "badgeLevelImageURIs(uint256)": "ffa679b7",
    "badgeLevelNames(uint256)": "0d713004",
    "badgeTokenURI(bytes32)": "24830563",
    "canUpgrade(bytes32)": "f942ebd6",
    "checkLevel(address)": "8b2c41bc",
    "getAndValidateBadge(bytes32)": "8c6f12f0",
    "gitcoinPassportDecoder()": "2149ee55",
    "hasBadge(address)": "5e50864f",
    "isAttester(address)": "b6ebe539",
    "issueBadge((bytes32,bytes32,uint64,uint64,uint64,bytes32,address,address,bool,bytes))": "d753a63d",
    "levelThresholds(uint256)": "5c445412",
    "owner()": "8da5cb5b",
    "renounceOwnership()": "715018a6",
    "resolver()": "04f3bcec",
    "revokeBadge((bytes32,bytes32,uint64,uint64,uint64,bytes32,address,address,bool,bytes))": "8298b030",
    "setBadgeLevelDescriptions(string[])": "2c01c7a4",
    "setBadgeLevelImageURIs(string[])": "114c05df",
    "setBadgeLevelNames(string[])": "43e839cf",
    "setLevelThresholds(uint256[])": "bb2ae6bf",
    "toggleAttester(address,bool)": "0ee48948",
    "transferOwnership(address)": "f2fde38b",
    "upgrade(bytes32)": "bc444e13"
  },
  "id": 59
}